:1000000080314E2864340134803120007F08FC00A8
:10001000111C0B280C2811281110AA31E92280315B
:1000200011282000911C152816281B289110A93191
:10003000462180311B280B1C1E281F283828200031
:100040000D0821005406FB007B08FD0027009601E7
:100050000B107D1E2C282D283128B7313E278031EA
:10006000312820000D08FB007B082100D40038282F
:100070002000911E3C283D2841289931F9218031EA
:1000800041282000111E452846284A289031012089
:1000900080314A287C082000FF0009000308A000E6
:1000A0008801AF31432F2100951313308C002000BD
:1000B0008C01023023008C00FB3021008D002000D9
:1000C0008D0123008D01F73024008D0010302700B2
:1000D00094001030950096010B108B1523302000F2
:1000E000A50025082100DB0098308E0020008E013D
:1000F00021008F0120008F0123008F01210090013A
:100100002000900123009001240090018230200003
:10011000A600DD30A500A50B8B28A60B8B28902808
:1001200082302000A600DD30A500A50B9528A60B87
:1001300095289A282000A90102302902031CA12831
:10014000A228A428F028F0280130A5000930A60034
:100150002608A1002908A93112218031063EBF3EA0
:10016000860001308700010C0739890A2000B92870
:10017000A535890BB8282508A7002708A80009304D
:10018000A5002508A1002908A93112218031073EC8
:10019000BF3E8600013087000108860087012000ED
:1001A00028080105A6000930A7002708A100290892
:1001B000A93112218031063EBF3E86000130870002
:1001C000010820002606FE39260681000130A50020
:1001D0002508A90702302902031CEF28F028A428CB
:1001E000A9010D18F428F528F62829148D1AF928E4
:1001F000FA28FC28A914FC282908FE280800080071
:10020000813182070229AF31A12FA4313A2CB731B5
:10021000582FB731662FE029DC010E29523020001B
:10022000A9000130AA00A3314C2381310038031DFD
:100230001A291B291D29EC29EC2922000D15523001
:100240002000AD000130AE000030B2000030B1003F
:100250000030B0007D30AF00A031CF2081312100CF
:10026000DC010314DC0DEC2952302000A900013020
:10027000AA00A3314C2381310038031D40294129B4
:100280004329EC29EC2921009D1402302000D300E1
:1002900053082100DC00EC299D1C4F2950295229CC
:1002A000EC29EC291C08D301D3071B08D201D20783
:1002B0002000ED195C295D2967296D1A60296129E3
:1002C0006729FB30D300530822008D0567290130D0
:1002D00021005302E73003195202031870297129D3
:1002E000892920006408031D7629A7290130E4022A
:1002F000031D7B297C29A7296D1C7F298029A7291B
:100300006D1000306D180130A231DB228131A72938
:10031000A72908302000640203188F299029A729F3
:100320000130D3005308E40708306402031C992904
:100330009A29A7296D189D299E29A7296D14003097
:100340006D180130A231DB228131A729A7292200B3
:100350003F0821005306031DB12922003E08210059
:1003600052060319B429B529CC2953082000A2014B
:10037000A207210052082000A101A107903102200C
:100380008131210053082200BF01BF07210052081C
:100390002200BE01BE07CC2952302000AD00013042
:1003A000AE000030B2000030B1007A30B000123040
:1003B000AF00A031CF2081312100DC01EC29EC29F4
:1003C00021005C08003A03190E29013A0319342967
:1003D000033A03194C290C2908002000A500F9292B
:1003E000F12920002508A831F8208131FF29FF29B3
:1003F000FF2921005A08003A0319F129F1290800C0
:100400000034013400340A34003464340034E834F5
:1004100003341034273401340034103400340034F1
:1004200001340034103400340E3406340134023404
:1004300000340234013400340734A134333402343C
:10044000003400340734DD344634013401340034E0
:10045000073439341834013402340034023401349E
:10046000003407348534163402340234003407343F
:1004700014340234023400340034073476346234E5
:100480000234023400340734AF34293402340134E6
:1004900000340734CA3419340234023400340734C7
:1004A0003434433402340134003407349F3431345B
:1004B00002340034003407345D3412340234013421
:1004C00000340734C3342B3402340234003407348C
:1004D0001434023402340034003407347634623485
:1004E0000234023400340734AF3429340234013486
:1004F00000340734C9341934023402340034073468
:10050000AD344E340134013400340234013400344B
:100510000734093455340234023400340734A43427
:1005200003340234003400340A34363400340734DF
:100530004C342F340134023400340234013400349A
:100540000734C0340C340234023400340734143419
:10055000023402340034003407348E345E34023402
:100560000234003407344B3429340234013400346B
:100570000734CA3419340234023400340734F534F1
:10058000423402340034003401340034003408347E
:1005900000340034033401340034013401340034B5
:1005A000073450344934023401340034073476348B
:1005B000623402340234003407346C3404340234BC
:1005C0000034003408340134003407345E34F83425
:1005D0000C34AD34043403340134003407347A3439
:1005E000D83401340234003406340334003409347E
:1005F0000034003401340134003408340134003450
:100600000734E234AB340C34AD34043403340134F5
:10061000003407349E346334023401340034073428
:10062000D5345234023402340034013400340034FE
:1006300006340B34003407346C3404340234003490
:1006400000340934003400340134023400340734F7
:10065000D13414340134013400340734BA34D8347A
:100660000834013400340734C33498340C34423431
:1006700003340C34593404340134003400340E345F
:1006800000340034043401340034013402340034C2
:100690000734FF34FF3401340134003407345B3451
:1006A000273401340034003406340A340034093469
:1006B000003400340134013400340734B634623479
:1006C00001340234003405340134003407342C344E
:1006D0008A340134013400340734D934D834013435
:1006E000023400340734CD34893404340034003407
:1006F0000734C43406340134013400340734DA34A6
:10070000D8340134023400340734ED3489340134F0
:10071000013400340734DA34D8340134023400347C
:100720000734ED3489340134013400340734633440
:10073000B13401340234003407344C348A34023486
:10074000023400340734FC342634023400340034DC
:1007500001340034003406340334003409340034E6
:1007600000340134023400340734103415340234B8
:100770000134003407343F34283402340034003468
:100780000734AD3489340134013400340734633420
:10079000B1340134023400340734ED348934013487
:1007A0000134003407346334B1340134023400348A
:1007B00007344C348A3402340234003407348C3425
:1007C0002834023400340034013400340034063458
:1007D000033400340934003400340134023400346A
:1007E00007342834113402340134003407343334EC
:1007F0002A340234003400340734AD3489340134EF
:10080000013400340734ED348934013402340034C7
:100810000734ED3489340134013400340734EC34C6
:10082000893401340234003407344C348A340234BD
:10083000023400340734EF342C34023400340034F2
:100840000734793408340234013400340734B734BF
:100850002D3402340034003407342334B1340134ED
:10086000013400340734ED34893401340234003467
:1008700007346334B1340134013400340734ED34C7
:10088000893401340234003407346334B134013420
:10089000013400340734EC34893401340234003438
:1008A00007346334B1340134013400340D3400347E
:1008B000003407344C348A340234023400340734B0
:1008C0002C3401340234003400340734AB342F3478
:1008D00002340234003407342C340134023400343E
:1008E00000340734AB342F3402340234003407347C
:1008F0002C3401340234003400340734DB34273420
:1009000002340234003407342C340134023400340D
:1009100000340734DA342734023402340034073424
:10092000D234233402340134003407344A341934C5
:1009300005340034003402340234003407345C34AB
:100940004734023401340034073410340B34023499
:10095000003400340D3400340034043401340034E5
:100960000734763462340434003400340734FF34FE
:10097000FF340734C73427340434013400340734D7
:100980008E345E3404340034003407340A342034A6
:1009900004340134003407348E345E3404340034BB
:1009A000003407340A34203404340134003407346A
:1009B000FF34FF340734C7342734043400340034A0
:1009C000013400340034083400340034013401347C
:1009D00000340D340034003400340E340634013455
:1009E00001340034023401340034073409345534FE
:1009F0000234023400340734A434033402340034A3
:100A000000340A34013400340C34423403340C34DE
:100A1000593404340134003400340E3400340034CA
:100A20003F340034003400340034003400340034E7
:100A30000134683465346C3470340034003400346C
:100A4000003401346534633468346F340034003466
:100A500000340034033400340034003400340034F3
:100A6000003400340034003449344E3453345F349D
:100A70004134553454344F3444344F345334453472
:100A80002C342034253475342E34253475346D34AB
:100A90006C3425347334003455346E346B346E3416
:100AA0006F3477346E34203463346F346D346D3486
:100AB00061346E346434203427342534733427345D
:100AC0000A34003449344E3453345F34533454348C
:100AD0004134523454342C34203475346E346534FB
:100AE0007834703465346334743465346434003479
:100AF0005334743461347234743469346E3467340A
:100B00002034253473342034703472346F346734B5
:100B1000723461346D340A340034533474346134C3
:100B20007234743469346E34673420342534733449
:100B3000203463346C34653461346E34753470340D
:100B40000A3400344134753474346F347434693485
:100B50006D346534723420346534783470346934DB
:100B60007234653464343A34203400345734653494
:100B70007434203463346C34653461346E347534C9
:100B80007034203466346F347234633465346434C2
:100B90000A34003449344E3453345F3457344134CA
:100BA00049345434573441345434453452342C3459
:100BB00020342534733425347334003449344E34AE
:100BC00053345F3453344B3449345034493446340D
:100BD0005734453454342C3420342534753425347A
:100BE0007334003449344E3453345F3453344B340B
:100BF00049345034493446344434523459342C3412
:100C00002034253475342534733400340A342A34BE
:100C10002A342A34203443346134743447346534FC
:100C20006E3469347534733420342A342A342A34C7
:100C30000A34003449344E3453345F34523445342A
:100C40005434553452344E342C34203430347834C7
:100C50002534303434345834003449344E34533429
:100C60005F345734413449345434543449344D3466
:100C700045342C342034253475346D3473340034C9
:100C8000503469346E3420347234653473346534CE
:100C900074342034283473346C34653465347034DF
:100CA00029340A3400345334653474347534703460
:100CB000203462347534743474346F346E342034B8
:100CC000683465346C3464340A3400345334743416
:100CD000613472347434203462347534743474344E
:100CE0006F346E342034683465346C3464340A34C0
:100CF0000034433461347434743469346D3465348D
:100D00007234203465347834703469347234653424
:100D100064340A34003452346534733475346D34B9
:100D200069346E3467342034703472346F3467340D
:100D3000723461346D340A340034533474346F3493
:100D40007034703469346E346734203470347234E3
:100D50006F346734723461346D340A34003449348A
:100D60004E3453345F3475346E346B346E346F34B8
:100D700077346E343A34203430347834253458346F
:100D8000003430343134323433343434353436345E
:100D900037343834393441344234433444344534BC
:100DA00046340034253464342034253464343A34F1
:100DB00025342E34323464342E3425342E343234F7
:100DC0006434203400344B346E346F3477346E34F2
:100DD000203463346F346D346D3461346E34643474
:100DE00073343A340A340034503461347234613428
:100DF0006D3465347434653472342034653472343F
:100E000072346F3472340A3400342C3420346E342B
:100E10006F342034733474346134723474343A343B
:100E200020343034783425345834003449344E3446
:100E300053345F34433441344C344C342C342034F8
:100E40003034783425343034343458340034493430
:100E50004E3453345F345734413449345434443479
:100E60004F345334413447344534253473340034DB
:100E7000423472346F3477346E342D346F347534B9
:100E800074342034723465347334653474340A3401
:100E90000034503461347534733465346434203430
:100EA000703472346F346734723461346D340A34A0
:100EB000003449344E3453345F345734413454345D
:100EC000453452342C34203425347334253473346F
:100ED000003449344E3453345F344434523459343A
:100EE000453452342C34203425347334253473344F
:100EF00000345734613474346334683464346F3488
:100F000067342034723465347334653474340A348D
:100F1000003450346F347734653472342D346F3488
:100F20006E342034723465347334653474340A3466
:100F3000003455346E346B346E346F3477346E3421
:100F400020346534723472346F3472340A340034AD
:100F500044347234613469346E3420347434693406
:100F60006D3465346F34753474340A3400342C3481
:100F7000203469346E3463346F346D3470346134CA
:100F80007434693462346C346534003449344E341A
:100F900053345F34503455344D3450342C34203471
:100FA00025347334253473340034533479346E3437
:100FB00074346134783420346534723472346F346C
:100FC00072340A34003442346F3478342034663456
:100FD0006C346F346F3464346534643421340A34CF
:100FE0000034463469346C346C34203474346934DD
:100FF0006D3465346F34753474340A3400344934D4
:101000004E3453345F3453345434413452345434B2
:101010002C34203425347334003453346534743420
:1010200020346D346F3464346534203425347534A1
:101030000A34003449344E3453345F3442344F342C
:1010400057344C342C342034253473340034773402
:1010500061346934743469346E3467342E342E3418
:101060002E340A3400344934503420343034783447
:1010700025343034343458343A342034003449344C
:101080004E3453345F34413452344D342C34203494
:1010900025347334003449342F344F3420346534CC
:1010A000723472346F3472340A3400342034283489
:1010B00073346B3469347034703465346434293477
:1010C0000034503469346E342034723465347334EF
:1010D000653474340A3400344534633468346F340E
:1010E0003A342034253473340A34003473346B3486
:1010F00069347034703469346E3467340A340034BF
:101100005734613474346534723420342534733484
:101110000A34003442344F3457344C345F3453343F
:1011200054344F34503400342034443472346134F5
:1011300069346E3469346E34673400344434723444
:10114000613469346E34653464340A34003475347F
:101150006E346B346E346F3477346E340A3400344A
:10116000413452344D345F3444344F3457344E3468
:101170000034413452344D345F34533454344F349A
:101180005034003442344F3457344C345F34433499
:101190004334573400342034463469346C346C346E
:1011A00069346E3467340034433461347434203429
:1011B000253473340A340034463469346C346C3466
:1011C000653464340A34003442346F347834203463
:1011D000693473342034003449344E3453345F342A
:1011E00045344E344434003442344F3457344C3454
:1011F0005F3443345734003428346E3475346C34DF
:101200006C34293400346D34653473347334793478
:101210000A340034203428346E346F347034293466
:101220000034413452344D345F345534503400343A
:1012300074346934643479340A340034773465346E
:1012400074340A34003468346934673468340034E0
:101250006F347534743400346F346634663400345B
:1012600077346534743400346C346F34773400343C
:1012700064347234793400342334203400346934D3
:101280006E3400346F346E3400342000A701A8019E
:101290002208210403194D294E298429A60103148B
:1012A000A60D5C290130A135A20D890B532901300F
:1012B000A5002508A6075C29A21F5F2960295229DD
:1012C000622962290130A735A80D890B63292208FC
:1012D0002402031D6D2921082302031C7029712992
:1012E00077292108A3022208A43B2714772901307B
:1012F000A236A10C890B78290130A602031D812991
:1013000082296229842984292808A201A2072708A2
:10131000A101A1078B2908000D2BD9018F292000DD
:10132000AE010030B731922789310A3020006E02B9
:10133000031C9B299C29A229AE010030B731A127AB
:101340008931642A2000AE010314AE0D5530B73147
:10135000A1278931642A642AE201B229B229B2297B
:10136000B229B2296208013A003003190130B200F3
:101370003208A1000130AD319F258931200062087B
:10138000023A003003190130B2003208A1000230E5
:10139000AD319F25893120006208033A00300319DE
:1013A0000130B2003208A1000330AD319F258931F0
:1013B00020006208043A003003190130B2003208FC
:1013C000A1000430AD319F2589312000AE010030ED
:1013D000B731B0278931192BF029F029F029F029EC
:1013E00020006208093A0030031D0130B2003208C3
:1013F000A1000130AD319F25893120006208063AF5
:10140000003003190130B2003208A1000230AD31C2
:101410009F25893120006208073A00300319013006
:10142000B2003208A1000330AD319F258931200080
:101430006208083A003003190130B2003208A100F6
:101440000430AD319F258931F01C272A282A372AFC
:1014500020006608023A03192E2A2F2A372AAE01E5
:101460000314AE0D5530B731B0278931192B701CDC
:101470003A2A3B2A582A20006608023A0319412AD0
:10148000422A582AF11C452A462A4E2AAE01031444
:10149000AE0DFA30B731B0278931192B2000AE01DB
:1014A0000314AE0DFE30B731B0278931192B192B3B
:1014B0002000AE010314AE0DFF30B731B0278931E3
:1014C000192B192B192B192B2000620884000A30C4
:1014D00004020318AC29A83104351E3E8200192BE2
:1014E0002000AE010030B731922789312000AE01D3
:1014F0000314AE0DFF30B731A12789310A30200027
:101500006E02003003180130B2003208A100013031
:10151000AD319F258931193020006E02003003184B
:101520000130B2003208A1000230AD319F2589316F
:10153000323020006E02003003180130B200320851
:10154000A1000330AD319F2589314B3020006E0260
:10155000003003180130B2003208A1000430AD3170
:101560009F258931643020006E02031CB82AB92AF5
:10157000C12AAE010314AE0DFF30B731B027893157
:10158000192B2000AE010030B731B0278931192B5B
:10159000192B2000AE010314AE0D5530B731922740
:1015A00089312000AE010030B731A12789312000F8
:1015B0006308013A003003190130B2003208A1007B
:1015C0000130AD319F25893120006308023A003097
:1015D00003190130B2003208A1000230AD319F255D
:1015E000893120006308033A003003190130B2004A
:1015F0003208A1000330AD319F25893120006308F6
:10160000043A003003190130B2003208A10004305E
:10161000AD319F258931192B192B21005908003A2A
:1016200003198F29013A0319702A033A0319C92AA9
:101630008D29F11D1C2B1D2B352B21005608031D58
:10164000222B2B2B2000AE010314AE0DAA30B73194
:10165000BF2789313C2B2000AE010314AE0DFF30B3
:10166000B731BF2789313C2B3C2B2000AE01003025
:10167000B731BF2789313C2B0800AB313D238B317B
:1016800033302000AF008830B0006C08B201B207E0
:101690006B08B101B1079431A0248B31EC2F0130DC
:1016A000683E86008701160001040319582B592B48
:1016B0007A2B0130683E86008701403F013A031DC6
:1016C000632B413F003A0319662B672B6D2BC23009
:1016D0002100A8008830A900732BF4302100A80055
:1016E0008830A900732B2908A701A7072808A6019D
:1016F000A607802B8A302100A6008830A700802B07
:101700001A302000AF008830B000210027082000E8
:10171000B201B207210026082000B101B1079431BF
:10172000A0248B3120006908AA3156228B31033066
:101730002000EB070030EC3D0330D9005908E500EC
:10174000F72F0130683E8600870116000104031957
:10175000AA2BAB2BCC2B0130683E86008701403F83
:10176000013A031DB52B413F003A0319B82BB92BA1
:10177000BF2B11302100AC008930AD00C52BB0303B
:101780002100AC008830AD00C52B2D08AB01AB07A4
:101790002C08AA01AA07D22BB9302100AA00883050
:1017A000AB00D22B3F302000AF008830B0002100CA
:1017B0002B082000B201B20721002A082000B10145
:1017C000B1079431A0248B3120006908AA317A2214
:1017D0008B3103302000EB070030EC3D0330D900A3
:1017E0005908E500F72FED1AF62BF72BFD2B0A30E1
:1017F0002100AE008930AF00032CF0302100AE0094
:101800008730AF00032C20006A086904031D092CEF
:101810000A2C102C2C302100B0008930B100162C7D
:1018200042302100B0008930B100162C5930200020
:10183000AF008730B000210031082000B201B207AC
:10184000210030082000B101B10721002F0820003D
:10185000B401B40721002E082000B301B30794316E
:10186000A0248B312000ED1E362C372C932C013018
:10187000683E86008701160001040319402C412CA4
:10188000852C0330AA3133228B312000D90002305D
:10189000590203184C2C4D2C562C0230D9005908F3
:1018A000A1000330AB31F5238B31562CB7310B2718
:1018B0008B310038031D5D2C5E2C7B2CCB3020003F
:1018C000AF008830B0009431A0248B310130A831B2
:1018D0009D208B31EA302000AD000030AE00013099
:1018E000B2007330B100EE30B000D830AF00A0319C
:1018F000CF208B31932C56302000AF008830B000C1
:101900009431A0248B31932C932C0030A8319D204E
:101910008B31EA302000A5000030A600A9316221F9
:101920008B31932C932C03302000EB070030EC3DDF
:101930000330D9005908E500F72FED1AA02CA12C8F
:10194000A72C0A302100B2008930B300AD2CF03052
:101950002100B2008730B300AD2C20006A08690472
:10196000031DB32CB42CBA2C2C302100B4008930C8
:10197000B500C02C42302100B4008930B500C02C25
:10198000C6302000AF008730B000210035082000AD
:10199000B201B207210034082000B101B1072100D3
:1019A00033082000B401B407210032082000B3013D
:1019B000B3079431A0248B312000ED1EE02CE12CE4
:1019C000EE2C9430AF008830B0009431A0248B31DD
:1019D00020006908B731EF278B31F72C56302000F3
:1019E000AF008830B0009431A0248B31F72C033045
:1019F0002000EB070030EC3D0330D9005908E5002A
:101A0000F72FED1A042D052D0B2D0A302100B600FD
:101A10008930B700112DF0302100B6008730B700B3
:101A2000112D20006A086904031D172D182D1E2D85
:101A30002C302100B8008930B900242D423021001B
:101A4000B8008930B900242D69302000AF008730FC
:101A5000B000210039082000B201B2072100380887
:101A60002000B101B107210037082000B401B407FC
:101A7000210036082000B301B3079431A0248B3134
:101A80002000ED1E442D452D4A2D6908A8313D202A
:101A90008B314A2D03302000EB070030EC3D033042
:101AA000D9005908E500F72F2D30AF008630B0007F
:101AB0006A08B201B2076908B101B1079431A024E4
:101AC0008B316A302000AD000130AE006908A10002
:101AD0006A08A200A301A4010030A8000030A700FA
:101AE0000030A6007D30A500AC312C248B312000C5
:101AF0002408B2002308B1002208B0002108AF007A
:101B0000A031CF208B3105302000D9005908E500E5
:101B1000F72FED1A8C2D8D2D932D0A302100BA0050
:101B20008930BB00992DF0302100BA008730BB000E
:101B3000992D20006A086904031D9F2DA02DA62D54
:101B400034302100BC008930BD00AC2D2330210091
:101B5000BC008930BD00AC2DCA302000AF008530FC
:101B6000B00021003D082000B201B20721003C086E
:101B70002000B101B10721003B082000B401B407E7
:101B800021003A082000B301B3079431A0248B311F
:101B90002000ED1ECC2DCD2DE92D6A086904031D12
:101BA000D22DD32DE32DE430AD000030AE00003057
:101BB000B2001330B1001230B000D030AF00A0310D
:101BC000CF208B31E32D05302000D9005908E500E6
:101BD000F72F0330EB070030EC3D0330D9005908F4
:101BE000E500F72FF72FED1AF62DF72DFD2D0A3012
:101BF0002100BE008930BF00032EF0302100BE005E
:101C00008730BF00032E27302000AF008730B000A0
:101C100021003F082000B201B20721003E08200049
:101C2000B101B1079431A0248B312000ED1E192E93
:101C30001A2E1F2E0530D9005908E500F72F033062
:101C4000EB070030EC3D0330D9005908E500F72FD1
:101C5000F72FED1A2C2E2D2E332EF0302100C00040
:101C60008730C100392E0A302100C0008930C10000
:101C7000392EF2302000AF008530B0006A08B20182
:101C8000B2076908B101B107210041082000B40181
:101C9000B407210040082000B301B3079431A02409
:101CA0008B312000ED1A552E562E692E6908013E03
:101CB000A10000306A3DA2000330A3000030A40060
:101CC000AA319E228B3120002108EB072208EC3D2F
:101CD0006D2E0330EB070030EC3D0330D90059087E
:101CE000E500F72FED1A752E762E7C2E0A30210096
:101CF000C2008930C300822EF0302100C20087303C
:101D0000C300822EDE302000AF008530B0006A08AC
:101D1000B201B2076908B101B107210043082000F0
:101D2000B401B407210042082000B301B307943185
:101D3000A0248B312000ED1E9E2E9F2EB22E69080E
:101D4000013EA10000306A3DA2000330A300003034
:101D5000A400AA319E228B3120002108EB07220823
:101D6000EC3DB62E0330EB070030EC3D0330D900DC
:101D70005908E500F72FED1ABE2EBF2EC52E0A30EA
:101D80002100C4008930C500CB2EF0302100C400F2
:101D90008730C500CB2E0A302000A1000030A20001
:101DA0006A08A401A4076908A301A3078931452192
:101DB0008B31200022082100A101A1072000210869
:101DC0002100A001A0070A302000A9000030AA00CD
:101DD0006A08AC01AC076908AB01AB07AC31D82489
:101DE0008B3120002A082100A301A3072000290825
:101DF0002100A201A20734302000AF008530B000DE
:101E0000210021082000B201B20721002008200093
:101E1000B101B107210023082000B401B40721005B
:101E200022082000B301B307210045082000B601B5
:101E3000B607210044082000B501B5079431A0245D
:101E40008B312000ED1E252F262F4C2F6430AD0046
:101E50000130AE006908A1006A08A200A301A40134
:101E60000030A8000130A700E830A6004830A500E7
:101E7000AC312C248B3120002408B2002308B1009F
:101E80002208B0002108AF00A031CF208B310130F3
:101E9000B731DE278B314C2F03302000EB070030A9
:101EA000EC3D0330D9005908E500F72F1630AF009C
:101EB0008730B0006A08B201B2076908B101B10702
:101EC0009431A0248B3120006B08033E2100D00008
:101ED000003020006C3D2100D1000030200069045A
:101EE0002100A400803020006A042100A500A43055
:101EF0002000D9005908A1000230A2000030A30040
:101F00006B30AB316A238B3103302000D900590884
:101F1000E500F72F1A30AF008630B00021005108DD
:101F20002000B201B207210050082000B101B10722
:101F30009431A0248B31210051082000EC01EC07E2
:101F4000210050082000EB01EB070330D9005908AD
:101F5000E500F72FEC30AF008830B0009431A024BA
:101F60008B312000A1010330AB31F5238B31A1313E
:101F70009D218B31F72F62302000AF008530B000FB
:101F80009431A0248B31F0160030F01A013020007B
:101F9000D9005908D7000430A23106228B31F72F1F
:101FA000AF302000AF008630B0006A08B201B2073F
:101FB0006908B101B1079431A0248B31F0160030CB
:101FC000F01A01302000D9005908D7000430A2319E
:101FD00006228B31F72FF72F2000680884000F307E
:101FE00004020318D02FA8310435003E8200EF30E0
:101FF0002000AF008730B0009431A0248B3108005E
:102002000800080002302000A1002108A200A3015C
:1020120011280310A20C0130A1002108A3071128E6
:10202200221C142815280A2821001D142000230828
:10203200A100A10DA10D21001D0820002106833958
:10204200210621009D009E1770309E041E11FC3057
:102052009E0508002000CC010D080239C20042088A
:10206200CC000030711901304C06031939283A2886
:1020720044284C08A83188209031711120004C1C52
:1020820043287115442820000D08C2004208CA00E6
:102092004A0821005B062000C2004208CC004A0820
:1020A200C20042082100DB0020004C1C59285A289B
:1020B2006A28BF30AD000130AE000030B2000030FF
:1020C200B1001830B0006A30AF00A031CF2090319B
:1020D2006A282000CC1E6E286F287F28C830AD00E9
:1020E2000130AE000030B2000030B1001830B00054
:1020F2006A30AF00A031CF2090317F282000CC0180
:1021020002304C02031C8628872889282E292E2972
:102112000930C2004208A1004C08A93112219031B5
:10212200BF3E2000A9000130AA00A3314C23903108
:10213200003A03199D289E28232909302000C20055
:102142004208A1004C08A93112219031073EBF3E3E
:1021520086000130870001088600870101082000FF
:10216200C3004308CB000130C2000930C30043085A
:10217200A1004C08A93112219031063EBF3E8600D3
:1021820001308700010C0739890A2000C928C235AD
:10219200890BC8284208C4004408CB050930C20094
:1021A2004208A1004C08A93112219031063EBF3EDF
:1021B2008600013087000108013920004B0603190F
:1021C200E328E42812290930C2004208A1004C0881
:1021D200A93112219031083EBF3E860001308700AE
:1021E20001082000C3004308C8004B08C20042088F
:1021F200C000480881310021903109302000C2001E
:102202004208A1004C08A93112219031063EBF3E7E
:1022120086000130870020004B080110031D0114C5
:1022220012290930C2004208A1004C08A93112212A
:102232009031BF3E2000A5000130A600A9316221E5
:102242009031232901302000C2004208CC0702301D
:102252004C02031C2D292E298928CC0106304C0260
:10226200031C342935293729462A462A0A30C20056
:102272004208A1004C08A93112219031203E2000D1
:10228200A9000230AA00A3314C239031003A03196D
:102292004B294C293A2A01302000C2000A30C300DF
:1022A2004308A1004C08A93112219031073E203E7B
:1022B20086000230870001080739890A2000622956
:1022C200C235890B61294208C4004408C9000A309A
:1022D200C2004208A1004C08A93112219031203ECF
:1022E2002000AD000230AE000030B2000030B1007C
:1022F2003D30B0000930AF00A031CF2090310A301C
:102302002000C2004208A1004C08A93112219031DC
:10231200063E203E86000230870001082000490563
:10232200031994299529C7290130C2000A30C30034
:102332004308A1004C08A93112219031073E203EEA
:10234200860002308700010E0739890A2000AA2977
:10235200C235890BA9294208C4000A30C5004508C4
:10236200A1004C08A93112219031083E203E86007E
:1023720002308700403F2000C600413FC7004608A8
:1023820086004708870044088104F9290130C20009
:102392000A30C3004308A1004C08A9311221903130
:1023A200073E203E860002308700010E0739890A67
:1023B2002000DC29C235890BDB294208FF3AC40020
:1023C2000A30C5004508A1004C08A93112219031FC
:1023D200083E203E860002308700403F2000C600B3
:1023E200413FC70046088600470887004408810528
:1023F2000A30C2004208A1004C08A93112219031D2
:10240200073E203E8600023087000108073920007F
:10241200C300C30A01084306F839430681000108D4
:1024220007390038031D162A172A3A2A0A30C20031
:102432004208A1004C08A93112219031073E203EEA
:102442008600023087008119272A282A3A2A0A3070
:102452002000C2004208A1004C08A931122190318B
:10246200063E203E86000230870081013A2A3A2A3F
:102472003A2A01302000C2004208CC0706304C0242
:10248200031C442A452A3729462A21005D08031DD8
:102492004B2A4E2A22008E14552AFD302000C200FB
:1024A200420822008E05552A08002000D000003084
:1024B200F11A01305006031D5F2A602A622A9F2CFE
:1024C2009F2CAB313D23923120005008031D6A2A14
:1024D2007B2BA931B72192312000CF0022002008A6
:1024E20020004F06FC394F062200A0000030AA311E
:1024F20056229231A931D52192312000CF00CF0D41
:10250200CF0D2200200820004F06F3394F0622008B
:10251200A0000030AA317A229231B73111279231CC
:102522002000CF00CF0E2200200820004F06EF39F6
:102532004F062200A0000030A8319D209231B63112
:10254200FC2692312000CF00CF0ECF0DCF0D2200FE
:10255200200820004F06BF394F062200A00000309D
:10256200B731DE279231B631F72692312000CF0003
:10257200CF0ECF0D2200200820004F06DF394F0674
:102582002200A0000030B731EF279231B731012786
:1025920092312000CF00CF0CCF0C22002008200067
:1025A2004F067F394F062200A0000030A8313D209F
:1025B200923151302000A1000030A200AD315725E8
:1025C20092316A302000A1000130A2005130CF00C8
:1025D2004F08A3009B31F4239231200024082200EB
:1025E200A400200023082200A300200022082200C9
:1025F200A200200021082200A1006A302000A500CC
:102602000130A600A93162219231EA302000A100F6
:102612000030A2005130CF004F08A3009B31F423B9
:102622009231200024082200A80020002308220062
:10263200A700200022082200A60020002108220074
:10264200A500EA302000A5000030A600A9316221D1
:102652009231E4302000A1000030A2005130CF00BE
:102662004F08A3009B31F42392312000240822005A
:10267200AC00200023082200AB0020002208220028
:10268200AA00200021082200A900E4302000A500B1
:102692000030A600A9316221923164302000A100ED
:1026A2000130A2005130CF004F08A3009B31F42328
:1026B2009231200024082200B000200023082200CA
:1026C200AF00200022082200AE00200021082200D4
:1026D200AD0064302000A5000130A600A9316221BE
:1026E200923149302000AF008730B0009431A024ED
:1026F20092319A2C711C7E2B7F2B812B9F2C9F2C2D
:102702008B30AF008630B0009431A0249231FF307C
:1027120022002406031D972BFF302306031D972B4F
:10272200FF302206031D972BFF30210603199A2B37
:102732009B2BB12B6A302000AD000130AE0001307E
:10274200203E860001308700403FAF00413FB0008D
:10275200423FB100433FB200A031CF209231B12BB2
:10276200701FB42BB52BD22B70130030701B0130AD
:102772002000CF004F08D7000130A231062292314B
:10278200EA302000AD000030AE000130B2007330FC
:10279200B100EE30B000D830AF00A031CF2092317E
:1027A200FC2BFF3022002806031DE12BFF302706F9
:1027B200031DE12BFF302606031DE12BFF3025060A
:1027C2000319E42BE52BFC2BEA302000AD0000308E
:1027D200AE000530203E860001308700403FAF004A
:1027E200413FB000423FB100433FB200A031CF2091
:1027F2009231FC2BFC2B701EFF2B002C1D2C701217
:102802000030701A01302000CF004F08D70002308C
:10281200A23106229231E4302000AD000030AE0039
:102822000030B2001330B1001230B000D030AF002F
:10283200A031CF209231472CFF3022002C06031DFD
:102842002C2CFF302B06031D2C2CFF302A06031DD7
:102852002C2CFF30290603192F2C302C472CE43066
:102862002000AD000030AE000930203E860001306D
:102872008700403FAF00413FB000423FB100433FBD
:10288200B200A031CF209231472C472CFF302200DA
:102892003006031D562CFF302F06031D562CFF3029
:1028A2002E06031D562CFF302D060319592C5A2CC7
:1028B200702C64302000AD000130AE000D30203E9F
:1028C200860001308700403FAF00413FB000423FE9
:1028D200B100433FB200A031CF209231702C2200D0
:1028E20020080339AA31562292312200200C890C89
:1028F2000339AA317A2292312200200E0139A831FD
:102902009D2092312200200E890C890C0139B731A9
:10291200DE2792312200200E890C0139B731EF27D0
:1029220092312200200D200D0139A8313D20923133
:102932009A2CF1122000501C9F2CF1160800313005
:102942002000B9003908BD00E72F4208253A0319D3
:10295200AB2CAC2CB12C4208AB3110239431E72FB5
:102962002000BF01C001BE01BE2CBE2C3E150130AD
:10297200AF070030B03DBE2CC92C2F0884003008B0
:1029820085000008303A0319B72CC92CC92CBE2C7B
:102992002F088400300885000008A831B320943144
:1029A200031CD42CD52C0D2D2000BF01C001D92C25
:1029B20020002F088400300885000008B900BA0101
:1029C2004008A201A2073F08A101A1070A30A30003
:1029D2000030A400AA319E22943120003908210738
:1029E200BB003A08223DBC003B08D03EBF00FF308E
:1029F2003C3DC0000130AF070030B03D2F088400DD
:102A0200300885000008A831B320943103180A2D3C
:102A12000B2DD92C0D2D0D2D20002F0884003008F0
:102A2200850000082E3A031D172D182D462D013062
:102A3200AF070030B03DC101382D0A302000B90087
:102A42003908A1004108A931122194312000BA00AD
:102A52002F0884003008850000083A07D03EBB00EA
:102A62003B08C1000130AF070030B03D382D2F08C0
:102A72008400300885000008A831B320943103187F
:102A8200432D442D1E2DE62DE62DC101E62DE62D0A
:102A9200FF2F0B2E0B2EBE170B2E3D088600870133
:102AA200403FC300413FC4000230B9003908BD07AE
:102AB20044084304031D5E2D5F2D642DFC30C300CA
:102AC2008830C400642DC501C6016C2D0130C507D4
:102AD2000030C63D6C2D4308450784004408463D3E
:102AE200850000080038031D772D782D672D792D7C
:102AF2004108031D7D2D922D4108B900BA01B91B71
:102B0200BA0346083A02031D882D45083902031804
:102B12008B2D8C2D922D4108C500C601C51BC60305
:102B2200922D40084602031D982D3F0845020318C6
:102B32009B2D9C2DA12D4508BF024608C03BAA2D06
:102B4200BF01C001AA2DAA2D2030AB311023943130
:102B5200AA2DFF302000BF07FF30C03DFF304006E6
:102B6200031DB52DFF303F06031DB82DB92DA52D30
:102B7200C92DC92D43088400440885000008AB31E3
:102B82001023943101302000C3070030C43DC92D09
:102B92000230433E8600870101308102413100301C
:102BA200813B7F31403FFF3A031DD92D413FFF3A20
:102BB200031DDC2DDD2DBB2DE72FE72FE72FC030C6
:102BC200B9003908BE040B2E0B2E20003008BA00C3
:102BD2002F08B9000130AF070318B00A3908840082
:102BE2003A0885000008C200003A0319FF2F583A3C
:102BF20003194C2D3C3A03190B2E0D3A03190B2ED7
:102C02001A3A03194E2D063A0319E02D0D3A03190B
:102C12004C2DE72F3E08C039031D102E112E2B2EEE
:102C22003D0886008701403FC300413FC400023097
:102C3200B9003908BD07C41F1F2E202E372E0330BE
:102C4200B9003908BE04C309C409C30A0319C40A76
:102C5200372E372E3D0886008701403FC300413F93
:102C6200C4000230B9003908BD07372EC108031D60
:102C72003B2E3C2EA82E44084304031D412E422E17
:102C8200A82E0130B9003908C107A82EA82E492E56
:102C9200C2010314C20D4208053A031D512E522EE1
:102CA200542EB42EB42E42080907013E840082300D
:102CB2000318013E8500003FB900013FBA003A08FF
:102CC2004402031D662E390843020318692E6A2E38
:102CD2006C2EB42EB42E0130B9003908C207420856
:102CE200053A031D752E762E542EB42EB42EC20133
:102CF2000314C20D4208043A031D802E812E832E36
:102D0200B42EB42E420809070B3E84008230031809
:102D1200013E8500003FB900013FBA003A08440273
:102D2200031D952E390843020318982E992E9B2EC7
:102D3200B42EB42E0130B9003908C2074208043A51
:102D4200031DA42EA52E832EB42EB42EB42E3E081F
:102D5200C039003A0319492E803A0319782E403AB5
:102D62000319492EB42E4208803AB9004108803A2C
:102D7200B9020318BD2EBE2EC32E4108B900390870
:102D8200C200D22E4108803AB9004208803AB90204
:102D92000318CC2ECD2ED22E4208B9003908C1001C
:102DA200D22E40083F040319D72ED82E072F3E08F3
:102DB20003390319DD2EDE2E072FFF30BF07FF3048
:102DC200C03D072F072F4108B900BA01B91BBA034A
:102DD2003A08803ABB004008803A3B02031DF32EBA
:102DE2003F0839020318F62EF72E022F2000410861
:102DF200B900BA01B91BBA033908BF023A08C03B8D
:102E0200072F2000BF01C001072F072F4208B9007A
:102E1200BA01B91BBA033A08803ABB004008803AAB
:102E22003B02031D162F3F0839020318192F1A2FD0
:102E3200252F20004208B900BA01B91BBA0339088C
:102E4200BF023A08C03B292F2000BF01C001292F31
:102E52003E1D2C2F2D2F522F3E0803390319322FDE
:102E6200332F382F2D30AB3110239431382F2000DF
:102E720040083F0403193E2F3F2FDA2F402F3030F6
:102E8200AB3110239431FF302000BF07FF30C03D2B
:102E920040083F04031D4E2F4F2F402FDA2FDA2F09
:102EA200DA2F40083F040319572F582F6A2F592F42
:102EB2002030AB3110239431FF302000BF07FF30A8
:102EC200C03D40083F04031D672F682F592F6A2F0A
:102ED2006A2F3E08033903196F2F702FDA2F2D3016
:102EE200AB3110239431DA2FDA2FDA2FC82F792F52
:102EF2000A302000A9000030AA0041080907013E5B
:102F0200840082300318013E8500003FA100013F8A
:102F1200A2004408A401A4074308A301A30789311E
:102F22004521943120002208AC01AC072108AB01F5
:102F3200AB07AC31D824943120002908303EB900C7
:102F42003908C200D52F410809070B3E84008230A0
:102F52000318013E8500003FA100013FA200440882
:102F6200A401A4074308A301A30789314521943191
:102F7200200021080F39C13E840086300318013E2B
:102F820085000008B9003908C200D52FD52F2000CE
:102F92003E08C039003A0319792F803A0319A42F49
:102FA200403A0319792FD52F4208AB3110239431BF
:102FB200DA2FFF302000B9003908C1074108FF3A73
:102FC200031DE42FE52FC82FE72FE72F200030083D
:102FD200BA002F08B9000130AF070318B00A390848
:102FE20084003A0885000008BB003B08C200C20802
:0E2FF200031DFC2FFD2FA62CFF2FFF2F080024
:103002006B28D901042820006208093A03190A280A
:103012000B2813286208013ECB0000300318013050
:10302200CC001628CB01CC0116284B08AE318E26D7
:10303200983177280A3020006E02031821282228AE
:1030420027280A30CA004A08EE00592819306E02B1
:1030520003182C282D2832281930CA004A08EE00FD
:10306200592832306E020318372838283D2832306A
:10307200CA004A08EE0059284B306E020318422853
:10308200432848284B30CA004A08EE0059286430C9
:103092006E0203184D284E2853286430CA004A088D
:1030A200EE005928EE01592859285928592859283B
:1030B2004030AD000130AE000030B2000930B10046
:1030C2008930B0006830AF00A031CF209831772826
:1030D2007728772821005908003A03190428013A71
:1030E20003191B28033A0319772802280800200035
:1030F200D100F010511C7E28F014AB313D239831E1
:103102002000D108031D862887288C282830CF006C
:103112008930D00091283F30CF008930D0009128EB
:10312200D430AF008830B0005008B201B2074F0867
:10313200B101B1079431A024983120005108031D38
:10314200A328A4287014701CA728A828C6285108F0
:10315200031DAC28B4284630A5000130A600A931D1
:1031620062219831C62846302000AD000130AE0001
:103172000130B200C930B100C330B0008030AF00BE
:10318200A031CF209831C628C62820006208053A0F
:103192000319CC28CD28E5286208063A0319D2285B
:1031A200D328E5286208073A0319D828D928E52840
:1031B2006208083A0319DE28DF28E5286208093A7E
:1031C200031DE428E5282C29701CE828E928282971
:1031D200E608031DED28EE28282912291229F114E8
:1031E20023292100D808031DF728F928F114FA2809
:1031F200F110232902302100580203180129032962
:10320200F1140429F1102329033021005802031874
:103212000B290D29F1140E29F1102329F11023296C
:1032220023296208053A0319F028033A0319F22800
:10323200013A0319FB280F3A03190529013A031928
:103242000F2923292000E6010314E60D28298931DC
:103252008C2198312C290800F8302200B905C7309A
:10326200B9052000330822003913031D3917B91795
:1032720023009F159F1D3E293F298A2920002F08E0
:10328200B4003008B5003108B6003208B70001308A
:10329200B435B50DB60DB70D890B49293708A40011
:1032A2003608A3003508A2003408A10080302F0799
:1032B200A5008430303DA6001E30313DA70000300D
:1032C200323DA800A0316C209931FF302000210747
:1032D200C000FF30223DC100FF30233DC200FF305D
:1032E200243DC300400823009B0020004008B40096
:1032F2004108B5004208B6004308B7000830B736A7
:10330200B60CB50CB40C890B8029340823009C0040
:10331200DD2910302000B4000030B5000030B600C6
:103322000030B7002F08B8003008B9003108BA00E1
:103332003208BB000130B835B90DBA0DBB0D890B8F
:103342009C293B08A4003A08A3003908A2003808C7
:10335200A10000302F07A5001230303DA6007A30C0
:10336200313DA7000030323DA800A0316C209931D8
:1033720020002108BC002208BD002308BE0024084A
:10338200BF000130BC35BD0DBE0DBF0D890BC32979
:103392003C08B4073D08B53D3E08B63D3F08B73D81
:1033A2000530B736B60CB50CB40C890BD2293408EB
:1033B200FF3E23009B00DD299E171E151E129D173E
:1033C20021009112111223001D131E131D121D162E
:1033D2009E129E16210091162200391FF129F22910
:1033E200F829113023009A002200B917F8290800A1
:1033F20023009D1CFD29FE29102A1908F200220033
:1034020039080739313E8600013087007208810091
:1034120023009E129E161D121D16C92AC92A1D1DA1
:10342200132A142A242A1908F2002200390807391B
:10343200313E8600013087007208810023009E120F
:103442009E16C92AC92A1908F2002200390807392A
:10345200313E860001308700720881003908073941
:10346200F200F20A39087206F8397206B900391FF9
:103472003B2A3C2AAB2AB91F3F2A402AAB2A390CE5
:10348200F200F20C720C0739F30039080739F40024
:103492007308740203184E2A4F2A6A2A3908073918
:1034A200F200F301F209F309F20A0319F30A390CE3
:1034B200F400F40C740C07397207F5007308031852
:1034C200730AF6007508FF3EF900FF30763DFA00F8
:1034D200902A390CF200F20C720C0739F300F40155
:1034E200F309F409F30A0319F40A390807397307CF
:1034F200F50074080318740AF6007508013EF70017
:103502000030763DF800F709F809F70A0319F80ABE
:103512007708083EF9000030783DFA00902A7A08D0
:10352200803AFF0080307F02031D992A033079021E
:1035320003189C2A9D2AAB2A9F2A9F2A2000111E2B
:10354200A32AA42A9F2AA52A133023009A00220024
:10355200B913AB2A2200390CF200F20C720C0739B3
:10356200F300390807397306031DB82AB92AC92A94
:10357200390CF200F20C720C0739F200F20AF20D69
:10358200F20DF20D39087206C7397206B900C92A5E
:1035920008002000DC005C08AB31C6239A31200011
:1035A2002208DB01DB072108DA01DA07D801D90199
:1035B200E82A5A08FF3E5C07CF004F088600013018
:1035C200870081010130DA020030DB3BE82A5B0828
:1035D2005A040319ED2AEE2A6B2B5A08FF3E5C07A8
:1035E200CF004F088600013087000108203A0319F6
:1035F200FB2AFC2ADA2A5A08FF3E5C07CF004F0852
:103602008600013087000108093A0319092B0A2BA9
:10361200DA2A6B2B6B2B6B2B182B5C088600013084
:10362200870081010130CF004F08DC07182B5C08AE
:103632008600013087000108203A0319212B222B32
:103642000E2B5C088600013087000108093A031935
:103652002B2B2C2B0E2B2D2B5C0886000130870088
:103662000108003A0319362B372B4A2B5C08CF008E
:103672005808513E860087014F0881000130D80763
:103682000030D93D4A2B4A2B0130CF004F08DC07CE
:103692004A2B5C088600013087000108003A0319B2
:1036A200532B542B6B2B5C088600013087000108DA
:1036B200203A03195D2B5E2B6B2B5C0886000130D0
:1036C20087000108093A031D672B682B452B6B2BDA
:1036D2006B2B6B2B5C088600013087008108031D71
:1036E200732B742B182B752B5108AD31ED259A31A4
:1036F20020002D08D701D7072C08D601D607D71BE3
:10370200832B842BE72BAA2BAA2BF32BD530AF00CC
:103712008730B0009431A0249A31F32B4B30200033
:10372200AF008830B0009431A0249A31F32BF430EA
:103732002000AF008630B0009431A0249A31F32BE0
:1037420099302000AF008730B0009431A0249A3124
:10375200F32B09302000CF004F08A1005608A931F1
:1037620012219A31083E103E840085300318013E32
:10377200850000082000D0005008D5005908C80173
:10378200C8075808C701C7075130CF004F08C90002
:103792005508813100219A3120004808003A031966
:1037A200D62BFF3A0319DB2BA12B4708003A03194A
:1037B200F32BA12B4708FD3A0319982B033A03195F
:1037C2008F2B013A0319872BA12BF32B4C30AF001F
:1037D2008530B0005108B1000130B2009431A0240C
:1037E2009A31F32B080000302000B0000030AF0007
:1037F2000030AE000030AD002208B201B20721084D
:10380200B101B1072308A5002508B3003308043E1F
:1038120086008701403FA500413FA6003108043ED3
:10382200A7000030323DA80027088600280887003C
:10383200403FA900413FAA0026082A02031D232C6B
:1038420025082902031C262C272C282DFD2CFD2CB3
:103852003108860032088700403FA500413FA6009C
:10386200423FA700433FA800330886008701403F3C
:10387200A900413FAA00423FAB00433FAC002808E9
:103882002C02031D4E2C27082B02031D4E2C26084A
:103892002A02031D4E2C250829020318512C522CF2
:1038A200282D3108860032088700403FA500413F9D
:1038B200A600423FA700433FA800330886008701C5
:1038C200403FA900413FAA00423FAB00433FAC004A
:1038D200A909AA09AB09AC09A90A0319AA0A031979
:1038E200AB0A0319AC0A2908A5072A08A63D2B082A
:1038F200A73D2C08A83D2808B0002708AF002608DD
:10390200AE002508AD00282D282D3308860087013A
:10391200403FA500413FA600423FA700433FA80009
:103922003108860032088700403FA900413FAA00C3
:10393200423FAB00433FAC0028082C02031DAB2CD6
:1039420027082B02031DAB2C26082A02031DAB2CD1
:10395200250829020318AE2CAF2CE92C3308860067
:103962008701403FA500413FA600423FA700433FD9
:10397200A8003108860032088700403FA900413F75
:10398200AA00423FAB00433FAC00A909AA09AB0918
:10399200AC09A90A0319AA0A0319AB0A0319AC0A4A
:1039A2002908A5072A08A63D2B08A73D2C08A83DF3
:1039B2002509AD002609AE002709AF002809B0008D
:1039C200AD0A0319AE0A0319AF0A0319B00A282D6A
:1039D200FF30B000FF30AF00FF30AE00FF30AD006F
:1039E200282D282DFF30B000FF30AF00FF30AE0091
:1039F200FF30AD00282D282D3108043EA5000030EF
:103A0200323DA60025088600260887003308043EBA
:103A120084008501003FA700013FA800A709A8096B
:103A2200A70A0319A80A403F2707A900413F283DDA
:103A3200AA002A08003A03191F2DF32C2908003A7C
:103A42000319292C013A0319862CF32C282D30084E
:103A5200A4002F08A3002E08A2002D08A100312DDA
:103A620008002000DA0121005908013A031D3A2D0D
:103A72003B2DEB2D40302000A9000130AA00A331DC
:103A82004C239D31003A0319472D482DEB2D200080
:103A92006308031D4D2D532D0230D8005808210014
:103AA200D900562D2100D901562D2000DA01031428
:103AB200DA0DEB2DEB2DE6015E2DDE30A900003094
:103AC200AA00A3314C239D31003A0319692D6A2DB6
:103AD200132E20006208A631BD269D31AB313D2355
:103AE2009D31A2302000AF008530B0009431A02477
:103AF2009D31701C7D2D7E2D8E2D27302000AF0034
:103B02008830B0009431A0249D312000E6010314D6
:103B1200E60DDA010314DA0D132E76302000AF0021
:103B22008830B0009431A0249D31132E132E132E11
:103B3200F0189C2D9D2D132E4630A9000130AA00AD
:103B4200A3314C239D31003A0319A82DA92D132E20
:103B5200AB313D239D3179302000AF008630B0007B
:103B62009431A0249D310030F1180130AD31172578
:103B72009D3102302000D8005808E600DA01031413
:103B8200DA0D132E132EB73123279D310038031D72
:103B9200CB2DCC2D132E46302000A5000130A600DF
:103BA200A9317E219D317010F11CD82DD92DDC2D2B
:103BB2002100D801E32D01302000D800580821004F
:103BC200D807E32D2000E601DA010314DA0D132EE3
:103BD200132E132E20006608003A03195E2D013AB7
:103BE2000319992D033A0319C42D5C2D132E2C2E83
:103BF200AA3112229D312000DA010314DA0D2C2E93
:103C0200983101209D312000DA010314DA0D2C2EA7
:103C1200A83173209D312000DA010314DA0D2C2E15
:103C22002C2E2C2E2100570803392000D800D90150
:103C32005908003A03191E2E2C2E5808003A03196F
:103C42002C2E013A0319F92D033A0319012E013AD8
:103C52000319092E2C2E2100D7015E302000A90065
:103C62000130AA00A3314C239D31003A03193A2EA8
:103C72003B2E822E632E632E0230AA31C3229D3147
:103C8200A9312C219D312000DA010314DA0D792E9D
:103C92000230AA31C3229D318031FF209D312000A4
:103CA200DA010314DA0D792E0230AA31C3229D31D2
:103CB200B731CE279D312000DA010314DA0D792EB7
:103CC200792E792E2100550803392000D800D90118
:103CD2005908003A03196E2E792E5808013A031931
:103CE2003D2E033A0319492E013A0319552E792E16
:103CF20071165E30A5000130A600A93162219D3106
:103D0200822E20005A08031D872E8B2E89318C218A
:103D12009D318B2E0800F11E8F2E902E922EFF2F9A
:103D2200FF2F20006508031D972EF42FB7310B27B4
:103D32009E310038031D9E2E9F2ECC2EB7311127A7
:103D42009E31003A0319A62EA72ECC2EEA3020006F
:103D5200A9000030AA00A3314C239E31003A031976
:103D6200B32EB42ECC2EAB313D239E31F130200048
:103D7200AF008730B0009431A0249E31701700301C
:103D8200701B01302000DA005A08D7000130A2313E
:103D920006229E31CC2EB7310B279E31003A0319F1
:103DA200D32ED42E012FB631F7269E31003A0319B5
:103DB200DB2EDC2E012FE4302000A9000030AA0007
:103DC200A3314C239E31003A0319E82EE92E012F2C
:103DD200AB313D239E31A8302000AF008730B000C8
:103DE2009431A0249E3170160030701A01302000E8
:103DF200DA005A08D7000230A23106229E31012F82
:103E020064302000A9000130AA00A3314C239E3166
:103E1200003A03190D2F0E2FF42F64302000A50055
:103E22000130A600A93162219E310030B731DE2770
:103E32009E31F42FF42FF42FFF2FF0120030F01ADE
:103E42000130DA005A08D7000430A23106229E312E
:103E520020006C08A401A4076B08A301A307A831E2
:103E620060209E3102302000DA005A08E500392F26
:103E720068308131ED219E31003A0319412F422FE2
:103E8200FF2F33302000AF008830B0006C08B20141
:103E9200B2076B08B101B1079431A0249E31200012
:103EA200E808031D552F562FB82FED1A592F5A2FF8
:103EB2005F2F3830DC008930DD00642F3030DC00C9
:103EC2008930DD00642FFF30AF008730B0005D081D
:103ED200B201B2075C08B101B1079431A0249E314E
:103EE200FF3020006905DA0000306A05DB0000308F
:103EF2005B020F3003195A020318802F812FAE2F55
:103F0200ED1A842F852F892FEA18882F892F922F57
:103F1200ED1E8C2F8D2FAE2F6A1D902F912FAE2F5D
:103F2200922F0330AA3133229E310038031D9A2F7B
:103F32009B2FA42F2000A1010314A10D0330AB314C
:103F4200F5239E31A42F03302000EB070030EC3D17
:103F52000330DA005A08E500C72FE501B730AF0099
:103F62008730B0009431A0249E31C72FC72FE501BE
:103F72000530AF008730B0006808DA00DB015A086C
:103F8200B1005B08B2009431A0249E31EF302000D2
:103F9200AF008730B0009431A0249E31FF2FFF2F55
:103FA20020006C08A401A4076B08A301A307A83191
:103FB20060209E3104302000DA005A08E500E12F2B
:103FC20068308131ED219E31003A0319E92FEA2F41
:103FD200FF2F8B313D239E31FF2FFF2FA431B424BD
:103FE2009E31FF2FFF2F2000650884000630040257
:103FF2000318FF2FA0310435003E820008009F31D4
:10400200FF2F9F311E2F9F31392F9F31D12F9F318B
:10401200E12F9F31EF2F4C302000A9000130AA0080
:10402200A3314C23A031003A0319182819286B2810
:104032004C302000A1000130A2000030A600013067
:10404200A500E830A4004830A300AE31E826A03134
:1040520001302200BA070030BB3D0030BC3D0030C9
:10406200BD3D01302000B70037082100C6073C30B3
:104072004602031C3D283E286B28C6010130200061
:10408200B70037082100C7073C304702031C4A2803
:104092004B286B28C70101302000B70037082100E8
:1040A200C80718304802031C572858286B28C80133
:1040B20001302000B70037082100C9070730490244
:1040C200031C642865286B28C9016B286B286B28A0
:1040D2006B286B28080000302000AD000030AC00D7
:1040E2000030AB000030AA0024082304220421047B
:1040F20003197C287D28C528AE010314AE0D8D2836
:104102000130A135A20DA30DA40D890B8228013027
:10411200A9002908AE078D28A41F9028912881287C
:10412200932893280130AA35AB0DAC0DAD0D890B48
:10413200942824082802031DA82823082702031D07
:10414200A82822082602031DA82821082502031CEC
:10415200AB28AC28B6282108A5022208A63B2308D2
:10416200A73B2408A83B2A14B6280130A436A30C86
:10417200A20CA10C890BB7280130AE02031DC22884
:10418200C3289328C528C5282D08A4002C08A300FD
:104192002B08A2002A08A100CE28080020002E0821
:1041A200BC01BC072D08BB01BB072E08A201A20758
:1041B2002D08A101A107AD315725A03120003208F9
:1041C200310430042F04031DE728E828EA283329A4
:1041D20033293B0886003C088700403FB700413F37
:1041E200B800423FB900433FBA003B0886003C0892
:1041F20087002F08810741313008813D4131310864
:10420200813D41313208813D3B0886003C088700F0
:10421200403FB300413FB400423FB500433FB600C8
:1042220036083A02031D1F2935083902031D1F29CA
:1042320034083802031D1F2933083702031C2229C0
:10424200232933293B08043EB30000303C3DB4002F
:104252003308860034088700013081074131031892
:10426200810A332908002000BF00210056082000DF
:104272003F050030031D01303D06031D412942293F
:1042820044299C299C293D08031D48296F29F119BD
:104292004B294C2951290130AA31C322A13151297C
:1042A2005E302000AD000130AE000030B2000330BD
:1042B200B100D030B0009030AF00A031CF20A1319A
:1042C200711220003F08BE003E082100D6042000E3
:1042D2003F08BE003E082100D50494295E3020002C
:1042E200A5000130A600A9316221A13120003F09B9
:1042F200BE003E082100D605D608031D8129822969
:104302009429F119852986299129711A89298A29DD
:10431200912955082000BE003E082100D7009129AE
:10432200D50194299429F11D972998299C2989312D
:104332008C21A1319C2908002000E508031DA22937
:10434200A329A529052A052AAB313D23A1319D3098
:104352002000AF008630B0009431A024A13100309B
:10436200AA315622A1310030AA317A22A13100307D
:10437200A8319D20A1310030B731DE27A1310030B4
:10438200B731EF27A1310030A8313D20A131EA3009
:104392002000A5000030A600A9316221A131E4303D
:1043A2002000A5000030A600A9316221A1316430AD
:1043B2002000A5000130A600A9316221A131200010
:1043C200E501F112701FE629E729F3297013003085
:1043D200701B0130CF004F08D7000130A2310622F6
:1043E200A131F329701EF629F729042A7012003030
:1043F200701A01302000CF004F08D7000230A231DE
:104402000622A131042AF01308002000D80058081F
:10441200043A031D0D2A0E2A162A5708031D122AD2
:10442200162AA1319D21A231162A20005808013AEC
:1044320003191C2A1D2A2A2A5808023A0319222A79
:10444200232A2A2A5808033A031D282A292A632ADA
:104452002A2A5708031D2E2A632A01309231562236
:10446200A231632A632A6E2A20005708031D3A2AC2
:104472006E2AAE010314AE0D0130B7318327A2318B
:104482006E2A6E2A20005708031D482A6E2AAE01A2
:104492000314AE0D0530B7318327A2316E2A6E2A7E
:1044A20020005708031D562A6E2AAE010314AE0DD2
:1044B2001530B7318327A2316E2A6E2A6E2A6E2AF0
:1044C2006E2A6E2A2000580884000630040203185F
:1044D2006E2AB0310435003E820008002000A3009D
:1044E200A401210091122200390C2000A100A10C8C
:1044F200210C0739A20022003908073920002206C0
:104502000319842A852AD52A2200390C2000A10009
:10451200A10C210C0739313E8600013087000108C9
:10452200A200230886008701220881002200390C9C
:104532002000A100A10C210C0739A100A10AA10DA4
:10454200A10DA10D2200390820002106C73921063C
:104552002200B900391FAE2AAF2AD02AB91BB22ACB
:10456200B32AD02A390C2000A100A10C210C073952
:10457200A20022003908073920002206031DC22AA0
:10458200C32AD02AC52AC52A111EC82AC92AC52A61
:10459200CA2A113023009A002200B917D02A20001B
:1045A200A4010314A40DD52A210091162000240889
:1045B200DA2A08002000D200AB313D23A2312000CC
:1045C200D208031DE52AE62AEB2A3430D0008930CE
:1045D200D100F02A2330D0008930D100F02A803077
:1045E200AF008830B0005108B201B2075008B101E3
:1045F200B1079431A024A23120006508031D022BCB
:104602002B2B5208031D062B1E2B0030A8319D2098
:10461200A231EA302000A5000030A600A9316221B3
:10462200A231AB313D23A231DC302000AF00883013
:10463200B0009431A024A2314B2BAB313D23A231E7
:104642009E302000AF008830B0009431A024A23107
:104652004B2B4B2BF013521C2F2BF017F01F322B2E
:10466200332B3F2BAB313D23A231E3302000AF008F
:104672008730B0009431A024A2313F2B0030F01BD0
:1046820001302000CF004F08D7000530A2310622AA
:10469200A2314B2B080031302000A1000030A200D3
:1046A200AD315725A33120002908023EAB0000306E
:1046B2002A3DAC002B0886002C088700403FAD0045
:1046C200413FAE00423FAF00433FB00030083606E4
:1046D200031D752B2F083506031D752B2E08340676
:1046E200031D752B2D083306031D782B792B932B75
:1046F200290886002A088700403FAB00413FAC00F2
:104702002C083202031D872B2B083102031C8A2B33
:104712008B2B8F2B0130BF2BBF2BBF2B0030BF2B1E
:10472200BF2BBF2B2908023EAB0000302A3DAC0054
:104732002B0886002C088700403FAD00413FAE00A9
:10474200423FAF00433FB00036083002031DB32B97
:1047520035082F02031DB32B34082E02031DB32B81
:1047620033082D020318B62BB72BBB2B0130BF2BFE
:10477200BF2BBF2B0030BF2BBF2BBF2B080020004D
:10478200AD002A08031DC62BF42B0A30AB002B0800
:10479200A1002D08A9311221A331063E203E860038
:1047A20002308700010820002906031DD92BDA2BCD
:1047B200F42B0A30AB002B08A1002D08A9311221DD
:1047C200A331073E203E860002308700010C200004
:1047D200AC00AC0C2C0C01392A06031DF12BF22B78
:1047E200F42B392C392C0A30AB002B08A1002D08F0
:1047F200A9311221A331203E2000A5000230A600DB
:10480200A9317E21A3310A302000AB002B08A10080
:104812002D08A9311221A331073E203E8600023025
:104822008700F830810520002908AB000A30AC006F
:104832002C08A1002D08A9311221A331063E203EE9
:1048420086000230870020002B0881000A30AB006E
:104852002B08A1002D08A9311221A331073E203EC9
:1048620086000230870020002A088111031D81156D
:10487200080020004808803AFF0080307F02031DB4
:10488200442C03304702031C472C482C4F2CFF308A
:104892002000C700FF30C800B32CB32C0230200028
:1048A20047064804031D562C572C932C4230A50072
:1048B2008930A6001430A7000030A8004908013E44
:1048C200860087010108AE313B26A431200026086C
:1048D2002504031D6D2C6E2C722CEF010314EF0DB9
:1048E200932C2C30A5008930A6001430A70000308C
:1048F200A8004908013E860087010108AE313B2627
:10490200A431200026082504031D882C892C8B2C19
:10491200EF01932CFF30C700FF30C800B32CB32C3B
:10492200932C932CEF08031D972C982C9D2C2C3044
:10493200CA008930CB00A22C4230CA008930CB0099
:10494200A22C6C30AF008830B0004B08B201B20725
:104952004A08B101B1079431A024A4312000C70153
:10496200C801B32C0800232D6A302000A9000130B1
:10497200AA00A3314C23A431003A0319C12CC22C42
:104982002F2D03302000EB070030EC3D0330B70041
:104992003708E5002F2D2F2D0130683E8600870154
:1049A200160001040319D62CD72CEA2CB7310B2799
:1049B200A431003A0319DE2CDF2C2F2D0330200006
:1049C200EB070030EC3D0330B7003708E5002F2D30
:1049D2002F2DB7310B27A4310038031DF12CF22CF7
:1049E2002F2DE4302000A5000030A600A93162215D
:1049F200A43103302000EB070030EC3D0330B70058
:104A02003708E5002F2D2F2D2F2DB631FC26A4318E
:104A12000038031D0D2D0E2D2F2D03302000EB0726
:104A22000030EC3D0330B7003708E5002F2D2F2D65
:104A32000330EB070030EC3D0330B7003708E500E8
:104A42002F2D2F2D20006808073A0319B52C0F3A95
:104A52000319CD2C013A0319062D192D0800200047
:104A6200D400942DE430AF008830B0009431A024FB
:104A7200A5316E2D18302000AF008930B00094317E
:104A8200A024A531AC2D03302000AF008930B00046
:104A92009431A024A5310030AC316424A531AC2D71
:104AA2001E302000AF008930B0009431A024A5311F
:104AB2000130AC316424A531AC2DA7302000AF0009
:104AC2008830B0009431A024A5312000A101033028
:104AD200AB31F523A531AC2DAC2D0330AA313322F5
:104AE200A531003A03193B2D013A0319442D033A2B
:104AF2000319512D5E2DAC2DB6302000AF0085304C
:104B0200B0009431A024A5310130AC316424A53128
:104B1200AC2DAC2D8C2D2000A1010330AB31F5233F
:104B2200A531AC2DAC2D200054080339D200D3019D
:104B32005308003A03199E2D8C2D5208003A03198E
:104B4200332D013A03197D2D033A0319AC2D013A95
:104B520003198C2D8C2D08002000DE0020305E020F
:104B6200031CB42DB52DE42D7F305E020318BA2D3F
:104B7200BB2DE42D133067020318C02DC12DD82D93
:104B82005E08DD006708A03E8600013087005D08F0
:104B920081000130DD005D08E7076F08031DD22D9B
:104BA2002D2E5E08AB311023A5312D2E2D2E200087
:104BB2006F08031DDD2D2D2E0730AB311023A531DB
:104BC2002D2E2D2E2D2E20005E080D3A031DEA2DCE
:104BD200EB2D132E6F08031DEF2DF42D0A30AB3190
:104BE2001023A531F42D20006708031DF92D042E92
:104BF2006708A03E8600013087008101A0309A310B
:104C0200CA22A531042E2000E7016F08031D0A2ED7
:104C12002D2E3C30AF008930B0009431A024A53154
:104C22002D2E2D2E20005E087F3A031D192E1A2EDE
:104C32002D2E6708031D1E2E2D2E0130E7026F0850
:104C4200031D242E2D2E5E08AB311023A5312D2EEF
:104C52002D2E2D2E2D2E2D2E0800711B312E322E93
:104C6200602EB4302000A9000130AA00A3314C23E9
:104C7200A631003A03193E2E3F2E602EB43020009A
:104C8200AD000130AE000030B2000030B100303073
:104C9200B000D430AF00A031CF20A631F01171178F
:104CA200543020009B007D309C002A30250091006A
:104CB2001F3093002000911021009114602E2000DB
:104CC2006D19642E662E0130672E0030D2007019E5
:104CD2006B2E6D2E01306E2E003052060319722E8D
:104CE200732E872E5830AD000130AE000030B20076
:104CF2000030B1009230B0007C30AF00A031CF2044
:104D0200A63120006D11701D872E6D1558302000C0
:104D1200A9000130AA00A3314C23A631003A03199D
:104D2200932E942EBC2E58302000A5000130A600F0
:104D3200A9316221A6312000ED18A02EA22E013049
:104D4200A32E0030D2007019A72EA92E0130AA2E50
:104D5200003052060319AE2EAF2EBC2EED10701D80
:104D6200B32EED1400302000ED1801309831782078
:104D7200A631BC2EBC2E08002000BD003D2FDE3027
:104D8200AD000030AE00F130B2006630B100183034
:104D9200B0008030AF00A031CF20A631DE3020003D
:104DA200A1000030A200F130A6006630A500183044
:104DB200A4008030A300AE31E826A631DE30200008
:104DC200A1000030A200A030A600EE30A500BB304A
:104DD200A4000030A300AE31E826A6314C2FDE300D
:104DE2002000AD000030AE00F130B2006630B100FC
:104DF2001830B0008030AF00A031CF20A631DE30B5
:104E02002000A1000030A2005030A6007730A5009B
:104E12005D30A4008030A300AE31E826A6314C2FCD
:104E2200DE302000AD000030AE00D630B20093304C
:104E3200B100A430B0000030AF00A031CF20A631C5
:104E42004C2FDE302000AD000030AE00A030B200AA
:104E5200EE30B100BB30B0000030AF00A031CF2047
:104E6200A6314C2FDE302000A5000030A600A9316B
:104E72006221A6314C2F4C2F20003D08013A031924
:104E8200C02E033A0319F02E013A0319112F073AE3
:104E92000319222F332F080080315320A73120001D
:104EA200E0006008E1000030B2000030B1004B3099
:104EB200B0000030AF00B30199312D21A731063087
:104EC2002000AF008630B0009431A024A731210029
:104ED20096186C2F6D2F782F89302000AF00873005
:104EE200B0009431A024A7312000E117AC2F16188E
:104EF2007B2F7C2F872F38302000AF008730B00007
:104F02009431A024A7312000E117AC2F2000201AF1
:104F12008B2F8C2F942F7930AF008730B0009431D3
:104F2200A024A731AC2FA019972F982FA02F403083
:104F3200AF008630B0009431A024A731AC2F61308D
:104F42002000AF008830B0009431A024A731AC2FEC
:104F5200AC2FAC2FAC2F2100961416142000611C2C
:104F6200B32FB42FBC2F6630AF008630B00094311F
:104F7200A024A731BC2F2000E11CC02FC12FC92FB4
:104F82005330AF008630B0009431A024A731C92F2E
:104F9200B7313327A73120006108A9319A21A731FF
:104FA200B7317427A73190310320A731200061085F
:104FB200AB319823A731B7314A27A73120006108C6
:104FC200A5313025A731B7312A27A731E82FA031E3
:104FD2000C20A731A6312E26A73181310B21A73112
:104FE20090312B20A7319D313225A731A931F321F0
:104FF200A7319E318C26A731E82F80314E288F3180
:10500200BB2F8B314F2B8B31A12B8B31F32B8C315F
:105012009D2C8D31012D8E31BB2E8D31542D8D3134
:10502200892D8D31F32D8E31292E8E31722E8F31B5
:10503200562F8F318A2F8F31AA2F8931B229893188
:10504200B2298931B2298931B2298931B22989310A
:10505200F0298931F0298931F0298931F029893102
:10506200F029200022082100CF01CF0720002108CB
:105072002100CE01CE0708002000A2002208031D55
:105082004328462822000F154D28FB302000A1009E
:10509200210822008F054D280800FF34FF34FF3419
:1050A200FF34FF34FF34FF34FF34FF34FF34FF3466
:1050B200FF34FF34FF34FF34FF34FF34FF346C28F5
:1050C20020002408A201A2072308A101A107A831F8
:1050D2003220A831722821005A08003A03196128A7
:1050E200722808002100D9010314D90D4030200094
:1050F200AD000130AE000030B2000930B10089309D
:10510200B0006830AF00A031CF20A83108002000E5
:10511200A200A208031D8E289028711491287110F4
:105122000030711801302000A1002108D70003309F
:10513200A2310622A83108002000A200ED11221C93
:10514200A328ED152000ED1DA728A828AB282200D2
:105152000F14B228FE302000A100210822008F0582
:10516200B22808002000A200A1013A30220203184E
:10517200BB28BC28C62830302202031CC128C22802
:10518200C628A1010314A10DC628210CC8280800B5
:1051920000340134053415345534FF34FF34FF3400
:1051A200FF34FF34FF3400340D340734FF34FF344E
:1051B200FF34FF34FF34FF340A340D340534FF3436
:1051C200FF34FF34FF34FF34FF34FF34FF34FF3445
:1051D200FF34FF34FF34FF34FF34FF34FF34FF3435
:1051E200FF34FF34FF34FF34FF34FF34FF34200038
:1051F200A40021004E0884004F088500003F2000D3
:10520200A100013FA200023FA300240886008701FB
:105212002108C03F2208C13F2308C23F01301129A3
:1052220008002000A400A3011629241C19291A2908
:105232001F292108A2002208A3071F290310A10D7C
:105242000310A40CA408031D27292829162929299B
:1052520023082B290800B7312327A9310038031D61
:10526200332934294129F1100030F1180130AD31D0
:105272001725A93102302000D2005208E600452944
:10528200A1319D21A93145290800711F49294A29C7
:105292006129711320009B019C01250091012100CD
:1052A2009110200091101C1125009301FB30F20097
:1052B200720822008E057011F01D60297015612997
:1052C200080020002508860026088700FF30C03F1E
:1052D200FF30C13F2508023EA7000030263DA8004E
:1052E2002708860028088700FF30C03FFF30C13FF3
:1052F200FF30C23FFF30C33F080020002508860070
:10530200260887000030C03F0030C13F2508023E1A
:10531200A7000030263DA80027088600280887003D
:105322000030C03F0030C13F0030C23F0030C33FB9
:1053320008002000BD004C30AD000130AE0000304E
:10534200B2000130B100E830B0004830AF00A03107
:10535200CF20A9312000BD1FAF29B029B6292100D5
:10536200C601C701C801C901B6290800BF29023018
:10537200D429D4290130D429D429D22922000F08D2
:1053820030392000A100A2012208003A0319CA29DB
:10539200D2292108203A0319B829103A0319BB2946
:1053A200D2290030D4290800DD290230F229F2295D
:1053B2000130F229F229F02922000F08C039200019
:1053C200A100A2012208003A0319E829F0292108C4
:1053D200803A0319D629403A0319D929F029003015
:1053E200F2290800072A002A0630AB311023A9311E
:1053F200072A20005F08A531AD25A931072A200020
:105402005F08053A0319F529FA29072A5F30A23104
:105412006F22A9310038031D0F2A102A002A112AEF
:105422000800B7312327AA310038031D192A1A2A86
:10543200272AF1140030F1180130AD311725AA31B5
:1054420002302000D7005708E600322AB73106277B
:10545200AA31003A00300319013092315622AA31A2
:10546200322A08002000A4006400230095183A2A7A
:105472003B2A352A3C2A20002408A100A201210847
:105482002300910020002208230092003F302000D8
:10549200A3002308230095051514031015180314FF
:1054A2000030093D1308552A08002000A2006D2A89
:1054B2005A2ACF30A100210822008F05792A220022
:1054C2000F168F16792AEF302000A1002108220042
:1054D2008F058F16792A792A20002208003A0319AB
:1054E2005A2A013A0319602A033A0319642A5A2AEA
:1054F20008002000A200912A7E2A3F30A100210844
:1055020022008F059D2ABF302000A1002108220021
:105512008F058F179D2A22000F178F179D2A9D2A0C
:1055220020002208003A03197E2A013A03198C2A24
:10553200033A0319842A7E2A08002000A501A60145
:10554200A22A211CA52AA62AAA2A2308A5072408DA
:10555200A63D0130A335A40D890BAB2A0130A2363A
:10556200A10C890BB02A22082104031DB92ABA2AE8
:10557200A22ABB2A2608A201A2072508A101A10787
:10558200C22A08002000B400BA3086000130870029
:105592002F308400003085000530FF0016001A000D
:1055A200FF0BCF2A05303402031CD82AD92ADB2A62
:1055B200E82AE82A34082F3E860087010108AE0057
:1055C2002E08A900AA010030A331C023AA31080085
:1055D20001302100CA070030CB3D0030CC3D003005
:1055E200CD3DFF304D02031D002BFF304C02031D49
:1055F200002B00304B02031D002B00304A02031C1B
:10560200032B042B0F2B0030CD000030CC000030D8
:10561200CB000030CA000D2B0D2B0F2B08002000F1
:10562200A20023009D1B162B172B322B3C2B3C2B4D
:10563200322B23009D1C1E2B1F2B232B9E129E16EA
:105642001D121D161D1D262B272B302B190820007D
:10565200A1002108A30023009E129E16302B640095
:10566200322B2000111E362B372B1A2B382B2208F7
:1056720023009A0064000800D2302000AF00863078
:10568200B000210049082000C700C8014708B10046
:105692004808B200210048082000C900CA01490890
:1056A200B3004A08B400210047082000CB00CC0117
:1056B2004B08B5004C08B600210046082000CD007A
:1056C200CE014D08B7004E08B8009431A024AB318A
:1056D20008002000A5002108A4002408A70025082E
:1056E200A4002408A600882B270886008701010849
:1056F200A400260886008701240881000130A40046
:105702002408A7070130A4002408A607882B01302B
:10571200A2020030A33BFF302306031D922BFF3071
:105722002206031D952B962B752B972B0800200024
:10573200CB004B1C9D2B9E2BB02BCB1CA12BA22B49
:10574200B02BA1010130AB31F523AB31FF3020008A
:10575200CA004A08A1000230AB31F523AB31023056
:10576200AA313322AB31003A0319B82BBA2BF11507
:10577200BB2BF1110130AA313322AB31AE318E266F
:10578200AB3189318C21AB3108002000A9002908F6
:10579200A3002308AA00CE2BCE2B2A0886000130B4
:1057A20087000130AA078108031DD82BD92BCE2BE5
:1057B200DA2B2908A3000130A400A309A409A30A33
:1057C2000319A40A2A08A5000130A6002308250708
:1057D200A7002408263DA8002708FF3EA100FF30AD
:1057E200283DA200F42B08002000A400F82B23007F
:1057F2009518FC2BFD2BF82BFE2B20002408A20071
:10580200A301220823009100200023082300920014
:1058120020002108230093003F302000A20022082C
:1058220023009505200003108B1F182C192C1A2C0D
:1058320003148B132300151555309600AA309600D9
:10584200951415112000031C272C282C2B2C8B17A8
:105852002B2C2B2C080000302000AC000030AB00B9
:105862000030AA000030A900362C211C392C3A2C19
:10587200432C2508A9072608AA3D2708AB3D28087E
:10588200AC3D432C0130A535A60DA70DA80D890B03
:10589200442C0130A436A30CA20CA10C890B4B2C76
:1058A2002408230422042104031D582C592C362CCD
:1058B2005A2C2C08A4002B08A3002A08A2002908AD
:1058C200A100632C08002000D100E508031D6A2C0A
:1058D2006B2C9B2CAB313D23AC312000D108031D36
:1058E200732C742C792C3830CF008930D0007E2C68
:1058F2003030CF008930D0007E2C8D30AF00853023
:10590200B0005008B201B2074F08B101B10794319B
:10591200A024AC312100DA01EC302000EB0084300D
:10592200EC00ED12511C962CED162000E50103143B
:10593200E50D9B2C080000340034003400340034A0
:10594200003400340134DD340034003400340034D7
:1059520000340034003400341134DD3400340034B7
:1059620000340034003400340034003401340E3486
:105972000134003400340034003400340034003484
:105982002134103401340034003400340034003443
:105992000034003401341034013400340034003453
:1059A2000034003400340034113410340134200047
:1059B2002A0829040319DE2CDF2C0F2DAE01031453
:1059C200AE0DED2C0130A935AA0D890BE42C013066
:1059D200AD002D08AE07ED2CAA1FF02CF12CE32C04
:1059E200F32CF32C2A082C02031DF92C29082B0274
:1059F200031CFC2CFD2C022D2908AB022A08AC3B0F
:105A0200022D0130AA36A90C890B032D0130AE02FA
:105A1200031D0C2D0D2DF32C0F2D0F2D2C08AA017B
:105A2200AA072B08A901A907162D08002000D100FA
:105A3200E508031D1D2D1E2D562DAB313D23AD3125
:105A42002000D108031D262D272D2C2D3830CF0004
:105A52008930D000312D3030CF008930D000312D47
:105A62007830AF008530B0005008B201B2074F085D
:105A7200B101B1079431A024AD31462D133020007D
:105A8200EB008230EC004C2D4C2D21005A08003ADC
:105A920003193F2D4C2D2000ED12511C512DED16F6
:105AA2002000E5010314E50D562D08002000220810
:105AB200A701A7072108A601A6075F2D1708A300C3
:105AC2002308A8002108023EA3000030223DA400C2
:105AD200230886002408870021004A08C03F4B089B
