:1000000080314E2864340134803120007F08FC00A8
:10001000111C0B280C2811281110AB3147238031FB
:1000200011282000911C152816281B289110AA3190
:10003000102280311B280B1C1E281F283828200066
:100040000D0821005406FB007B08FD0027009601E7
:100050000B107D1E2C282D283128A8314D208031F1
:10006000312820000D08FB007B082100D40038282F
:100070002000911E3C283D28412881310D218031EE
:1000800041282000111E452846284A288031FF209B
:1000900080314A287C082000FF0009000308A000E6
:1000A0008801AF31A22F2100951313308C0020005E
:1000B0008C01023023008C00FB3021008D002000D9
:1000C0008D0123008D01F73024008D0010302700B2
:1000D00094001030950096010B108B1523302000F2
:1000E000A50025082100DB0098308E0020008E013D
:1000F00021008F0120008F0123008F01210090013A
:100100002000900123009001240090018230200003
:10011000A600DD30A500A50B8B28A60B8B28902808
:1001200082302000A600DD30A500A50B9528A60B87
:1001300095289A282000A90103302902031CA12830
:10014000A228A428E428E4280E30A5002508A10050
:100150002908A931DC2180310C3EA03E8600013007
:10016000870001082000A6002608A8000E30A50080
:100170002508A1002908A931DC2180310B3EA03ED1
:1001800086000130870001088600870101082000F1
:100190002805A6000E30A7002708A1002908A931CC
:1001A000DC2180310A3EA03E86000130870020001D
:1001B000260881000130A5002508A907033029027F
:1001C000031CE328E428A428A9010D18E828E9283D
:1001D000EA2829148D1AED28EE28F028A914F02811
:1001E0002908F22808009F31FF2F9F311E2F9F31D1
:1001F000392F9F31D12F9F31E12F9F31EF2F0800F1
:10020000813182070229A0312528A431BD2CA831D3
:100210006728A9312029A831752823009D1C1129A0
:10022000122924291908F200220039080739313E21
:100230008600013087007208810023009E129E16FE
:100240001D121D16DD29DD291D1D27292829382904
:100250001908F200220039080739313E86000130C2
:1002600087007208810023009E129E16DD29DD2979
:100270001908F200220039080739313E86000130A2
:1002800087007208810039080739F200F20A39083C
:100290007206F8397206B900391F4F295029BF2953
:1002A000B91F53295429BF29390CF200F20C720CE2
:1002B0000739F30039080739F4007308740203188A
:1002C000622963297E2939080739F200F301F2090E
:1002D000F309F20A0319F30A390CF400F40C740C54
:1002E00007397207F50073080318730AF6007508DA
:1002F000FF3EF900FF30763DFA00A429390CF200E8
:10030000F20C720C0739F300F401F309F409F30A53
:100310000319F40A390807397307F500740803183C
:10032000740AF6007508013EF7000030763DF800CB
:10033000F709F809F70A0319F80A7708083EF900DF
:100340000030783DFA00A4297A08803AFF00803016
:100350007F02031DAD29033079020318B029B129AA
:10036000BF29B329B3292000111EB729B829B32901
:10037000B929133023009A002200B913BF292200A3
:10038000390CF200F20C720C0739F3003908073906
:100390007306031DCC29CD29DD29390CF200F20C9E
:1003A000720C0739F200F20AF20DF20DF20D390863
:1003B0007206C7397206B900DD290800B731F02787
:1003C00081310038031DE529E629F3297115003034
:1003D0007119013089314C21813102302000D70060
:1003E0005708E600FE29A83132208131003A00305A
:1003F00003190130923156228131FE29080008008C
:100400000034013400340A34003464340034E834F5
:1004100003341034273401340034103400340034F1
:1004200001340034103400340E3406340134023404
:1004300000340234013400340734A134333402343C
:10044000003400340734DD344634013401340034E0
:10045000073439341834013402340034023401349E
:10046000003407348534163402340234003407343F
:1004700014340234023400340034073476346234E5
:100480000234023400340734AF34293402340134E6
:1004900000340734CA3419340234023400340734C7
:1004A0003434433402340134003407349F3431345B
:1004B00002340034003407345D3412340234013421
:1004C00000340734C3342B3402340234003407348C
:1004D0001434023402340034003407347634623485
:1004E0000234023400340734AF3429340234013486
:1004F00000340734C9341934023402340034073468
:10050000AD344E340134013400340234013400344B
:100510000734093455340234023400340734A43427
:1005200003340234003400340A34363400340734DF
:100530004C342F340134023400340234013400349A
:100540000734C0340C340234023400340734143419
:10055000023402340034003407348E345E34023402
:100560000234003407344B3429340234013400346B
:100570000734CA3419340234023400340734F534F1
:10058000423402340034003401340034003408347E
:1005900000340034033401340034013401340034B5
:1005A000073450344934023401340034073476348B
:1005B000623402340234003407346C3404340234BC
:1005C0000034003408340134003407345E34F83425
:1005D0000C34B334043403340134003407347A3433
:1005E000D83401340234003406340334003409347E
:1005F0000034003401340134003408340134003450
:100600000734E234AB340C34B334043403340134EF
:10061000003407349E346334023401340034073428
:10062000D5345234023402340034013400340034FE
:1006300006340B34003407346C3404340234003490
:1006400000340934003400340134023400340734F7
:10065000D13414340134013400340734BA34D8347A
:100660000834013400340734C33498340C34423431
:1006700003340C345F3404340134003400340E3459
:1006800000340034043401340034013402340034C2
:100690000734FF34FF3401340134003407345B3451
:1006A000273401340034003406340A340034093469
:1006B000003400340134013400340734B634623479
:1006C00001340234003405340134003407342C344E
:1006D0008A340134013400340734D934D834013435
:1006E000023400340734CD34893404340034003407
:1006F0000734C43406340134013400340734DA34A6
:10070000D8340134023400340734ED3489340134F0
:10071000013400340734DA34D8340134023400347C
:100720000734ED3489340134013400340734633440
:10073000B13401340234003407344C348A34023486
:10074000023400340734FC342634023400340034DC
:1007500001340034003406340334003409340034E6
:1007600000340134023400340734103415340234B8
:100770000134003407343F34283402340034003468
:100780000734AD3489340134013400340734633420
:10079000B1340134023400340734ED348934013487
:1007A0000134003407346334B1340134023400348A
:1007B00007344C348A3402340234003407348C3425
:1007C000283402340034003401340034003403345B
:1007D0000134003406340B3400340934003400345E
:1007E0000334003400340134023400340734283434
:1007F0001134023401340034073433342A340234DF
:10080000003400340734AD34893401340134003409
:100810000734ED3489340134023400340734ED34C4
:1008200089340134013400340734EC348934013420
:100830000234003407344C348A3402340234003435
:100840000734EF342C340234003400340734793464
:1008500008340234013400340734B7342D34023400
:100860000034003407342334B1340134013400340B
:100870000734ED34893401340234003407346334EE
:10088000B1340134013400340734ED348934013497
:100890000234003407346334B13401340134003499
:1008A0000734EC34893401340234003407346334BF
:1008B000B1340134013400340D34003400340734D1
:1008C0004C348A3402340234003407342C3401347A
:1008D0000234003400340734AB342F340234023491
:1008E000003407342C34013402340034003407342B
:1008F000AB342F3402340234003407342C34013446
:100900000234003400340734DB3427340234023438
:10091000003407342C3401340234003400340734FA
:10092000DA3427340234023400340734D234233426
:1009300002340134003407344A34193405340034A5
:10094000003402340234003407345C344734023457
:1009500001340034073410340B34023400340034D2
:100960000D34003400340434013400340734763458
:1009700062340434003400340734FF34FF34073465
:10098000C734273404340134003407348E345E34E1
:1009900004340034003407340A342034043401347D
:1009A000003407348E345E340434003400340734A9
:1009B0000A3420340434013400340734FF34FF3463
:1009C0000734C7342734043400340034013400348D
:1009D00000340834003400340134013400340D3460
:1009E0000034003400340E34063401340134003451
:1009F00002340134003407340934553402340234EB
:100A000000340734A43403340234003400340A348C
:100A1000013400340C34423403340C345F34043475
:100A20000134003400340E34003400343F340034D8
:100A300000340034003400340034003401346834AD
:100A400065346C34703400340034003400340134C4
:100A50006534633468346F34003400340034003457
:100A600003340034003400340034003400340034E3
:100A70000034003449344E3453345F3441345534F7
:100A800054344F3444344F34533445342C342034AC
:100A9000253475342E34253475346D346C34253456
:100AA0007334003455346E346B346E346F347734B1
:100AB0006E34203463346F346D346D3461346E348D
:100AC0006434203427342534733427340A34003412
:100AD00049344E3453345F345334543441345234F3
:100AE00054342C34203475346E3465347834703496
:100AF000653463347434653464340034533474348A
:100B000061347234743469346E346734203425347B
:100B100073342034703472346F3467347234613417
:100B20006D340A34003453347434613472347434A0
:100B300069346E346734203425347334203463349C
:100B40006C34653461346E34753470340A34003476
:100B50004134753474346F34743469346D346534AD
:100B600072342034653478347034693472346534C6
:100B700064343A34203400345734653474342034C7
:100B800063346C34653461346E34753470342034BD
:100B900066346F3472346334653464340A34003438
:100BA00049344E3453345F34573441344934543427
:100BB000573441345434453452342C3420342534A1
:100BC000733425347334003449344E3453345F3431
:100BD00053344B3449345034493446345734453413
:100BE00054342C3420342534753425347334003493
:100BF00049344E3453345F3453344B3449345034D5
:100C0000493446344434523459342C342034253455
:100C100075342534733400340A342A342A342A349F
:100C20002034433461347434473465346E34693469
:100C30007534733420342A342A342A340A34003484
:100C400049344E3453345F3452344534543455347B
:100C500052344E342C34203430347834253430340B
:100C600034345834003449344E3453345F345734B8
:100C7000413449345434543449344D3445342C349B
:100C80002034253475346D34733400345034693471
:100C90006E342034723465347334653474342034E3
:100CA000283473346C3465346534703429340A3430
:100CB0000034533465347434753470342034623401
:100CC0007534743474346F346E342034683465345D
:100CD0006C3464340A340034533474346134723400
:100CE0007434203462347534743474346F346E3434
:100CF0002034683465346C3464340A34003443344A
:100D000061347434743469346D346534723420342D
:100D100065347834703469347234653464340A3438
:100D2000003452346534733475346D3469346E3440
:100D300067342034703472346F3467347234613401
:100D40006D340A340034533474346F347034703476
:100D500069346E3467342034703472346F346734DD
:100D6000723461346D340A34003449344E345334AF
:100D70005F3475346E346B346E346F3477346E3464
:100D80003A34203430347834253458340034303414
:100D9000313432343334343435343634373438340F
:100DA00039344134423443344434453446340034D5
:100DB000253464342034253464343A3425342E34D4
:100DC000323464342E3425342E34323464342034B6
:100DD00000344B346E346F3477346E3420346334E3
:100DE0006F346D346D3461346E34643473343A343A
:100DF0000A34003450346134723461346D346534F3
:100E000074346534723420346534723472346F341F
:100E100072340A3400342C3420346E346F3420346D
:100E2000733474346134723474343A34203430346A
:100E3000783425345834003449344E3453345F34D4
:100E4000433441344C344C342C34203430347834F2
:100E50002534303434345834003449344E34533427
:100E60005F34573441344934543444344F34533468
:100E700041344734453425347334003442347234B9
:100E80006F3477346E342D346F34753474342034C9
:100E9000723465347334653474340A340034503435
:100EA000613475347334653464342034703472348E
:100EB0006F346734723461346D340A340034493429
:100EC0004E3453345F3457344134543445345234FF
:100ED0002C342034253473342534733400344934AD
:100EE0004E3453345F3444345234593445345234DC
:100EF0002C3420342534733425347334003457347F
:100F0000613474346334683464346F346734203447
:100F1000723465347334653474340A3400345034B4
:100F20006F347734653472342D346F346E3420343A
:100F3000723465347334653474340A34003455348F
:100F40006E346B346E346F3477346E3420346534E1
:100F5000723472346F3472340A340034443472346C
:100F6000613469346E342034743469346D346534DA
:100F70006F34753474340A3400342C3420346934BA
:100F80006E3463346F346D34703461347434693466
:100F900062346C346534003449344E3453345F3435
:100FA000503455344D3450342C342034253473347B
:100FB000253473340034533479346E3474346134EA
:100FC000783420346534723472346F3472340A34B5
:100FD000003442346F347834203466346C346F34E7
:100FE0006F3464346534643421340A340034463454
:100FF00069346C346C342034743469346D34653441
:101000006F34753474340A34003449344E345334F4
:101010005F34533454344134523454342C342034F7
:1010200025347334003453346534743420346D34CF
:101030006F34643465342034253475340A34003414
:1010400049344E3453345F3442344F3457344C3483
:101050002C342034253473340034773461346934CB
:10106000743469346E3467342E342E342E340A349A
:10107000003449345034203430347834253430341A
:10108000343458343A342034003449344E345334F0
:101090005F34413452344D342C342034253473348D
:1010A000003449342F344F34203465347234723470
:1010B0006F3472340A3400342034283473346B347F
:1010C00069347034703465346434293400345034F5
:1010D00069346E3420347234653473346534743456
:1010E0000A3400344534633468346F343A3420347D
:1010F000253473340A34003473346B3469347034F7
:10110000703469346E3467340A34003457346134CF
:101110007434653472342034253473340A34003422
:1011200042344F3457344C345F34533454344F3496
:1011300050340034203444347234613469346E34B1
:1011400069346E3467340034443472346134693441
:101150006E34653464340A34003475346E346B3460
:101160006E346F3477346E340A3400344134523480
:101170004D345F3444344F3457344E3400344134AA
:1011800052344D345F34533454344F34503400347B
:1011900042344F3457344C345F344334433457343F
:1011A00000342034463469346C346C3469346E3421
:1011B0006734003443346134743420342534733458
:1011C0000A340034463469346C346C346534643425
:1011D0000A34003442346F34783420346934733440
:1011E0002034003449344E3453345F3445344E3463
:1011F0004434003442344F3457344C345F34433435
:101200005734003428346E3475346C346C342934DB
:1012100000346D3465347334733479340A340034F3
:10122000203428346E346F3470342934003441341F
:1012300052344D345F34553450340034743469348E
:10124000643479340A3400347734653474340A34BD
:101250000034683469346734683400346F3475346A
:10126000743400346F346634663400347734653453
:10127000743400346C346F34773400346434723432
:101280007934003423342034003469346E3400342B
:061290006F346E340034DF
:101298002000D100E508031D522953298B29AB31C1
:1012A800ED2389312000D108031D5B295C296129C0
:1012B8003E30CF008930D00066293630CF008930E3
:1012C800D00066297E30AF008530B0005008B201EA
:1012D800B2074F08B101B1079431A02489317B29A5
:1012E80013302000EB008230EC0081298129210095
:1012F8005A08003A03197429812920006D12511CDB
:1013080086296D162000E5010314E50D8B290800D8
:101318000D2BD9018F292000AE010030A831A12062
:1013280089310A3020006E02031C9B299C29A229BE
:10133800AE010030A831B0208931642A2000AE0106
:101348000314AE0D5530A831B0208931642A642ABF
:10135800E201B229B229B229B229B2296208013AB6
:10136800003003190130B2003208A1000130AE315B
:101378005126893120006208023A003003190130F1
:10138800B2003208A1000230AE3151268931200066
:101398006208033A003003190130B2003208A10094
:1013A8000330AE315126893120006208043A0030FA
:1013B80003190130B2003208A1000430AE315126C1
:1013C80089312000AE010030A831BF208931192BA6
:1013D800F029F029F029F02920006208093A0030A4
:1013E800031D0130B2003208A1000130AE31512690
:1013F800893120006208063A003003190130B20032
:101408003208A1000230AE3151268931200062082D
:10141800073A003003190130B2003208A100033046
:10142800AE315126893120006208083A003003198C
:101438000130B2003208A1000430AE3151268931A2
:10144800F01C272A282A372A20006608023A03199E
:101458002E2A2F2A372AAE010314AE0D5530A83193
:10146800BF208931192B701C3A2A3B2A582A2000A0
:101478006608023A0319412A422A582A711D452A48
:10148800462A4E2AAE010314AE0DFA30A831BF2009
:101498008931192B2000AE010314AE0DFE30A8319E
:1014A800BF208931192B192B2000AE010314AE0D72
:1014B800FF30A831BF208931192B192B192B192B73
:1014C8002000620884000A3004020318AC29A831FD
:1014D80004351E3E8200192B2000AE010030A831D1
:1014E800A12089312000AE010314AE0DFF30A831D0
:1014F800B02089310A3020006E0200300318013014
:10150800B2003208A1000130AE31512689311930BC
:1015180020006E02003003180130B2003208A1002A
:101528000230AE3151268931323020006E0200304F
:1015380003180130B2003208A1000330AE31512641
:1015480089314B3020006E02003003180130B200A0
:101558003208A1000430AE315126893164302000B0
:101568006E02031CB82AB92AC12AAE010314AE0DB3
:10157800FF30A831BF208931192B2000AE0100307F
:10158800A831BF208931192B192B2000AE01031473
:10159800AE0D5530A831A12089312000AE010030B0
:1015A800A831B020893120006308013A00300319BE
:1015B8000130B2003208A1000130AE315126893124
:1015C80020006308023A003003190130B2003208E3
:1015D800A1000230AE315126893120006308033A58
:1015E800003003190130B2003208A1000330AE31D7
:1015F8005126893120006308043A0030031901306C
:10160800B2003208A1000430AE3151268931192BBD
:10161800192B21005908003A03198F29013A031997
:10162800702A033A0319C92A8D29F11D1C2B1D2B79
:10163800352B21005608031D222B2B2B2000AE0131
:101648000314AE0DAA30A831CE2089313C2B2000DE
:10165800AE010314AE0DFF30A831CE2089313C2BEA
:101668003C2B2000AE010030A831CE2089313C2B24
:101678000800AB31ED238B3139302000AF008830C2
:10168800B0006C08B201B2076B08B101B107943120
:10169800A0248B31EC2F0130683E860087011600AC
:1016A80001040319582B592B7A2B0130683E860008
:1016B8008701403F013A031D632B413F003A03195C
:1016C800662B672B6D2BC8302100A8008830A90035
:1016D800732BFA302100A8008830A900732B290841
:1016E800A701A7072808A601A607802B903021008C
:1016F800A6008830A700802B20302000AF0088305B
:10170800B000210027082000B201B20721002608F6
:101718002000B101B1079431A0248B312000690861
:10172800AA31FF228B3103302000EB070030EC3D5B
:101738000330D0005008E500F72F0130683E8600DE
:101748008701160001040319AA2BAB2BCC2B0130FF
:10175800683E86008701403F013A031DB52B413F93
:10176800003A0319B82BB92BBF2B17302100AC0056
:101778008930AD00C52BB6302100AC008830AD00F3
:10178800C52B2D08AB01AB072C08AA01AA07D22B41
:10179800BF302100AA008830AB00D22B4530200092
:1017A800AF008830B00021002B082000B201B2073A
:1017B80021002A082000B101B1079431A0248B31FF
:1017C80020006908AB3123238B3103302000EB075D
:1017D8000030EC3D0330D0005008E500F72F6D1ABB
:1017E800F62BF72BFD2B10302100AE008930AF000F
:1017F800032CF6302100AE008730AF00032C200008
:101808006A086904031D092C0A2C102C32302100A7
:10181800B0008930B100162C48302100B000893062
:10182800B100162C5F302000AF008730B0002100D7
:1018380031082000B201B207210030082000B101B0
:10184800B10721002F082000B401B40721002E0899
:101858002000B301B3079431A0248B3120006D1E02
:10186800362C372C932C0130683E860087011600F1
:1018780001040319402C412C852C0330AA31DC22A9
:101888008B312000D0000230500203184C2C4D2C14
:10189800562C0230D0005008A1000330AC31A524EA
:1018A8008B31562CB731D8278B310038031D5D2C6E
:1018B8005E2C7B2CD1302000AF008830B0009431F2
:1018C800A0248B310130A9317E218B31E9302000F1
:1018D800AD000030AE000130B2007330B100EE3020
:1018E800B000D830AF00A13147218B31932C5C3048
:1018F8002000AF008830B0009431A0248B31932CA5
:10190800932C0030A9317E218B31E9302000A500CD
:101918000030A600AA312C228B31932C932C033053
:101928002000EB070030EC3D0330D0005008E50004
:10193800F72F6D1AA02CA12CA72C10302100B20073
:101948008930B300AD2CF6302100B2008730B300E7
:10195800AD2C20006A086904031DB32CB42CBA2CE2
:1019680032302100B4008930B500C02C4830210045
:10197800B4008930B500C02CCC302000AF008730CF
:10198800B000210035082000B201B2072100340858
:101998002000B101B107210033082000B401B407C9
:1019A800210032082000B301B3079431A0248B3101
:1019B80020006D1EE02CE12CEE2C9A30AF00883010
:1019C800B0009431A0248B3120006908A831FE2092
:1019D8008B31F72C5C302000AF008830B000943198
:1019E800A0248B31F72C03302000EB070030EC3DAE
:1019F8000330D0005008E500F72F6D1A042D052D8F
:101A08000B2D10302100B6008930B700112DF630AB
:101A18002100B6008730B700112D20006A0869043C
:101A2800031D172D182D1E2D32302100B8008930C6
:101A3800B900242D48302100B8008930B900242D80
:101A48006F302000AF008730B00021003908200037
:101A5800B201B207210038082000B101B107210006
:101A680037082000B401B407210036082000B3016C
:101A7800B3079431A0248B3120006D1E442D452DD1
:101A88004A2D6908A9310F218B314A2D03302000D6
:101A9800EB070030EC3D0330D0005008E500F72F8D
:101AA8003330AF008630B0006A08B201B207690867
:101AB800B101B1079431A0248B316A302000AD0008
:101AC8000130AE006908A1006A08A200A301A401C0
:101AD8000030A8000030A7000030A6007D30A50027
:101AE800AD3113258B3120002408B2002308B10042
:101AF8002208B0002108AF00A13147218B31053001
:101B08002000D0005008E500F72F6D1A8C2D8D2D80
:101B1800932D10302100BA008930BB00992DF63082
:101B28002100BA008730BB00992D20006A0869049B
:101B3800031D9F2DA02DA62D3A302100BC00893011
:101B4800BD00AC2D29302100BC008930BD00AC2D72
:101B5800D0302000AF008530B00021003D082000C3
:101B6800B201B20721003C082000B101B1072100F1
:101B78003B082000B401B40721003A082000B30153
:101B8800B3079431A0248B3120006D1ECC2DCD2DB0
:101B9800E92D6A086904031DD22DD32DE32DE33006
:101BA800AD000030AE000030B2001330B10012308A
:101BB800B000D030AF00A13147218B31E32D053083
:101BC8002000D0005008E500F72F0330EB07003065
:101BD800EC3D0330D0005008E500F72FF72F6D1AC1
:101BE800F62DF72DFD2D10302100BE008930BF00E5
:101BF800032EF6302100BE008730BF00032E2D30A3
:101C08002000AF008730B00021003F082000B2015B
:101C1800B20721003E082000B101B1079431A02489
:101C28008B3120006D1E192E1A2E1F2E0530D00064
:101C38005008E500F72F0330EB070030EC3D033088
:101C4800D0005008E500F72FF72F6D1A2C2E2D2EF7
:101C5800332EF6302100C0008730C100392E1030F5
:101C68002100C0008930C100392EF8302000AF00B3
:101C78008530B0006A08B201B2076908B101B1073E
:101C8800210041082000B401B407210040082000C9
:101C9800B301B3079431A0248B3120006D1A552E5F
:101CA800562E692E6908013EA10000306A3DA20047
:101CB8000330A3000030A400A03100208B312000A5
:101CC8002108EB072208EC3D6D2E0330EB070030AE
:101CD800EC3D0330D0005008E500F72F6D1A752E43
:101CE800762E7C2E10302100C2008930C300822E4F
:101CF800F6302100C2008730C300822EE430200075
:101D0800AF008530B0006A08B201B2076908B101B6
:101D1800B107210043082000B401B407210042089C
:101D28002000B301B3079431A0248B3120006D1E2D
:101D38009E2E9F2EB22E6908013EA10000306A3DFA
:101D4800A2000330A3000030A400A03100208B3192
:101D580020002108EB072208EC3DB62E0330EB07E4
:101D68000030EC3D0330D0005008E500F72F6D1A25
:101D7800BE2EBF2EC52E10302100C4008930C500EC
:101D8800CB2EF6302100C4008730C500CB2E0A3098
:101D98002000A1000030A2006A08A401A407690875
:101DA800A301A307AD31C2258B31200022082100F1
:101DB800A101A107200021082100A001A0070A30E5
:101DC8002000A9000030AA006A08AC01AC07690825
:101DD800AB01AB07AD3183258B3120002A082100E8
:101DE800A301A307200029082100A201A2073A3075
:101DF8002000AF008530B000210021082000B2018A
:101E0800B207210020082000B101B10721002308F2
:101E18002000B401B407210022082000B301B30751
:101E2800210045082000B601B6072100440820001B
:101E3800B501B5079431A0248B3120006D1E252FE4
:101E4800262F4C2F6430AD000130AE006908A10088
:101E58006A08A200A301A4010030A8000130A7006D
:101E6800E830A6004830A500AD3113258B3120009D
:101E78002408B2002308B1002208B0002108AF00EE
:101E8800A13147218B310130A831ED208B314C2F06
:101E980003302000EB070030EC3D0330D000500841
:101EA800E500F72F1C30AF008730B0006A08B20198
:101EB800B2076908B101B1079431A0248B31200021
:101EC8006B08033E2100D200003020006C3D210049
:101ED800D3000030200069042100A40080302000D5
:101EE8006A042100A500A4302000D0005008A100F9
:101EF8000230A2000030A3006B30AC311A248B31C1
:101F080003302000D0005008E500F72F2030AF0044
:101F18008630B000210053082000B201B20721002A
:101F280052082000B101B1079431A0248B3121005F
:101F380053082000EC01EC07210052082000EB01B7
:101F4800EB070330D0005008E500F72FF230AF0060
:101F58008830B0009431A0248B312000A1010330D7
:101F6800AC31A5248B31A131AC218B31F72F6830EE
:101F78002000AF008530B0009431A0248B31701759
:101F88000030701B01302000D0005008A100043040
:101F9800983100208B31F72FB5302000AF00863004
:101FA800B0006A08B201B2076908B101B1079431FB
:101FB800A0248B3170170030701B01302000D00036
:101FC8005008A1000430983100208B31F72FF72FEB
:101FD8002000680884000F3004020318D02FA831AD
:101FE8000435003E8200F5302000AF008730B00095
:101FF8009431A0248B3108002000AB0040282B0826
:102008008600013087000108003A03190C280D28C2
:102018001E2825088400260885000008A9002B082A
:102028008600013087000108290603191C281D288D
:1020380037281E2825088400260885000008A900DE
:10204800AA01A909AA09A90A0319AA0A2B0886003C
:102058000130870001082907A5002A0803182A0A61
:10206800A600522852280130A9002908AB070130E0
:10207800A5070030A63D40280130A7020030A83B44
:10208800FF302806031D4A28FF302706031D4D2868
:102098004E2803284F28A501A60152280800200031
:1020A800C9010D08C2004208C700470821005B06A5
:1020B8002000C2004208C9004708C20042082100A7
:1020C800DB002000491C69286A287F28A030AD0061
:1020D8000130AE000630A03E860001308700403F48
:1020E800AF00413FB000423FB100433FB200A131D1
:1020F800472190317F282000C91E832884289928E9
:10210800AE30AD000130AE001430A03E8600013084
:102118008700403FAF00413FB000423FB100433F1E
:10212800B200A1314721903199282000C91C9D286F
:102138009E28B328BC30AD000130AE002230A03E4E
:10214800860001308700403FAF00413FB000423F6A
:10215800B100433FB200A13147219031B32820009C
:10216800C90103304902031CBA28BB28BD285829D5
:1021780058290E30C2004208A1004908A931DC21C3
:102188009031A03E2000A9000130AA00A3315B23B2
:102198009031003A0319D128D2284D290E30200059
:1021A800C2004208A1004908A931DC2190310B3E48
:1021B800A03E8600013087000108860087010108DB
:1021C8002000C3004308C8000E30C2004208A10026
:1021D8004908A931DC2190310C3EA03E860001302F
:1021E800870001082000C3004308C8050E30C2005C
:1021F8004208A1004908A931DC2190310A3EA03EDD
:1022080086000130870001082000480603190D29BF
:102218000E293C290E30C2004208A1004908A93104
:10222800DC2190310D3EA03E860001308700010878
:102238002000C3004308C5004808C2004208C00087
:10224800450881310021903120004808C2000E3035
:10225800C3004308A1004908A931DC2190310A3E96
:10226800A03E8600013087002000420881003C29FA
:102278000E30C2004208A1004908A931DC21903182
:10228800A03E2000A5000130A600AA312C229031E2
:102298004D2901302000C2004208C9070330490215
:1022A800031C57295829BD28C90105304902031CB8
:1022B8005E295F296129552A552A0B30C200420838
:1022C800A1004908A931DC219031203E2000A90055
:1022D8000230AA00A3315B239031003A0319752913
:1022E8007629492A0B302000C2004208A10049087B
:1022F800A931DC219031063E203E8600023087005D
:1023080001082000C3004308C6000B30C200420881
:10231800A1004908A931DC219031203E2000AD0000
:102328000230AE000030B2000030B1003D30B000E5
:102338000930AF00A131472190310B302000C20095
:102348004208A1004908A931DC219031073E203E0E
:102358008600023087000108200046050319B529C8
:10236800B629DB290B30C2004208A1004908A9316F
:10237800DC2190310A3E203E8600023087000108A9
:102388002000C3000B30C4004408A1004908A9314B
:10239800DC219031093E203E86000230870001088A
:1023A800860001308700200043088104FF290B3094
:1023B800C2004208A1004908A931DC2190310A3E37
:1023C800203E86000230870001092000C3000B3040
:1023D800C4004408A1004908A931DC219031093E14
:1023E800203E860002308700010886000130870001
:1023F8002000430881050B30C2004208A1004908AB
:10240800A931DC219031063E203E8600023087004B
:102418000310810D8108031D122A132A492A0B3043
:102428002000C2004208A1004908A931DC219031EE
:10243800063E203E86000230870081010314810D8C
:102448000B302000C2004208A1004908A931DC2154
:102458009031083E203E8600023087008108031D27
:10246800362A372A492A0B302000C2004208A10028
:102478004908A931DC219031073E203E8600023010
:1024880087008101492A492A492A01302000C200CF
:102498004208C90705304902031C532A542A6129F6
:1024A800552A08002000D0000030F11A01305006EB
:1024B800031D5F2A602A622A9F2C9F2CAB31ED23D3
:1024C800923120005008031D6A2A7B2BAA318122F1
:1024D80092312000CF002200200820004F06FC394E
:1024E8004F062200A0000030AA31FF229231AA3103
:1024F8009F2292312000CF00CF0DCF0D220020085F
:1025080020004F06F3394F062200A0000030AB31FF
:1025180023239231B731DE2792312000CF00CF0E2E
:102528002200200820004F06EF394F062200A000A5
:102538000030A9317E219231B731CE279231200067
:10254800CF00CF0ECF0DCF0D2200200820004F0660
:10255800BF394F062200A0000030A831ED2092318B
:10256800B731C92792312000CF00CF0ECF0D2200FE
:10257800200820004F06DF394F062200A000003057
:10258800A831FE209231B731D32792312000CF00F5
:10259800CF0CCF0C2200200820004F067F394F06B1
:1025A8002200A0000030A9310F21923151302000C3
:1025B800A1000030A200AE31092692316A30200015
:1025C800A1000130A2005130CF004F08A3009B3179
:1025D800F0239231200024082200A40020002308C0
:1025E8002200A300200022082200A20020002108C7
:1025F8002200A1006A302000A5000130A600AA31FF
:102608002C229231E9302000A1000030A200513084
:10261800CF004F08A3009B31F023923120002408FB
:102628002200A800200023082200A700200022087A
:102638002200A600200021082200A500E930200081
:10264800A5000030A600AA312C229231E3302000E8
:10265800A1000030A2005130CF004F08A3009B31E9
:10266800F0239231200024082200AC002000230827
:102678002200AB00200022082200AA002000210826
:102688002200A900E3302000A5000030A600AA31EE
:102698002C22923164302000A1000130A200513078
:1026A800CF004F08A3009B31F0239231200024086B
:1026B8002200B000200023082200AF0020002208DA
:1026C8002200AE00200021082200AD006430200066
:1026D800A5000130A600AA312C2292314F302000EB
:1026E800AF008730B0009431A02492319A2CF11CAD
:1026F8007E2B7F2B812B9F2C9F2C9130AF00863017
:10270800B0009431A0249231FF3022002406031D2A
:10271800972BFF302306031D972BFF302206031D3E
:10272800972BFF30210603199A2B9B2BB12B6A306C
:102738002000AD000130AE000130203E860001309F
:102748008700403FAF00413FB000423FB100433FE8
:10275800B200A13147219231B12BF01FB42BB52B18
:10276800D22BF0130030F01B01302000CF004F08AF
:10277800A1000130983100209231E9302000AD00ED
:102788000030AE000130B2007330B100EE30B0005E
:10279800D830AF00A13147219231FC2BFF30220005
:1027A8002806031DE12BFF302706031DE12BFF3010
:1027B8002606031DE12BFF3025060319E42BE52B24
:1027C800FC2BE9302000AD000030AE000530203E83
:1027D800860001308700403FAF00413FB000423FD4
:1027E800B100433FB200A13147219231FC2BFC2BB1
:1027F800F01EFF2B002C1D2CF0120030F01A0130B7
:102808002000CF004F08A1000230983100209231FB
:10281800E3302000AD000030AE000030B2001330CD
:10282800B1001230B000D030AF00A1314721923151
:10283800472CFF3022002C06031D2C2CFF302B06C2
:10284800031D2C2CFF302A06031D2C2CFF302906D3
:1028580003192F2C302C472CE3302000AD0000301A
:10286800AE000930203E860001308700403FAF00AF
:10287800413FB000423FB100433FB200A131472180
:102888009231472C472CFF3022003006031D562C6E
:10289800FF302F06031D562CFF302E06031D562C25
:1028A800FF302D060319592C5A2C702C6430200047
:1028B800AD000130AE000D30203E860001308700AB
:1028C800403FAF00413FB000423FB100433FB2003C
:1028D800A13147219231702C220020080339AA31F6
:1028E800FF2292312200200C890C0339AB312323BB
:1028F80092312200200E0139A9317E219231220025
:10290800200E890C890C0139A831ED209231220062
:10291800200E890C0139A831FE2092312200200DA9
:10292800200D0139A9310F2192319A2CF112200082
:10293800501C9F2CF116080031302000B9003908CE
:10294800BD00E72F4208253A0319AB2CAC2CB12C5B
:102958004208AB31C0239431E72F2000BF01C001EA
:10296800BE01BE2CBE2C3E150130AF070030B03D75
:10297800BE2CC92C2F088400300885000008303A86
:102988000319B72CC92CC92CBE2C2F088400300879
:1029980085000008A93194219431031CD42CD52C2E
:1029A8000D2D2000BF01C001D92C20002F08840064
:1029B800300885000008B900BA014008A201A20742
:1029C8003F08A101A1070A30A3000030A400A031EC
:1029D80000209431200039082107BB003A08223D25
:1029E800BC003B08D03EBF00FF303C3DC00001307A
:1029F800AF070030B03D2F0884003008850000087C
:102A0800A9319421943103180A2D0B2DD92C0D2DA1
:102A18000D2D20002F0884003008850000082E3A6C
:102A2800031D172D182D462D0130AF070030B03D7E
:102A3800C101382D0A302000B9003908A100410829
:102A4800A931DC2194312000BA002F088400300815
:102A5800850000083A07D03EBB003B08C1000130A2
:102A6800AF070030B03D382D2F08840030088500AE
:102A78000008A931942194310318432D442D1E2DAB
:102A8800E62DE62DC101E62DE62DFF2F0B2E0B2E90
:102A9800BE170B2E3D0886008701403FC300413F0B
:102AA800C4000230B9003908BD0744084304031DB7
:102AB8005E2D5F2D642D0230C3008930C400642D63
:102AC800C501C6016C2D0130C5070030C63D6C2D0F
:102AD8004308450784004408463D8500000800383F
:102AE800031D772D782D672D792D4108031D7D2D28
:102AF800922D4108B900BA01B91BBA0346083A0237
:102B0800031D882D4508390203188B2D8C2D922D15
:102B18004108C500C601C51BC603922D40084602E0
:102B2800031D982D3F08450203189B2D9C2DA12DB0
:102B38004508BF024608C03BAA2DBF01C001AA2D07
:102B4800AA2D2030AB31C0239431AA2DFF302000AC
:102B5800BF07FF30C03DFF304006031DB52DFF30D5
:102B68003F06031DB82DB92DA52DC92DC92D430824
:102B78008400440885000008AB31C023943101303B
:102B88002000C3070030C43DC92D0230433E8600F3
:102B980087010130810241310030813B7F31403F64
:102BA800FF3A031DD92D413FFF3A031DDC2DDD2DD2
:102BB800BB2DE72FE72FE72FC030B9003908BE0437
:102BC8000B2E0B2E20003008BA002F08B900013058
:102BD800AF070318B00A390884003A0885000008CE
:102BE800C200003A0319FF2F583A03194C2D3C3AFA
:102BF80003190B2E0D3A03190B2E1A3A03194E2DF1
:102C0800063A0319E02D0D3A03194C2DE72F3E081B
:102C1800C039031D102E112E2B2E3D08860087016A
:102C2800403FC300413FC4000230B9003908BD0726
:102C3800C41F1F2E202E372E0330B9003908BE04BA
:102C4800C309C409C30A0319C40A372E372E3D081D
:102C580086008701403FC300413FC4000230B900ED
:102C68003908BD07372EC108031D3B2E3C2EA82E60
:102C780044084304031D412E422EA82E0130B900FA
:102C88003908C107A82EA82E492EC2010314C20D67
:102C98004208053A031D512E522E542EB42EB42E3E
:102CA80042080907013E840082300318013E85006E
:102CB800003FB900013FBA003A084402031D662EDE
:102CC800390843020318692E6A2E6C2EB42EB42ECE
:102CD8000130B9003908C2074208053A031D752EAC
:102CE800762E542EB42EB42EC2010314C20D4208FF
:102CF800043A031D802E812E832EB42EB42E420852
:102D080009070B3E840082300318013E8500003F0E
:102D1800B900013FBA003A084402031D952E39084C
:102D280043020318982E992E9B2EB42EB42E0130F0
:102D3800B9003908C2074208043A031DA42EA52E7B
:102D4800832EB42EB42EB42E3E08C039003A03198F
:102D5800492E803A0319782E403A0319492EB42E89
:102D68004208803AB9004108803AB9020318BD2EDA
:102D7800BE2EC32E4108B9003908C200D22E410820
:102D8800803AB9004208803AB9020318CC2ECD2EF9
:102D9800D22E4208B9003908C100D22E40083F049B
:102DA8000319D72ED82E072F3E0803390319DD2E15
:102DB800DE2E072FFF30BF07FF30C03D072F072F3C
:102DC8004108B900BA01B91BBA033A08803ABB00F6
:102DD8004008803A3B02031DF32E3F0839020318CE
:102DE800F62EF72E022F20004108B900BA01B91BB0
:102DF800BA033908BF023A08C03B072F2000BF01B9
:102E0800C001072F072F4208B900BA01B91BBA033E
:102E18003A08803ABB004008803A3B02031D162F4F
:102E28003F0839020318192F1A2F252F20004208AE
:102E3800B900BA01B91BBA033908BF023A08C03B46
:102E4800292F2000BF01C001292F3E1D2C2F2D2F17
:102E5800522F3E0803390319322F332F382F2D30C4
:102E6800AB31C0239431382F200040083F040319A8
:102E78003E2F3F2FDA2F402F3030AB31C023943113
:102E8800FF302000BF07FF30C03D40083F04031D4E
:102E98004E2F4F2F402FDA2FDA2FDA2F40083F041A
:102EA8000319572F582F6A2F592F2030AB31C023C1
:102EB8009431FF302000BF07FF30C03D40083F0479
:102EC800031D672F682F592F6A2F6A2F3E08033971
:102ED80003196F2F702FDA2F2D30AB31C0239431A7
:102EE800DA2FDA2FDA2FC82F792F0A302000A9001D
:102EF8000030AA0041080907013E84008230031807
:102F0800013E8500003FA100013FA2004408A40142
:102F1800A4074308A301A307AD31C22594312000BB
:102F28002208AC01AC072108AB01AB07AD31832502
:102F3800943120002908303EB9003908C200D52F45
:102F4800410809070B3E840082300318013E8500C2
:102F5800003FA100013FA2004408A401A4074308C0
:102F6800A301A307AD31C2259431200021080F39F0
:102F7800C73E840086300318013E85000008B9006A
:102F88003908C200D52FD52F20003E08C039003A95
:102F98000319792F803A0319A42F403A0319792F7E
:102FA800D52F4208AB31C0239431DA2FFF302000EF
:102FB800B9003908C1074108FF3A031DE42FE52F7E
:102FC800C82FE72FE72F20003008BA002F08B900D4
:102FD8000130AF070318B00A390884003A088500A1
:102FE8000008BB003B08C200C208031DFC2FFD2FD0
:102FF800A62CFF2FFF2F08002000A20006280B2870
:103008000B280B282208003A03190B280B28080064
:103018002000DE0020305E02031C132814284328F9
:103028007F305E02031819281A28432813306702D4
:1030380003181F28202837285E08DD006708CE3EC1
:103048008600013087005D0881000130DD005D08E1
:10305800E7076F08031D31288C285E08AB31C023B1
:1030680098318C288C2820006F08031D3C288C2858
:103078000730AB31C02398318C288C288C2820004D
:103088005E080D3A031D49284A2872286F08031D57
:103098004E2853280A30AB31C023983153282000DA
:1030A8006708031D582863286708CE3E860001304C
:1030B80087008101CE309A31C622983163282000DA
:1030C800E7016F08031D69288C284230AF0089305A
:1030D800B0009431A02498318C288C2820005E08F8
:1030E8007F3A031D782879288C286708031D7D28D6
:1030F8008C280130E7026F08031D83288C285E089E
:10310800AB31C02398318C288C288C288C288C28AB
:1031180008002000D100F010511C9328F014AB31A6
:10312800ED2398312000D108031D9B289C28A12855
:103138002E30CF008930D000A6284530CF00893006
:10314800D000A628DA30AF008830B0005008B201AD
:10315800B2074F08B101B1079431A024983120007B
:103168005108031DB828B9287014701CBC28BD2844
:10317800DB285108031DC128C9284030A5000130AB
:10318800A600AA312C229831DB2840302000AD005F
:103198000130AE001A30B200D230B1007430B00045
:1031A8008030AF00A13147219831DB28DB2820008F
:1031B8006208053A0319E128E228FA286208063A63
:1031C8000319E728E828FA286208073A0319ED28BE
:1031D800EE28FA286208083A0319F328F428FA288E
:1031E8006208093A031DF928FA284129701CFD28AC
:1031F800FE283D29E608031D022903293D29272920
:103208002729711538292100D808031D0C290E29F2
:1032180071150F297111382902302100580203183D
:103228001629182971151929711138290330210017
:1032380058020318202922297115232971113829C8
:103248007111382938296208053A03190529033A02
:1032580003190729013A031910290F3A03191A29E2
:10326800013A0319242938292000E6010314E60D40
:103278003D2989318C21983141290800F229DC0146
:10328800452952302000A9000130AA00A3315B2350
:1032980099310038031D512952295429FE29FE2944
:1032A80022000D1552302000AD000130AE00003074
:1032B800B2000030B1000030B0007D30AF00A13165
:1032C800472199312100DC010314DC0DFE2952301D
:1032D8002000A9000130AA00A3315B2399310038EE
:1032E800031D772978297A29FE29FE2921009D14B2
:1032F80002302000D30053082100DC00FE299D1C69
:10330800862987298929FE29FE291C08D101D10788
:103318001B08D001D00720006D19932994299E29F4
:10332800ED19972998299E29FB30D30053082200CC
:103338008D059E29013021005102E7300319500202
:103348000318A729A829C02920006408031DAD294E
:10335800DE290130E402031DB229B329DE296D1CE0
:10336800B629B729DE296D1000306D180130A23159
:10337800EA229931DE29DE29083020006402031888
:10338800C629C729DE290130D3005308E4070830CD
:103398006402031CD029D129DE296D18D429D52926
:1033A800DE296D1400306D180130A231EA229931FE
:1033B800DE29DE2952302000AD000130AE00003099
:1033C800B2000030B1007A30B0001230AF00A13145
:1033D800472199312100DC01FE29FE2921005C08E2
:1033E800003A03194529013A03196B29033A0319CD
:1033F800832943290800F8302200B905C730B905E8
:103408003917B91723009F159F1D0B2A0C2A572A15
:1034180020002F08B3003008B4003108B500320886
:10342800B6000130B335B40DB50DB60D890B162AAB
:103438003608A4003508A3003408A2003308A10008
:1034480080302F07A5008430303DA6001E30313D66
:10345800A7000030323DA800A031E4209931FF30A8
:1034680020002107BF00FF30223DC000FF30233D70
:10347800C100FF30243DC2003F0823009B0020000C
:103488003F08B3004008B4004108B5004208B60040
:103498000830B636B50CB40CB30C890B4D2A33087A
:1034A80023009C00AA2A10302000B3000030B4008A
:1034B8000030B5000030B6002F08B7003008B8005B
:1034C8003108B9003208BA000130B735B80DB90D66
:1034D800BA0D890B692A3A08A4003908A3003808EC
:1034E800A2003708A10000302F07A5001230303D98
:1034F800A6007A30313DA7000030323DA800A03147
:10350800E420993120002108BB002208BC002308D0
:10351800BD002408BE000130BB35BC0DBD0DBE0D7D
:10352800890B902A3B08B3073C08B43D3D08B53DDC
:103538003E08B63D0530B636B50CB40CB30C890B55
:103548009F2A3308FF3E23009B00AA2A9E171E15B8
:103558001E129D1721009112111223001D131E1314
:103568001D121D169E129E16210091162200391F4B
:10357800BE2ABF2AC52A113023009A002200B91793
:10358800C52A08002000DC005C08AC3176249A319A
:1035980020002208DB01DB072108DA01DA07D8015D
:1035A800D901E42A5A08FF3E5C07CF004F0886007D
:1035B8000130870081010130DA020030DB3BE42A68
:1035C8005B085A040319E92AEA2A672B5A08FF3EBE
:1035D8005C07CF004F088600013087000108203AB9
:1035E8000319F72AF82AD62A5A08FF3E5C07CF00A3
:1035F8004F088600013087000108093A0319052B96
:10360800062BD62A672B672B672B142B5C088600A2
:103618000130870081010130CF004F08DC07142BEF
:103628005C088600013087000108203A03191D2B29
:103638001E2B0A2B5C088600013087000108093A16
:103648000319272B282B0A2B292B5C08860001300D
:1036580087000108003A0319322B332B462B5C08EC
:10366800CF005808513E860087014F08810001307D
:10367800D8070030D93D462B462B0130CF004F08E4
:10368800DC07462B5C088600013087000108003AF9
:1036980003194F2B502B672B5C08860001308700DD
:1036A8000108203A0319592B5A2B672B5C0886000E
:1036B800013087000108093A031D632B642B412B55
:1036C800672B672B672B5C08860001308700810811
:1036D800031D6F2B702B142B712B5108AE319F26B5
:1036E8009A3120002D08D701D7072C08D601D60714
:1036F800D71B7F2B802BE32BA62BA62BEF2BDB30A6
:10370800AF008730B0009431A0249A31EF2B5130AC
:103718002000AF008830B0009431A0249A31EF2BFC
:10372800FA302000AF008630B0009431A0249A31DE
:10373800EF2B9F302000AF008730B0009431A024D9
:103748009A31EF2B09302000CF004F08A10056080E
:10375800A931DC219A31083E163E840085300318D1
:10376800013E850000082000D0005008D500590807
:10377800C801C8075808C701C7075130CF004F080C
:10378800C9005508813100219A3120004808003AC3
:103798000319D22BFF3A0319D72B9D2B4708003A60
:1037A8000319EF2B9D2B4708FD3A0319942B033A75
:1037B80003198B2B013A0319832B9D2BEF2B5230C6
:1037C800AF008530B0005108B1000130B20094312B
:1037D800A0249A31EF2B080000302000B000003000
:1037E800AF000030AE000030AD002208B201B207D1
:1037F8002108B101B1072308A5002508B300330843
:10380800043E86008701403FA500413FA6003108DD
:10381800043EA7000030323DA8002708860028088B
:103828008700403FA900413FAA0026082A02031D3D
:103838001F2C25082902031C222C232C242DF92CAB
:10384800F92C3108860032088700403FA500413F27
:10385800A600423FA700433FA8003308860087011F
:10386800403FA900413FAA00423FAB00433FAC00A4
:1038780028082C02031D4A2C27082B02031D4A2C5A
:1038880026082A02031D4A2C2508290203184D2C54
:103898004E2C242D3108860032088700403FA500B1
:1038A800413FA600423FA700433FA80033088600D7
:1038B8008701403FA900413FAA00423FAB00433F78
:1038C800AC00A909AA09AB09AC09A90A0319AA0AF3
:1038D8000319AB0A0319AC0A2908A5072A08A63D4B
:1038E8002B08A73D2C08A83D2808B0002708AF00E2
:1038F8002608AE002508AD00242D242D33088600A7
:103908008701403FA500413FA600423FA700433F33
:10391800A8003108860032088700403FA900413FCF
:10392800AA00423FAB00433FAC0028082C02031D0D
:10393800A72C27082B02031DA72C26082A02031DE3
:10394800A72C250829020318AA2CAB2CE52C330830
:1039580086008701403FA500413FA600423FA700DF
:10396800433FA8003108860032088700403FA9007D
:10397800413FAA00423FAB00433FAC00A909AA0956
:10398800AB09AC09A90A0319AA0A0319AB0A031956
:10399800AC0A2908A5072A08A63D2B08A73D2C082C
:1039A800A83D2509AD002609AE002709AF00280962
:1039B800B000AD0A0319AE0A0319AF0A0319B00A19
:1039C800242DFF30B000FF30AF00FF30AE00FF30D5
:1039D800AD00242D242DFF30B000FF30AF00FF30A4
:1039E800AE00FF30AD00242D242D3108043EA50083
:1039F8000030323DA60025088600260887003308D7
:103A0800043E84008501003FA700013FA800A709E4
:103A1800A809A70A0319A80A403F2707A900413F98
:103A2800283DAA002A08003A03191B2DEF2C290863
:103A3800003A0319252C013A0319822CEF2C242D66
:103A48003008A4002F08A3002E08A2002D08A1000A
:103A58002D2D08002000DA0121005908013A031D24
:103A6800362D372DE72D3A302000A9000130AA0065
:103A7800A3315B239D31003A0319432D442DE72DD3
:103A880020006308031D492D4F2D0230D800580827
:103A98002100D900522D2100D901522D2000DA0130
:103AA8000314DA0DE72DE72DE6015A2DDD30A900C4
:103AB8000030AA00A3315B239D31003A0319652D1C
:103AC800662D0F2E20006208A631BE269D31AB312F
:103AD800ED239D31A8302000AF008530B00094312F
:103AE800A0249D31701C792D7A2D8A2D2D3020002F
:103AF800AF008830B0009431A0249D312000E60149
:103B08000314E60DDA010314DA0D0F2E7C302000C1
:103B1800AF008830B0009431A0249D310F2E0F2EB5
:103B28000F2EF018982D992D0F2E4030A900013036
:103B3800AA00A3315B239D31003A0319A42DA52DBA
:103B48000F2EAB31ED239D317F302000AF00863042
:103B5800B0009431A0249D310030711901308931B1
:103B68004C219D3102302000D8005808E600DA01C7
:103B78000314DA0D0F2E0F2EB731F0279D310038C0
:103B8800031DC72DC82D0F2E40302000A500013081
:103B9800A600AA3148229D317010711DD42DD52D53
:103BA800D82D2100D801DF2D01302000D800580879
:103BB8002100D807DF2D2000E601DA010314DA0D11
:103BC8000F2E0F2E0F2E20006608003A03195A2DCB
:103BD800013A0319952D033A0319C02D582D0F2EBC
:103BE800282E8131DE219D312000DA010314DA0DFF
:103BF800282EA43146249D312000DA010314DA0D61
:103C0800282EA93169219D312000DA010314DA0D2B
:103C1800282E282E282E2100570803392000D800E6
:103C2800D9015908003A03191A2E282E5808003AC3
:103C38000319282E013A0319F52D033A0319FD2D0E
:103C4800013A0319052E282E2100D7015E302000E5
:103C5800A9000130AA00A3315B239D31003A031962
:103C6800362E372E822E632E632E2000AE010530AD
:103C7800A83192209D31A931F6219D312000DA0129
:103C88000314DA0D792EAE010530A83192209D314A
:103C98008131FF219D312000DA010314DA0D792EDC
:103CA800AE010530A83192209D31A831DD209D312B
:103CB8002000DA010314DA0D792E792E792E2100ED
:103CC800550803392000D800D9015908003A0319CA
:103CD8006E2E792E5808013A0319392E033A031922
:103CE800472E013A0319542E792E71165E30A5001D
:103CF8000130A600AA312C229D31822E20005A08BC
:103D0800031D872E8B2E89318C219D318B2E080027
:103D1800F11E8F2E902E922EFF2FFF2F2000650868
:103D2800031D972EF42FB731D8279E310038031D75
:103D38009E2E9F2ECC2EB731DE279E31003A0319D6
:103D4800A62EA72ECC2EE9302000A9000030AA000C
:103D5800A3315B239E31003A0319B32EB42ECC2E27
:103D6800AB31ED239E31F7302000AF008730B00033
:103D78009431A0249E31F0170030F01B0130200050
:103D8800D1005108A1000130983100209E31CC2E7D
:103D9800B731D8279E31003A0319D32ED42E012FDC
:103DA800B731C9279E31003A0319DB2EDC2E012FCB
:103DB800E3302000A9000030AA00A3315B239E3124
:103DC800003A0319E82EE92E012FAB31ED239E317D
:103DD800AE302000AF008730B0009431A0249E316F
:103DE800F0160030F01A01302000D1005108A1006F
:103DF8000230983100209E31012F64302000A90044
:103E08000130AA00A3315B239E31003A03190D2F1C
:103E18000E2FF42F64302000A5000130A600AA312F
:103E28002C229E310030A831ED209E31F42FF42F42
:103E3800F42FFF2F70130030701B0130D100510890
:103E4800A1000430983100209E3120006C08A401A4
:103E5800A4076B08A301A307A93143219E310230AF
:103E68002000D1005108E500392F6830A9315621CA
:103E78009E31003A0319412F422FFF2F393020007D
:103E8800AF008830B0006C08B201B2076B08B1010E
:103E9800B1079431A0249E312000E808031D552F56
:103EA800562FB82F6D1A592F5A2F5F2F3E30D30037
:103EB8008930D400642F3630D3008930D400642F81
:103EC8000530AF008830B0005408B201B20753087B
:103ED800B101B1079431A0249E31FF30200069055B
:103EE800D10000306A05D200003052020F300319A9
:103EF80051020318802F812FAE2F6D1A842F852F22
:103F0800892FEA18882F892F922F6D1E8C2F8D2FBD
:103F1800AE2F6A1D902F912FAE2F922F0330AA310A
:103F2800DC229E310038031D9A2F9B2FA42F2000DE
:103F3800A1010314A10D0330AC31A5249E31A42F97
:103F480003302000EB070030EC3D0330D10051086E
:103F5800E500C72FE501BD30AF008730B0009431D0
:103F6800A0249E31C72FC72FE5010B30AF00873043
:103F7800B0006808D100D2015108B1005208B2005F
:103F88009431A0249E31F5302000AF008730B00076
:103F98009431A0249E31FF2FFF2F20006C08A4012C
:103FA800A4076B08A301A307A93143219E3104305C
:103FB8002000D1005108E500E12F6830A9315621D1
:103FC8009E31003A0319E92FEA2FFF2F8B313D2349
:103FD8009E31FF2FFF2FA53137259E31FF2FFF2F51
:103FE800200065088400063004020318FF2F803182
:103FF8000435F33E820008002000A501A60104282C
:10400800211C072808280C282308A5072408A63DF2
:104018000130A335A40D890B0D280130A236A10C5F
:10402800890B122822082104031D1B281C28042898
:104038001D282608A201A2072508A101A1072428F6
:1040480008002000CD01CE014808803AFF008030EA
:104058007F02031D312802304702031C342835280B
:104068003C28FF302000C700FF30C8008328832881
:10407800E9302000AF008630B0009431A024A03190
:10408800682809302000CA004A08A1004D08A93153
:10409800DC21A031163E2000CB0085300318890AA8
:1040A800CC007830AF008830B0004C08B201B207BD
:1040B8004B08B101B1079431A024A0310130200090
:1040C800CD070030CE3D682809302000CA004A08D4
:1040D800A1004D08A931DC21A031083E163E84001C
:1040E80085300318013E850000080038031D7D282F
:1040F8007E2845287F282000C701C801832808009A
:104108004C302000A9000130AA00A3315B23A03164
:10411800003A031990289128E3284C302000A10088
:104128000130A2000030A6000130A500E830A4004C
:104138004830A300AF314727A03101302300CA0718
:104148000030CB3D0030CC3D0030CD3D013020006B
:10415800B70037082100C6073C304602031CB528C3
:10416800B628E328C60101302000B700370821002F
:10417800C7073C304702031CC228C328E328C701ED
:1041880001302000B70037082100C807183048025E
:10419800031CCF28D028E328C80101302000B7002D
:1041A80037082100C90707304902031CDC28DD282D
:1041B800E328C901E328E328E328E328E3280800E3
:1041C80000302000AD000030AC000030AB00003003
:1041D800AA0024082304220421040319F428F5283A
:1041E8003D29AE010314AE0D05290130A135A20DFC
:1041F800A30DA40D890BFA280130A9002908AE07E0
:104208000529A41F08290929F9280B290B29013098
:10421800AA35AB0DAC0DAD0D890B0C29240828026D
:10422800031D202923082702031D2029220826020E
:10423800031D202921082502031C232924292E29AE
:104248002108A5022208A63B2308A73B2408A83B6F
:104258002A142E290130A436A30CA20CA10C890B18
:104268002F290130AE02031D3A293B290B293D298C
:104278003D292D08A4002C08A3002B08A2002A0819
:10428800A1004629080020002E08BC01BC072D0803
:10429800BB01BB072E08A201A2072D08A101A10797
:1042A800AE310926A13120003208310430042F0430
:1042B800031D5F2960296229AB29AB293B088600C9
:1042C8003C088700403FB700413FB800423FB90073
:1042D800433FBA003B0886003C0887002F08810747
:1042E80041313008813D41313108813D4131320849
:1042F800813D3B0886003C088700403FB300413FB2
:10430800B400423FB500433FB60036083A02031DE9
:10431800972935083902031D972934083802031DE7
:10432800972933083702031C9A299B29AB293B0894
:10433800043EB30000303C3DB40033088600340826
:1043480087000130810741310318810AAB29080031
:104358002000E508031DB129B229B429142A142A1A
:10436800AB31ED23A131A3302000AF008630B0007F
:104378009431A024A1310030AA31FF22A1310030AC
:10438800AB312323A1310030A9317E21A131003086
:10439800A831ED20A1310030A831FE20A131003034
:1043A800A9310F21A131E9302000A5000030A60075
:1043B800AA312C22A131E3302000A5000030A6004C
:1043C800AA312C22A13164302000A5000130A600BA
:1043D800AA312C22A1312000E501F112F01FF529A4
:1043E800F629022AF0130030F01B0130CF004F08E5
:1043F800A100013098310020A131022AF01E052ABF
:10440800062A132AF0120030F01A01302000CF00DB
:104418004F08A100023098310020A131132A7110F1
:1044280008002000BF002100560820003F0500308A
:10443800031D01303D06031D222A232A252A7D2A31
:104448007D2A3D08031D292A502AF1192C2A2D2AD4
:10445800322AAE010130A8319220A2315E3020000C
:10446800AD000130AE000030B2000330B100D030F2
:10447800B0009030AF00A1314721A2317112200065
:104488003F08BE003E082100D60420003F08BE00B9
:104498003E082100D504752A5E302000A5000130B1
:1044A800A600AA312C22A23120003F09BE003E08F6
:1044B8002100D605D608031D622A632A752AF11938
:1044C800662A672A722A711A6A2A6B2A722A55087A
:1044D8002000BE003E082100D700722AD501752AA7
:1044E800752AF11D782A792A7D2A89318C21A231F1
:1044F8007D2A08002000A300A401210091122200B7
:10450800390C2000A100A10C210C0739A2002200BF
:1045180039080739200022060319932A942AE42A25
:104528002200390C2000A100A10C210C0739313ED2
:104538008600013087000108A20023088600870151
:10454800220881002200390C2000A100A10C210CB6
:104558000739A100A10AA10DA10DA10D220039085A
:1045680020002106C73921062200B900391FBD2ABB
:10457800BE2ADF2AB91BC12AC22ADF2A390C200029
:10458800A100A10C210C0739A20022003908073923
:1045980020002206031DD12AD22ADF2AD42AD42AAF
:1045A800111ED72AD82AD42AD92A113023009A00D2
:1045B8002200B917DF2A2000A4010314A40DE42A5D
:1045C8002100911620002408E92A08002000D200C2
:1045D800AB31ED23A2312000D208031DF42AF52ABD
:1045E800FA2A3A30D0008930D100FF2A2930D00089
:1045F8008930D100FF2A8630AF008830B0005108DA
:10460800B201B2075008B101B1079431A024A23118
:1046180020006508031D112B3A2B5208031D152B8A
:104628002D2B0030A9317E21A231E9302000A500D0
:104638000030A600AA312C22A231AB31ED23A231E1
:10464800E2302000AF008830B0009431A024A231BD
:104658005A2BAB31ED23A231A4302000AF008830B3
:10466800B0009431A024A2315A2B5A2B7110521C3D
:104678003E2B7114711C412B422B4E2BAB31ED2379
:10468800A231E9302000AF008730B0009431A02477
:10469800A2314E2B0030711801302000CF004F0896
:1046A800A100053098310020A2315A2B0800313082
:1046B8002000A1000030A200AE310926A33120005D
:1046C8002908023EAB0000302A3DAC002B088600CA
:1046D8002C088700403FAD00413FAE00423FAF008D
:1046E800433FB00030083606031D842B2F083506DB
:1046F800031D842B2E083406031D842B2D08330636
:10470800031D872B882BA22B290886002A088700DF
:10471800403FAB00413FAC002C083202031D962BF2
:104728002B083102031C992B9A2B9E2B0130CE2B80
:10473800CE2BCE2B0030CE2BCE2BCE2B2908023EF3
:10474800AB0000302A3DAC002B0886002C088700FF
:10475800403FAD00413FAE00423FAF00433FB00095
:1047680036083002031DC22B35082F02031DC22B49
:1047780034082E02031DC22B33082D020318C52B43
:10478800C62BCA2B0130CE2BCE2BCE2B0030CE2BF6
:10479800CE2BCE2B08002000AD002A08031DD52BF8
:1047A800FF2B0B30AB002B08A1002D08A931DC2111
:1047B800A331073E203E8600023087000108200012
:1047C8002906031DE82BE92BFF2B0B30AB002B0828
:1047D800A1002D08A931DC21A331083E203E860026
:1047E80002308700010820002A06031DFC2BFD2B40
:1047F800FF2B452C452C0B30AB002B08A1002D08B6
:10480800A931DC21A331203E2000A5000230A600FA
:10481800AA314822A3310B302000AB002B08A1009D
:104828002D08A931DC21A331063E203E8600023046
:10483800870081010314810D20002908AB000B308B
:10484800AC002C08A1002D08A931DC21A331073EBA
:10485800203E86000230870020002B0881002A08AD
:10486800AB000B30AC002C08A1002D08A931DC21CD
:10487800A331083E203E86000230870020002B0826
:1048880081000800B02CD901492C20006208093A9F
:1048980003194F2C502C582C6208013ECB000030D5
:1048A80003180130CC005B2CCB01CC015B2C4B08EE
:1048B800AE31ED26A431BC2C0A3020006E0203185C
:1048C800662C672C6C2C0A30CA004A08EE009E2C15
:1048D80019306E020318712C722C772C1930CA000B
:1048E8004A08EE009E2C32306E0203187C2C7D2C78
:1048F800822C3230CA004A08EE009E2C4B306E02E1
:104908000318872C882C8D2C4B30CA004A08EE00DF
:104918009E2C64306E020318922C932C982C6430D1
:10492800CA004A08EE009E2CEE019E2C9E2C9E2C5E
:104938009E2C9E2C3A30AD000130AE000030B20003
:104948000930B1008930B0006830AF00A13147218B
:10495800A431BC2CBC2CBC2C21005908003A0319EA
:10496800492C013A0319602C033A0319BC2C472C33
:10497800080020004808803AFF0080307F02031DAD
:10498800C72C03304702031CCA2CCB2CD22CFF3077
:104998002000C700FF30C800362D362D0230200019
:1049A80047064804031DD92CDA2C162D4830A500DB
:1049B8008930A6001430A7000030A8004908013E3D
:1049C80086008701010890310020A43120002608C4
:1049D8002504031DF02CF12CF52CEF010314EF0D29
:1049E800162D3230A5008930A6001430A7000030FB
:1049F800A8004908013E860087010108903100207F
:104A0800A431200026082504031D0B2D0C2D0E2D86
:104A1800EF01162DFF30C700FF30C800362D362DA8
:104A2800162D162DEF08031D1A2D1B2D202D3230A3
:104A3800CA008930CB00252D4830CA008930CB0008
:104A4800252D7230AF008830B0004B08B201B20794
:104A58004A08B101B1079431A024A4312000C7014C
:104A6800C801362D0800A62D6A302000A9000130A3
:104A7800AA00A3315B23A531003A0319442D452D23
:104A8800B22D03302000EB070030EC3D0330B700B7
:104A98003708E500B22DB22D0130683E8600870147
:104AA800160001040319592D5A2D6D2DB731D82739
:104AB800A531003A0319612D622DB22D0330200073
:104AC800EB070030EC3D0330B7003708E500B22DA6
:104AD800B22DB731D827A5310038031D742D752D97
:104AE800B22DE3302000A5000030A600AA312C2208
:104AF800A53103302000EB070030EC3D0330B70050
:104B08003708E500B22DB22DB22DB731CE27A53129
:104B18000038031D902D912DB22D03302000EB0796
:104B28000030EC3D0330B7003708E500B22DB22D58
:104B38000330EB070030EC3D0330B7003708E500E1
:104B4800B22DB22D20006808073A0319382D0F3A04
:104B58000319502D013A0319892D9C2D08002000B6
:104B6800D400172EEA30AF008830B0009431A0246A
:104B7800A531F12D1E302000AF008930B0009431EE
:104B8800A024A5312F2E09302000AF008930B000B5
:104B98009431A024A5310030AD314B25A5312F2EFD
:104BA80024302000AF008930B0009431A024A53112
:104BB8000130AD314B25A5312F2EAD302000AF008F
:104BC8008830B0009431A024A5312000A101033021
:104BD800AC31A524A5312F2E2F2E0330AA31DC228B
:104BE800A531003A0319BE2D013A0319C72D033A1E
:104BF8000319D42DE12D2F2EBC302000AF008530B5
:104C0800B0009431A024A5310130AD314B25A53138
:104C18002F2E2F2E0F2E2000A1010330AC31A524FA
:104C2800A5312F2E2F2E200054080339D200D3018E
:104C38005308003A0319212E0F2E5208003A03197F
:104C4800B62D013A0319002E033A03192F2E013A03
:104C580003190F2E0F2E0800711B332E342E622ECF
:104C680046302000A9000130AA00A3315B23A631F9
:104C7800003A0319402E412E622E46302000AD0026
:104C88000130AE000030B2000030B1003030B0006A
:104C9800D430AF00A1314721A631701271175430BA
:104CA80020009B007D309C002A30250091001F3099
:104CB80093002000911021009114622EF019652EA6
:104CC800672E0130682E00302000D20070196D2E3A
:104CD8006F2E0130702E003052060319742E752E77
:104CE800882E5830AD000130AE000030B2000030E0
:104CF800B1009230B0007C30AF00A1314721A6311D
:104D0800F011701D882EF01558302000A9000130D0
:104D1800AA00A3315B23A631003A0319942E952EDD
:104D2800BD2E58302000A5000130A600AA312C2243
:104D3800A6312000ED18A12EA32E0130A42E00309C
:104D4800D2007019A82EAA2E0130AB2E00305206C0
:104D58000319AF2EB02EBD2EED10701DB42EED141C
:104D680000302000ED18013098318D20A631BD2E7D
:104D7800BD2E08002000BD003E2FDD30AD00003004
:104D8800AE00F130B2006630B1001830B0008030AB
:104D9800AF00A1314721A631DD302000A10000304D
:104DA800A200F130A6006630A5001830A4008030BB
:104DB800A300AF314727A631DD302000A100003025
:104DC800A200A030A600EE30A500BB30A400003041
:104DD800A300AF314727A6314D2FDD302000AD00AD
:104DE8000030AE00F130B2006630B1001830B000CB
:104DF8008030AF00A1314721A631DD302000A1006D
:104E08000030A2005030A6007730A5005D30A40025
:104E18008030A300AF314727A6314D2FDD30200069
:104E2800AD000030AE00D630B2009330B100A430EF
:104E3800B0000030AF00A1314721A6314D2FDD3041
:104E48002000AD000030AE00A030B200EE30B1005E
:104E5800BB30B0000030AF00A1314721A6314D2F43
:104E6800DD302000A5000030A600AA312C22A63192
:104E78004D2F4D2F20003D08013A0319C12E033A4A
:104E88000319F12E013A0319122F073A0319232F98
:104E9800342F080080315320A7312000E00060083B
:104EA800E1000030B2000030B1004B30B0000030FB
:104EB800AF009931FF21A7310C302000AF008630B8
:104EC800B0009431A024A731210096186C2F6D2FC3
:104ED800782F8F302000AF008730B0009431A024A5
:104EE800A7312000E117AC2F16187B2F7C2F872FB6
:104EF8003E302000AF008730B0009431A024A731A5
:104F08002000E117AC2F2000201A8B2F8C2F942F14
:104F18007F30AF008730B0009431A024A731AC2F88
:104F2800A019972F982FA02F4630AF008630B000D9
:104F38009431A024A731AC2F67302000AF0088300F
:104F4800B0009431A024A731AC2FAC2FAC2FAC2FDC
:104F58002100961416142000611CB32FB42FBC2F07
:104F68006C30AF008630B0009431A024A731BC2F3C
:104F78002000E11CC02FC12FC92F5930AF00863047
:104F8800B0009431A024A731C92FA8313720A73108
:104F980020006108AA316422A731A8318320A731F3
:104FA800AB316E23A73120006108AC314824A7310A
:104FB800A8315920A73120006108A531B325A731B0
:104FC800B731F727A731E82FA0318420A731A631C0
:104FD8003026A73199314221A73190315320A7318A
:104FE8009D312E25A731AA31BD22A7319E318C26AD
:104FF800A731E82F80314E288F31BB2F8B314F2BB3
:105008008B31A12B8B31F32B8C319D2C8D31012DC4
:105018008E31BB2E8D31542D8D31892D8D31F32D4F
:105028008E31292E8E31722E8F31562F8F318A2F45
:105038008F31AA2F8931B2298931B2298931B22910
:105048008931B2298931B2298931F0298931F02988
:105058008931F0298931F0298931F0290030F11A94
:1050680001303628080020001813981398161816CF
:10507800981118151814210011140800200022088E
:105088002100CF01CF07200021082100CE01CE0743
:105098000800711F50285128582820000D1A55283B
:1050A8005628582870165828080020006F08031D35
:1050B8005E2866284230AF008930B0009431A024C1
:1050C800A8316628080020004008003A003003197B
:1050D8000130C1004108BD000230A2311522A831BB
:1050E800080020004008003A003003190130C100D0
:1050F8004108BD000130A2311522A8310800543002
:1051080020009B007D309C002A30250091001F3034
:105118009300200091102100911408002000B10094
:105128003108AF002F08A9002E08B0003008AA00E7
:105138000030A331CF23A83108002000B100310886
:10514800AF002F08A9002E08B0003008AA000130CF
:10515800A331CF23A83108002000B1003108AF00E7
:105168002F08A9002E08B0003008AA000330A33188
:10517800CF23A83108002000B1003108AF002F0864
:10518800A9002E08B0003008AA000430A331CF23AC
:10519800A83108002000B1003108AF002F08A9008D
:1051A8002E08B0003008AA000230A331CF23A8315E
:1051B80008000830F1060310F11D03140030093D02
:1051C8002000A5002508A1000230AC31A524A83193
:1051D80008002000A2002208031DF328F628220058
:1051E8008F15FD28F7302000A100210822008F0527
:1051F800FD2808002000A2002208031D0429072911
:1052080022008F140E29FD302000A1002108220061
:105218008F050E2908002000A2002208031D152969
:10522800182922000F151F29FB302000A100210892
:1052380022008F051F290800F1102000401C252995
:10524800F1140030F11801302000C1004108A1001C
:10525800033098310020A9310800FF34FF34FF34AF
:10526800FF34FF34FF34FF34FF34FF34FF34FF349E
:10527800FF34FF34FF34FF34FF34FF34FF344F2949
:1052880020002408A201A2072308A101A107A83130
:105298004220A931552921005A08003A0319442906
:1052A800552908002000A50062295A292000250850
:1052B800A931C221A93168296829682921005A0819
:1052C800003A03195A295A2908002100D901031460
:1052D800D90D3A302000AD000130AE000030B200E8
:1052E8000930B1008930B0006830AF00A1314721E2
:1052F800A93108002000A2006D11221C84296D1517
:1053080020006D1D882989298C2922000F149329D2
:10531800FE302000A100210822008F0593290800F3
:105328002000A200A1013A30220203189C299D29DD
:10533800A72930302202031CA229A329A729A101E9
:105348000314A10DA729210CA9290800FF34FF3453
:10535800FF34FF34FF34FF34FF34FF34FF34FF34AD
:10536800FF34FF34FF34FF34FF34FF34FF34FF349D
:10537800FF34FF34FF34FF34FF34FF342000A4002F
:1053880021004E0884004F088500003F2000A1003E
:10539800013FA200023FA3002408860087012108DC
:1053A800C03F2208C13F2308C23F0130DB29080063
:1053B8002000A400A301E029241CE329E429E92909
:1053C8002108A2002208A307E9290310A10D031050
:1053D800A40CA408031DF129F229E029F3292308C4
:1053E800F5290800B731F027A9310038031DFD2938
:1053F800FE290B2A711100307119013089314C21B5
:10540800A93102302000D2005208E6000F2AA1314B
:10541800AC21A9310F2A0800711F132A142A2B2A3C
:10542800711320009B019C0125009101210091101E
:10543800200091101C1125009301FB30F200720826
:1054480022008E057011701E2A2A70152B2A08005A
:1054580020002508860026088700FF30C03FFF305F
:10546800C13F2508023EA7000030263DA8002708B6
:10547800860028088700FF30C03FFF30C13FFF305B
:10548800C23FFF30C33F08002000250886002608D9
:1054980087000030C03F0030C13F2508023EA7000A
:1054A8000030263DA800270886002808870000301D
:1054B800C03F0030C13F0030C23F0030C33F08004A
:1054C8002000BD004C30AD000130AE000030B2000D
:1054D8000130B100E830B0004830AF00A1314721B9
:1054E800AA312000BD1F792A7A2A802A2100C60104
:1054F800C701C801C901802A0800892A02309E2AEA
:105508009E2A01309E2A9E2A9C2A22000F083039A2
:105518002000A100A2012208003A0319942A9C2A1B
:105528002108203A0319822A103A0319852A9C2A4D
:1055380000309E2A0800A72A0230BC2ABC2A013063
:10554800BC2ABC2ABA2A22000F08C0392000A100B0
:10555800A2012208003A0319B22ABA2A2108803A7D
:105568000319A02A403A0319A32ABA2A0030BC2AF0
:105578000800D12ACA2A0630AB31C023AA31D12A61
:1055880020005F0898310C20AA31D12A20005F083A
:10559800053A0319BF2AC42AD12A5F30A2317E22D4
:1055A800AA310038031DD92ADA2ACA2ADB2A0800B8
:1055B8002000A400640023009518E32AE42ADE2AC8
:1055C800E52A20002408A100A20121082300910057
:1055D80020002208230092003F302000A300230867
:1055E8002300950515140310151803140030093D00
:1055F8001308FE2A08002000A200162B032BCF3028
:10560800A100210822008F05222B22000F168F16D9
:10561800222BEF302000A100210822008F058F16D1
:10562800222B222B20002208003A0319032B013ACF
:105638000319092B033A03190D2B032B080020002B
:10564800A2003A2B272B3F30A100210822008F050A
:10565800462BBF302000A100210822008F058F179C
:10566800462B22000F178F17462B462B20002208A7
:10567800003A0319272B013A0319352B033A03196A
:105688002D2B272B080001302100CA070030CB3D05
:105698000030CC3D0030CD3DFF304D02031D5E2B68
:1056A800FF304C02031D5E2B00304B02031D5E2BA6
:1056B80000304A02031C612B622B6D2B0030CD0099
:1056C8000030CC000030CB000030CA006B2B6B2BB5
:1056D8006D2B080002302000A1002108A200A301C0
:1056E8007C2B0310A20C0130A1002108A3077C2BFE
:1056F800221C7F2B802B752B21001D1420002308D2
:10570800A100A10DA10D21001D082000210683394B
:10571800210621009D009E1770309E041E11FC304A
:105728009E050800FF34FF34FF34FF34FF34FF3494
:105738006A3418340034003400340D340134093428
:10574800FF34FF34FF34FF34FF34FF346A34183435
:105758000034003400340D3420340534FF34FF3471
:10576800FF34FF34FF34FF346A3418340034003413
:1057780000340D34023407342000A20023009D1B9E
:10578800C62BC72BE22BEC2BEC2BE22B23009D1C0A
:10579800CE2BCF2BD32B9E129E161D121D161D1D10
:1057A800D62BD72BE02B19082000A1002108A30035
:1057B80023009E129E16E02B6400E22B2000111E8F
:1057C800E62BE72BCA2BE82B220823009A0064005B
:1057D8000800D8302000AF008630B000210049080A
:1057E8002000C700C8014708B1004808B2002100DE
:1057F80048082000C900CA014908B3004A08B40093
:10580800210047082000CB00CC014B08B5004C080C
:10581800B600210046082000CD00CE014D08B70093
:105828004E08B8009431A024AB3108002000A50030
:105838002108A4002408A7002508A4002408A6001D
:10584800382C2708860087010108A400260886004E
:105858008701240881000130A4002408A70701302B
:10586800A4002408A607382C0130A2020030A33B6C
:10587800FF302306031D422CFF302206031D452C52
:10588800462C252C472C08002000CB004B1C4D2C07
:105898004E2C602CCB1C512C522C602CA1010130B9
:1058A800AC31A524AC31FF302000CA004A08A10061
:1058B8000230AC31A524AC310230AA31DC22AC3143
:1058C800003A0319682C6A2CF1156B2CF111013080
:1058D800AA31DC22AC31AE31ED26AC3189318C21D4
:1058E800AC3108002000A9002908A3002308AA0059
:1058F8007E2C7E2C2A088600013087000130AA07FA
:105908008108031D882C892C7E2C8A2C2908A30049
:105918000130A400A309A409A30A0319A40A2A08A8
:10592800A5000130A60023082507A7002408263D66
:10593800A8002708FF3EA100FF30283DA200A42CA4
:1059480008002000A400A82C23009518AC2CAD2C2E
:10595800A82CAE2C20002408A200A30122082300B2
:105968009100200023082300920020002108230032
:1059780093003F302000A200220823009505200054
:1059880003108B1FC82CC92CCA2C03148B1323009B
:10599800151555309600AA3096009514151120005B
:1059A800031CD72CD82CDB2C8B17DB2CDB2C08000A
:1059B800003400340034003400340034013400343E
:1059C80000340E340234003400340034003400341F
:1059D80000340134003400340E340134003400340F
:1059E80000340034003400340134003400341034FE
:1059F80004340034003400340034003400340134FA
:105A080000340034103401340034003400340034DD
:105A180000340034013400340034103402340030CF
:105A28002000AC000030AB000030AA000030A90014
:105A38001D2D211C202D212D2A2D2508A9072608DA
:105A4800AA3D2708AB3D2808AC3D2A2D0130A535D5
:105A5800A60DA70DA80D890B2B2D0130A436A30C7C
:105A6800A20CA10C890B322D240823042204210442
:105A7800031D3F2D402D1D2D412D2C08A4002B0862
:105A8800A3002A08A2002908A1004A2D0800200026
:105A9800D100E508031D512D522D822DAB31ED2388
:105AA800AD312000D108031D5A2D5B2D602D3E30ED
:105AB800CF008930D000652D3630CF008930D00036
:105AC800652D9330AF008530B0005008B201B207A1
:105AD8004F08B101B1079431A024AD312100DA019A
