:0400000080314E28D5
:10000800803120007F08FC00111C0B280C281128C7
:100018001110A3316523803111282000911C152867
:1000280016281B289110A131F72180311B280B1CA1
:100038001E281F28382820000D0821003106FB0043
:100048007B08FD00270096010B107D1E2C282D280B
:100058003128A031AE208031312820000D08FB0066
:100068007B082100B10038282000911E3C283D283B
:10007800412896315626803141282000111E4528F6
:1000880046284A288031FF2080314A287C082000F1
:10009800FF0009000308A000880190310128210011
:1000A800951313308C0020008C01023023008C0043
:1000B800FB3021008D0020008D0123008D01F730D9
:1000C80024008D0010302700940010309500960110
:1000D8000B108B1523302000A50025082100B60041
:1000E80098308E0020008E0121008F0120008F01A2
:1000F80023008F012100900120009001230090012E
:100108002400900182302000A600DD30A500A50B58
:100118008B28A60B8B28902882302000A600DD3083
:10012800A500A50B9528A60B95289A282000A901BB
:1001380002302902031CA128A228A428F028F028AC
:100148000130A5000930A6002608A1002908A13120
:10015800DD218031063E203E860001308700010CFB
:100168000739890A2000B928A535890BB828250838
:10017800A7002708A8000930A5002508A10029081C
:10018800A131DD218031073E203E86000130870005
:10019800010886008701200028080105A60009300B
:1001A800A7002708A1002908A131DD218031063EDA
:1001B800203E860001308700010820002606FE390F
:1001C800260681000130A5002508A907023029026A
:1001D800031CEF28F028A428A9010D18F428F528F5
:1001E800F62829148D1AF928FA28FC28A914FC28BD
:1001F8002908FE2808000800813182070229883171
:100208004228983138289C31532C9431BE2C953192
:100218008A2D9D31D82D9E31622E9E31EC2E9F3134
:10022800762FA431F82CA5316A2D98310128A231F6
:100238004B2AA231682AA231852AA031D428A031BC
:10024800E228CF292000A1010314A10D0130A63115
:10025800BC2681312000A1010230A631BC268131A3
:100268002000A1010330A631BC2681312000A10164
:100278000430A631BC268131DA292000A1010130E1
:10028800A631BC2681312000A1010314A10D023042
:10029800A631BC2681312000A1010330A631BC263D
:1002A80081312000A1010430A631BC268131DA2930
:1002B8002000A1010314A10D0130A631BC26813113
:1002C8002000A1010314A10D0230A631BC26813102
:1002D8002000A1010330A631BC2681312000A101F4
:1002E8000430A631BC268131DA292000A101013071
:1002F800A631BC2681312000A1010230A631BC26DE
:1003080081312000A1010314A10D0330A631BC26C0
:1003180081312000A1010430A631BC268131DA29BF
:100328002000A1010314A10D0130A631BC268131A2
:100338002000A1010230A631BC2681312000A10194
:100348000314A10D0330A631BC2681312000A10180
:100358000430A631BC268131DA292000A101013000
:10036800A631BC2681312000A1010314A10D023061
:10037800A631BC2681312000A1010314A10D033050
:10038800A631BC2681312000A1010430A631BC264B
:100398008131DA29DA29200068088400063004024D
:1003A8000318DA29A0310435003E8200711CDD29CA
:1003B800DE29F52920006908031DE329EB29AA0194
:1003C8000314AA0DAA30A1310E218131FC29200085
:1003D800AA010314AA0DFF30A1310E218131FC2995
:1003E800FC292000AA010030A1310E218131FC290D
:1003F80008000800080008000034013400341034F4
:10040800003400340134003410343F3400340034F4
:100418000034003400340034003403346834653464
:100428006C347034003400340034003403346534E0
:10043800633468346F3400340034003400340534D5
:1004480062346F3477346C34003400340034003450
:100458000734613472346D340034003400340034AD
:100468000034093464346F34733461346734653468
:10047800003400340B347434613470340034003484
:100488000034003400340D34643472346134693417
:100498006E340034003400340F34643472347934E8
:1004A80065347234003400340034113463346134F8
:1004B8007434003400340034003400341334773496
:1004C80061347434653472340034003400341534C3
:1004D80068346534613474340034003400340034D2
:1004E800173473347434613472347434003400341F
:1004F800003419347334653474347534703400340A
:10050800003400341B346C346F3463346B3400347F
:100518000034003400341D347434613467340034DA
:100528000034003400340034013400340034003422
:1005380000340034003400340034003455346E3450
:10054800613462346C346534203474346F3420344C
:10055800723465346134643420344934443420348A
:1005680072346534733470346F346E347334653474
:100578000A34003455346E34613462346C34653472
:10058800203474346F3420347234653471347534E3
:10059800653473347434203462346C346F346334A7
:1005A8006B340A34003455346E34613462346C343C
:1005B8006534203474346F342034723465347134C3
:1005C80075346534733474342034553449344434C0
:1005D8000A34003455346E34613462346C34653412
:1005E800203474346F34203477347234693474347A
:1005F8006534203462346C346F3463346B340A34B9
:10060800003455346E34613462346C3465342034CB
:1006180074346F3420347234653461346434203473
:1006280062346C346F3463346B340A3400345534B8
:100638006E346B346E346F3477346E3420346334F4
:100648006F346D346D3461346E346434203427343F
:100658002534733427340A34003455346E34613405
:1006680062346C346534203474346F342034733419
:1006780065346C3465346334743420344934443418
:100688000A34003455346E34613462346C34653461
:10069800203474346F342034733465346E346434E5
:1006A800203469346E34693474340A34003455346F
:1006B8006E34613462346C346534203474346F348D
:1006C8002034723465346134643420345534493408
:1006D80044340A3400340A342A342A342A3420347C
:1006E800473465346E34693465344434693461346C
:1006F800673420342A342A342A340A3400345034F3
:1007080069346E3420347234653473346534743427
:100718002034283473346C346534653470342934A7
:100728000A340034533465347434753470342034E6
:1007380062347534743474346F346E3420346834ED
:1007480065346C3464340A3400345334743461349A
:1007580072347434203462347534743474346F34BD
:100768006E342034683465346C3464340A340034AC
:1007780055346E34613462346C34653420347434E6
:100788006F34203467346534743420344934443445
:100798000A340034543461346734203469346E3494
:1007A80074346534723466346534723465346E3446
:1007B800633465340A3400344E34413463346B3462
:1007C8002034663472346F346D34203472346534B6
:1007D80061346434653472340A340034303431346A
:1007E80032343334343435343634373438343934B5
:1007F80041344234433444344534463400344E346E
:100808006F3420347434613467342034643465348C
:100818007434653463347434653464340A340034AD
:100828004B346E346F3477346E34203463346F3421
:100838006D346D3461346E34643473343A340A344C
:10084800003450346134723461346D346534743436
:100858006534723420346534723472346F347234CF
:100868000A340034423472346F3477346E342D34A1
:100878006F347534743420347234653473346534A9
:1008880074340A340034573461347434633468344B
:1008980064346F34673420347234653473346534A7
:1008A80074340A34003450346F3477346534723415
:1008B8002D346F346E3420347234653473346534B7
:1008C80074340A34003449346E34763461346C3408
:1008D80069346434203462346C346F3463346B3478
:1008E8000A34003455346E346B346E346F347734D4
:1008F8006E3420346534723472346F3472340A348E
:1009080000344F3476346534723468346534613475
:1009180074343A342034253473340A34003453346C
:1009280079346E34743461347834203465347234F4
:1009380072346F3472340A34003444346F3473348C
:100948006134673465343A3420346F34663466343D
:100958000A34003449346E34763461346C34693482
:10096800643420345534493444340A34003444342B
:100978007234613469346E343A3420346F346634F6
:1009880066340A3400344434723479346534723449
:100998003A3420346F34663466340A3400344234CE
:1009A8006F3477346C343A342034733474346F349D
:1009B80070340A34003442346C346F3463346B342A
:1009C800203425342E34323458343A340034443404
:1009D8006F3473346134673465343A3420342534E1
:1009E80073340A340034413472346D343A34203468
:1009F800733474346F3470340A34003444347234C9
:100A0800613469346E343A342034253473340A340A
:100A18000034573461347434653472343A342034D1
:100A2800253473340A3400344434723479346534E8
:100A380072343A342034253473340A340034493457
:100A48002F344F3420346534723472346F34723436
:100A58000A340034503469346E34203472346534C6
:100A68007334653474340A34003454346134703463
:100A78003A3420346F34663466340A3400344C34E3
:100A88006F3463346B343A342034253473340A3485
:100A980000343C3475346E346B346E346F347734D0
:100AA8006E343E34003455346E34693471347534E0
:100AB8006534493444343A34003445346334683452
:100AC8006F343A342034253473340A3400345434BF
:100AD800613470343A342034253473340A340034A1
:100AE8004334613474343A342034253473340A344A
:100AF800003428346E3475346C346C342934003442
:100B08004D346F34643465343A34203400346434FA
:100B18006F347334613467346534003442346F346D
:100B280077346C343A3420340034643472346134A9
:100B380069346E3400346434723479346534723410
:100B48000034203425342E34323458340034773489
:100B580072346934743465340034413472346D3419
:100B68003A342034003462346F3477346C340034CF
:100B780072346534613464340034643475346D34EB
:100B88007034003468346934673468340034643449
:100B98006F3477346E340034733474346F34703493
:100BA8000034613472346D34003474346134703418
:100BB80000347534693464340034793465347334FA
:100BC80000346F34753474340034633463347734E8
:100BD80000346C346F34773400346F3466346634E0
:100BE80000346E346F340034753470340034233478
:100BF800203400346F346E3400342B302000AD00C4
:100C08002D08B100832F3308253A03190C2E0D2E19
:100C1800122E3308A43130248631832FB0012908DD
:100C280084002A08850000082E3A031D1C2E1D2E5C
:100C38004B2E0130A9070030AA3DB2013D2E0A30E3
:100C48002000AD002D08A1003208A131DD21863138
:100C58002000AE00290884002A08850000082E0715
:100C6800D03EAF002F08B2000130A9070030AA3DDE
:100C78003D2E290884002A0885000008A131972103
:100C880086310318482E492E232ECA2ECA2EB201A9
:100C9800CA2ECA2E9B2FE62EE62E31088600870123
:100CA800403FB400413FB5000230AD002D08B10708
:100CB80035083404031D612E622E672E7D30B40082
:100CC8008530B500672EB601B7016F2E0130B60723
:100CD8000030B73D6F2E3508AE003408AD00360839
:100CE8002D0784002E0803182E0A850000080038F6
:100CF800031D7F2E802E6A2E822E822E3208031D1F
:100D0800862EAA2E3208AD00AE01AD1BAE03370801
:100D18002E02031D912E36082D020318942E952EAF
:100D2800AA2E3208B600B701B61BB703AA2EAA2E00
:100D380034088400350885000008A4313024863141
:100D480001302000B4070030B53DAA2E0230343EF1
:100D5800860087010130810241310030813B7F31BB
:100D6800403FFF3A031DBA2E413FFF3A031DBD2EF7
:100D7800BE2E9C2E832F832F3330B4000030B50055
:100D88000130B6000030B700822EE62E20002A0877
:100D9800AE002908AD000130A9070318AA0A2D08DA
:100DA80084002E0885000008B300003A03199B2F21
:100DB800583A0319E62E2B3A0319512E0B3A031908
:100DC800E62EC02E310886008701403FB400413F1F
:100DD800B5000230AD002D08B107B208031DF52E8D
:100DE800F62E012F35083404031DFB2EFC2E012F8F
:100DF8000130AD002D08B207012FB3010314B30D64
:100E08003308043A031D092F0A2F0C2F2F2F2F2FD9
:100E180033080907013E840082300318013E85002B
:100E2800003FAD00013FAE002E083502031D1E2F06
:100E38002D0834020318212F222F242F2F2F2F2F74
:100E48000130AD002D08B3073308043A031D2D2FD8
:100E58002E2F0C2F2F2F3308803AAD003208803AFE
:100E6800AD020318382F392F3E2F3208AD002D0858
:100E7800B300762F3208803AAD003308803AAD02CD
:100E88000318472F482F762F3308AD002D08B200DE
:100E9800762F762F762F32080907013E840082309C
:100EA8000318013E8500003FA100013FA20035085C
:100EB800A401A4073408A301A307A531E1258631BD
:100EC800200021080F39F23E840083300318013EC8
:100ED80085000008AD002D08B3003308A431302484
:100EE8008631762FFF302000AD002D08B20732087A
:100EF800FF3A031D802F812F4F2F832F832F200030
:100F08002A08AE002908AD000130A9070318AA0A6B
:100F18002D0884002E0885000008AF002F08B300B4
:100F2800B308031D982F992F072E9B2F9B2F08007E
:100F380000302000AD000030AC000030AB000030C5
:100F4800AA0024082304220421040319AC2FAD2F7E
:100F5800F52FAE010314AE0DBD2F0130A135A20D42
:100F6800A30DA40D890BB22F0130A9002908AE07E3
:100F7800BD2FA41FC02FC12FB12FC32FC32F0130E6
:100F8800AA35AB0DAC0DAD0D890BC42F2408280272
:100F9800031DD82F23082702031DD82F2208260255
:100FA800031DD82F21082502031CDB2FDC2FE62F79
:100FB8002108A5022208A63B2308A73B2408A83B32
:100FC8002A14E62F0130A436A30CA20CA10C890B1D
:100FD800E72F0130AE02031DF22FF32FC32FF52F99
:100FE800F52F2D08A4002C08A3002B08A2002A081E
:100FF800A100FE2F080001340030A5312F258831CB
:1010080008002000B800B808031D0B280D2870142C
:101018000E2870107018112812281828E5302000A2
:10102800B9008530BA001E289C302000B9008530F0
:10103800BA001E287430A9008530AA003A08AC010D
:10104800AC073908AB01AB07863101268831701C23
:101058002E282F2838282000AA010314AA0DFF30B3
:10106800A1311D21883141282000AA010314AA0DAD
:101078000030A1311D218831412808002000D1010C
:10108800D2014E08803AFF0080307F02031D4E28AF
:1010980002304D020318512852285928FF302000E9
:1010A800CD00FF30CE002F292F29DD302000A500EC
:1010B8008530A6001430A7000030A8004F08013E74
:1010C800860087010108A7315827883120002608A3
:1010D8002504031D70287128822802304D064E040D
:1010E8000319772878287E28FF30CD00FF30CE00FE
:1010F8002F292F29A431C12488312729BC30200069
:10110800A5008530A6001430A7000030A8004F08BD
:10111800013E860087010108A73158278831200041
:1011280026082504031D99289A28BC2803304D0653
:101138004E040319A028A128A728FF30CD00FF30AE
:10114800CE002F292F294E08C301C3074D08C2011D
:10115800C2074F08D0005008C4009A31F6228831DF
:1011680020004308D201D2074208D101D10727291C
:10117800AB30A5008530A6001430A7000030A800C9
:101188004F08013E860087010108A731582788319A
:10119800200026082504031DD228D328F52803306B
:1011A8004D064E040319D928DA28E028FF30CD006F
:1011B800FF30CE002F292F294E08C301C3074D0841
:1011C800C201C2074F08D0005008C400923109225A
:1011D800883120004308D201D2074208D101D10743
:1011E8002729C130A5008530A6001430A70000309B
:1011F800A8004F08013E860087010108A73158273B
:101208008831200026082504031D0B290C291D29D7
:1012180002304D064E040319122913291929FF30EB
:10122800CD00FF30CE002F292F299831F7208831A3
:101238002729FF302000CD00FF30CE002F292F298D
:1012480027292729272920005208CE01CE0751082F
:10125800CD01CD072F2908002000B1002B08AD00D3
:101268002D08B0002B08860087010030C03F0030F1
:10127800C13F0030C23F0030C33FB2010D2A3008E1
:10128800023E86008701043081354131810D7F316E
:10129800890B4829300886008701403FAD00413F4F
:1012A800AE000C30AE36AD0C890B56293008023E24
:1012B800860087012D08810441312E0881043008F9
:1012C80086008701043081354131810D7F31890BDA
:1012D800672932083107AD002D08860001308700E4
:1012E80030300102031C79297A299E2932083107F6
:1012F800AD002D088600013087003A30010203183E
:10130800862987299E2932083107AD002D088600D5
:10131800013087000108D03EAE00FF3003180030CE
:10132800AF003008860087012E08810441312F085C
:101338008104082A32083107AD002D0886000130E3
:10134800870041300102031CAA29AB29CF293208A2
:101358003107AD002D0886000130870047300102B3
:101368000318B729B829CF2932083107AD002D084D
:101378008600013087000108C93EAE00FF3003181F
:101388000030AF003008860087012E088104413103
:101398002F088104082A32083107AD002D0886007D
:1013A8000130870061300102031CDB29DC29002A97
:1013B80032083107AD002D088600013087006730FC
:1013C80001020318E829E929002A32083107AD008B
:1013D8002D088600013087000108A93EAE00FF30C5
:1013E80003180030AF003008860087012E088104FA
:1013F80041312F088104082AFF30AB00FF30AC00D0
:10140800232A232A082A082A0130AD002D08B2070A
:101418000D2A3108A4315D24893120003208AD003D
:10142800AE0122082E02031D1B2A21082D02031CCF
:101438001E2A1F2A4329202AAB01AC01232A0800AF
:101448001030A5312F258A31003A03192C2A2D2A6C
:101458003C2AE0302000A9008330AA00863101260A
:101468008A3101302000B8000030B900222B222B2D
:1014780006302000BA003A08BB00BC010230BA00AE
:101488003A08A8003B30983197208A31003A03196E
:101498004E2A4F2A5E2A46302000A9008330AA002F
:1014A800863101268A31FF302000B800FF30B900AC
:1014B800222B222B2000C0010430BA003A08C100B8
:1014C800832A01302000BA003A08C0070A304002D7
:1014D800031C6F2A702A7E2ABC30A9008330AA0018
:1014E800863101268A31FF302000B800FF30B9006C
:1014F800222B222B2130BA00BA0B802A832A4130B2
:101508002000BA003A08AA003B3093314D238A31B3
:101518000038031D902A912A652A922A2000410842
:10152800013A0319982A992AA72A0330A900843076
:10153800AA00863101268A31FF302000B800FF302A
:10154800B900222B222B3B08BA003A08BF000E3004
:10155800BA003A08BB003F08BA003A08BC0002309B
:10156800BA003A08A8003B30983197208A31003AEF
:101578000319BF2AC02ACF2A31302000A90083309E
:10158800AA00863101268A31FF302000B800FF30DA
:10159800B900222B222B2000C0010430BA003A08DF
:1015A800C100F42A01302000BA003A08C0070A3006
:1015B8004002031CE02AE12AEF2AA230A900823067
:1015C800AA00863101268A31FF302000B800FF309A
:1015D800B900222B222B2130BA00BA0BF12AF42AA7
:1015E80041302000BA003A08AA003B3093314D231D
:1015F8008A310038031D012B022BD62A032B200029
:101608004108013A031D092B0A2B112B3B083F0601
:1016180003190F2B102B1F2B112BCE30A900833051
:10162800AA00863101268A31FF302000B800FF3039
:10163800B900222B222BB801B901222B0800200067
:10164800E2006208A4315D248B3120002208E10108
:10165800E1072108E001E007DA01DB01412B60081E
:10166800FF3E6207D50055088600013087008101DA
:101678000130E0020030E13B412B610860040319AE
:10168800462B472BC42B6008FF3E6207D500550840
:101698008600013087000108203A0319542B552B86
:1016A800332B6008FF3E6207D500550886000130DD
:1016B80087000108093A0319622B632B332BC42BCB
:1016C800C42BC42B712B620886000130870081016E
:1016D8000130D5005508E207712B620886000130F9
:1016E80087000108203A03197A2B7B2B672B6208A5
:1016F8008600013087000108093A0319842B852BDD
:10170800672B862B62088600013087000108003AA3
:1017180003198F2B902BA32B6208D5005A085C3E27
:1017280086008701550881000130DA070030DB3D6B
:10173800A32BA32B0130D5005508E207A32B620881
:101748008600013087000108003A0319AC2BAD2B45
:10175800C42B62088600013087000108203A03196B
:10176800B62BB72BC42B620886000130870001080E
:10177800093A031DC02BC12B9E2BC42BC42BC42B91
:1017880062088600013087008108031DCC2BCD2B11
:10179800712BCE2B5C08A7310A278B3120002D082E
:1017A800D901D9072C08D801D807D91BDC2BDD2B88
:1017B800402C032C032C4C2C9330A9008430AA0015
:1017C800863101268B314C2C23302000A90085302E
:1017D800AA00863101268B314C2C25302000A90027
:1017E8008430AA00863101268B314C2C76302000BB
:1017F800A9008430AA00863101268B314C2C09308F
:101808002000D5005508A1005808A131DD218B31F1
:10181800083E093E840082300318013E8500000816
:101828002000D6005608D7005B08CE01CE075A081C
:10183800CD01CD075C30D5005508CF005708813160
:1018480000218B3120004E08003A03192F2CFF3A53
:101858000319342CFA2B4D08003A03194C2CFA2B97
:101868004D08FD3A0319F12B033A0319E82B013A05
:101878000319E02BFA2B4C2C1B30A9008330AA004B
:101888005C08AB000130AC00863101268B314C2C52
:101898000800C92D01302000B8003808ED070330D2
:1018A8006D02031C582C592C5B2CED015B2C6D0828
:1018B800A3311D238C3192302000A9008530AA0065
:1018C800863101268C318D2CD0302000A90085303E
:1018D800AA00863101268C319A2CEA302000A90012
:1018E8008530AA00863101268C319A2CE9302000F7
:1018F800A9008530AA00863101268C319A2C4D30FA
:101908002000A9008530AA00863101268C319A2C46
:101918009A2CA231A2228C31003A0319682C013A80
:101928000319712C033A03197A2C832C2F302000C9
:10193800A9008330AA00863101268C31D42D0130CC
:101948002000B8003808EC0703306C02031CAD2CEB
:10195800AE2CB02CEC01B02C6C08A33141238C3197
:10196800B1302000A9008530AA00863101268C31CB
:10197800E22CD0302000A9008530AA00863101264B
:101988008C31EF2CF8302000A9008530AA00863170
:1019980001268C31EF2CCB302000A9008530AA001D
:1019A800863101268C31EF2C4D302000A90085307E
:1019B800AA00863101268C31EF2CEF2CA231C022EF
:1019C8008C31003A0319BD2C013A0319CF2C033A84
:1019D8000319C62CD82C2F302000A9008330AA0068
:1019E800863101268C31D42D01302000B80038080A
:1019F8002100B70702303702031C032D042D062DE2
:101A0800B701062D3708A1313B218C31A031532075
:101A18008C310038031D112D122D182DF1302000A6
:101A2800B9008530BA001E2DFE302000B90085307F
:101A3800BA001E2DEB30A9008430AA003A08AC0188
:101A4800AC073908AB01AB07863101268C31D42DA0
:101A580001302000B80038082100B40702303402F1
:101A6800031C372D382D3A2DB4013A2D3408A131F5
:101A78004C218C31A03158208C310038031D452D64
:101A8800462D4C2DF1302000BB008530BC00522D76
:101A9800FE302000BB008530BC00522D0230A9006A
:101AA8008530AA003C08AC01AC073B08AB01AB078A
:101AB800863101268C31D42D01302000B800380839
:101AC8002100B80702303802031C6B2D6C2D6E2DD7
:101AD800B8016E2D3808A1315D218C31A0315D200F
:101AE8008C310038031D792D7A2D802DF13020009E
:101AF800BD008530BE00862DFE302000BD0085303B
:101B0800BE00862D1830A9008530AA003E08AC0119
:101B1800AC073D08AB01AB07863101268C31D42DCB
:101B280001302000B80038082100B9070230390216
:101B3800031C9F2DA02DA22DB901A22D3908A1317A
:101B480082218C31A03162208C310038031DAD2DEB
:101B5800AE2DB42DF1302000BF008530C000BA2D65
:101B6800FE302000BF008530C000BA2D6B30A900C0
:101B78008530AA004008AC01AC073F08AB01AB07B1
:101B8800863101268C31D42DD42D2000680884009C
:101B9800063004020318D42DA0310435183E820003
:101BA80008002000C8010D080239BE003E08C80020
:101BB80000306E18013048060319E32DE42DEE2D90
:101BC8004808A3318C238D3120006E10481CED2D60
:101BD8006E14EE2D20000D08BE003E08C600460813
:101BE800210036062000BE003E08C8004608BE0098
:101BF8003E082100B6002000481C032E042E142E97
:101C08002030A9000130AA000030AE000030AD003D
:101C18001830AC006A30AB00993158218D31142E40
:101C28002000C81E182E192E292E2930A90001308F
:101C3800AA000030AE000030AD001830AC006A30A9
:101C4800AB00993158218D31292E2000C80102306E
:101C58004802031C302E312E332ED82ED82E0930B0
:101C6800BE003E08A1004808A131DD218D31203E8B
:101C78002000A9000130AA009B3169238D31003A68
:101C88000319472E482ECD2E09302000BE003E08ED
:101C9800A1004808A131DD218D31073E203E860094
:101CA8000130870001088600870101082000BF0075
:101CB8003F08C7000130BE000930BF003F08A1003F
:101CC8004808A131DD218D31063E203E86000130D5
:101CD8008700010C0739890A2000732EBE35890B4D
:101CE800722E3E08C0004008C7050930BE003E08F5
:101CF800A1004808A131DD218D31063E203E860035
:101D080001308700010801392000470603198D2E8C
:101D18008E2EBC2E0930BE003E08A1004808A13115
:101D2800DD218D31083E203E860001308700010804
:101D38002000BF003F08C4004708BE003E08BC00A2
:101D48004408813100218D3109302000BE003E0851
:101D5800A1004808A131DD218D31063E203E8600D4
:101D680001308700200047080110031D0114BC2E14
:101D78000930BE003E08A1004808A131DD218D319F
:101D8800203E2000A5000130A600A23113228D318B
:101D9800CD2E01302000BE003E08C80702304802A0
:101DA800031CD72ED82E332EC80106304802031C38
:101DB800DE2EDF2EE12EF02FF02F0A30BE003E0877
:101DC800A1004808A131DD218D31A03E2000A900E5
:101DD8000130AA009B3169238D31003A0319F52E91
:101DE800F62EE42F01302000BE000A30BF003F0865
:101DF800A1004808A131DD218D31073EA03E8600B3
:101E08000130870001080739890A20000C2FBE35E8
:101E1800890B0B2F3E08C0004008C5000A30BE00E1
:101E28003E08A1004808A131DD218D31A03E2000E7
:101E3800A9000130AA000030AE000030AD003D30EE
:101E4800AC000930AB00993158218D310A3020009F
:101E5800BE003E08A1004808A131DD218D31063EB3
:101E6800A03E8600013087000108200045050319BF
:101E78003E2F3F2F712F0130BE000A30BF003F08B0
:101E8800A1004808A131DD218D31073EA03E860022
:101E980001308700010E0739890A2000542FBE350A
:101EA800890B532F3E08C0000A30C1004108A10029
:101EB8004808A131DD218D31083EA03E8600013061
:101EC8008700403F2000C200413FC300420886000F
:101ED8004308870040088104A32F0130BE000A3060
:101EE800BF003F08A1004808A131DD218D31073E20
:101EF800A03E860001308700010E0739890A2000BC
:101F0800862FBE35890B852F3E08FF3AC0000A3060
:101F1800C1004108A1004808A131DD218D31083EEA
:101F2800A03E860001308700403F2000C200413FAC
:101F3800C3004208860043088700400881050A302C
:101F4800BE003E08A1004808A131DD218D31073EC1
:101F5800A03E860001308700010807392000BF0035
:101F6800BF0A01083F06F8393F0681000108073912
:101F78000038031DC02FC12FE42F0A30BE003E08D1
:101F8800A1004808A131DD218D31073EA03E860021
:101F9800013087008119D12FD22FE42F0A30200079
:101FA800BE003E08A1004808A131DD218D31063E62
:101FB800A03E8600013087008101E42FE42FE42F42
:101FC80001302000BE003E08C80706304802031C46
:101FD800EE2FEF2FE12EF02F21004608031DF52FDD
:101FE800F82F22008E14FF2FFD302000BE003E087F
:081FF80022008E05FF2F0800F6
:10200200F001F101EE01E801E901EA01EB01EC0165
:10201200ED01A0308400003085002730A0318420FB
:102022009031DC308400013085001430A0318420EE
:1020320090318731FF279031EF00C5308400A13005
:102042008500C7308600003087001830A0317E201E
:1020520090312F308400A23085002030860001307C
:1020620087001C30A0317E209031A5308400A5303D
:102072008500A0308600013087003C30A0317E20F0
:10208200903120009231A92AF1194828492877284D
:10209200BA302000A9000030AA009B316923903198
:1020A200003A0319552856287728BA302000A9008B
:1020B2000030AA000030AE000030AD003030AC007D
:1020C200D430AB00993158219031F012F1155430CF
:1020D20020009B007D309C002A30250091001F309B
:1020E200930020009110210091147728701A7A2809
:1020F2007C2801307D2800302000BB007019822826
:1021020084280130852800303B06031989288A2853
:102112009D28CC30A9000030AA000030AE0000306B
:10212200AD009230AC007C30AB0099315821903137
:102132007012701D9D287016CC302000A90000304E
:10214200AA009B3169239031003A0319A928AA28D1
:10215200D128CC302000A5000030A600A2311322E5
:102162009031F019B528B7280130B8280030200086
:10217200BB007019BD28BF280130C02800303B06C3
:102182000319C428C528D128F011701DC928F015DB
:102192000030F0190130883105209031D128D12842
:1021A20008002000C301F02809298C314D24903108
:1021B2002000C3010314C30D09299A31232290314F
:1021C2002000C3010314C30D09298131FE2190317E
:1021D2002000C3010314C30D09290929092921007B
:1021E200330803392000C100C2014208003A031932
:1021F200FB2809294108003A03190929013A031960
:10220200D628033A0319DE28013A0319E6280929D8
:102212002100B301D2302000A9000030AA009B3176
:1022220069239031003A031917291829632944298F
:1022320044292000AA010530A1312C219031A73177
:10224200AB2790312000C3010314C30D5A29AA0100
:102252000530A1312C2190318131FD2190312000B6
:10226200C3010314C30D5A29AA010530A1312C213F
:102272009031A231FD2290312000C3010314C30D1D
:102282005A295A295A292100320803392000C1004B
:10229200C2014208003A03194F295A294108013A5A
:1022A20003191A29033A03192829013A031935296E
:1022B2005A29F114D230A5000030A600A23113220F
:1022C2009031632920004308031D68296C2981315C
:1022D200252190316C2908002000BF000830B80089
:1022E2003808BA003F08B8003808BB000230B8000E
:1022F2003808A8003A30983197209131003A0319F2
:10230200832984298E29BE302000A9008230AA00A8
:10231200863101269131082A082A2000BE010430A4
:10232200B8003808C000AF2901302000B8003808D2
:10233200BE070A303E02031C9F29A029A9290530A5
:10234200A9008330AA00863101269131082A082A81
:1023520021302000B800B80BAC29AF294030200052
:10236200B8003808AA003A3093314D239131003831
:10237200031DBC29BD299529BE2920004008043A25
:102382000319C429C529D3294008031DC929082ACC
:102392006730A9008430AA00863101269131082ACB
:1023A200082A082ADF302000A9008430AA003F084A
:1023B200B800B9013808AB003908AC0086310126F3
:1023C2009131F92901302000C002A530A9008530E1
:1023D200AA0040083A3E860087010108B800B90108
:1023E2003808AB003908AC00863101269131F92951
:1023F2002000C008031DFE29FF29E329002A2F30EF
:10240200A9008330AA00863101269131082A0800EA
:1024120049302000C5004508AB004408023E860052
:102422008701010889313021923120002C082B04C8
:1024320003191C2A1D2A232AFF30C200FF30C300C1
:10244200A82AA82A00304C02031D312A00304B0270
:10245200031D312A01304A02031D312A003049028C
:10246200031C342A352A3B2AFF30C200FF30C30046
:10247200A82AA82A4908C5004508C6004930C5004F
:102482004508AB004408033E8600870101088931F4
:102492003021923120002C082B040319512A522A90
:1024A200582AFF30C200FF30C300A82AA82A8A3166
:1024B2002422923120003908C801C8073808C70110
:1024C200C7074808803AFF0080307F02031D6B2A4D
:1024D20001304702031C6E2A6F2A762AFE30200042
:1024E200C200FF30C300A82AA82A200048084704D7
:1024F200031D7C2A7D2A862A4930C5004508B8007A
:102502004608A63170269231862A200048084704E0
:10251200031D8C2A8D2A922A460891316D2192310F
:10252200922A20004808803AFF0080307F02031D73
:102532009C2A0130470203189F2AA02AA42A883124
:1025420000209231A42A2000C201C301A82A080057
:102552008031532092312000E6006608E700003007
:10256200B2000030B1004B30B0000030AF00B30118
:102572009331F32392316F302000A9008330AA00F7
:1025820086310126923121009618C82AC92AD42AF6
:1025920057302000A9008430AA00863101269231EA
:1025A2002000E717082B1618D72AD82AE32A363034
:1025B2002000A9008430AA00863101269231200031
:1025C200E717082B2000201AE72AE82AF02A4730CA
:1025D200A9008430AA00863101269231082BA01965
:1025E200F32AF42AFC2A8330A9008330AA00863118
:1025F20001269231082B2E302000A9008530AA0036
:10260200863101269231082B082B082B082B21003A
:10261200961416142000671C0F2B102B182BA930B0
:10262200A9008330AA00863101269231182B20009E
:10263200E71C1C2B1D2B252B9630A9008330AA00EA
:10264200863101269231252BA031A3209231A0316F
:10265200BA209231A031F0209231A331B3239231CA
:10266200A0319A209231A031C6209231A03191201E
:1026720092313B2B90314520923197312427923170
:102682008D31D52592319031D2209231A231DE2284
:1026920092313B2B80314E282000AF00B001B201B5
:1026A200B101A0316C209331A030A1316E21933160
:1026B2000038031D5D2B5E2B632B2000B001031439
:1026C200B00DEC2B0130A1316E2193310038031D86
:1026D2006B2B6C2B722B02302000AB002B08B0004E
:1026E200EC2BA03178209331A130A1316E219331AE
:1026F2000038031D7D2B7E2B842B02302000AB0083
:102702002B08B000EC2B2000A7010314A70D3230D8
:10271200A331DB2393312000B208031D912B922BAE
:10272200942BE22BE22B3208FF3A031D992B9A2BB2
:102732009F2B0330AB002B08B000E22B2A08860047
:102742008701320801020318A72BA82BD32B2A08D2
:10275200860087010108AB002B08B200D32BD32BD4
:102762003108013EAB00003003180130AC002C08E8
:10277200803AAD0080302D02031DC12B32082B029E
:102782000030031C01302000AE002E08A7002F08E5
:102792003107A331DB23933101302000AB002B083A
:1027A200B107D32B32083102031CD82BD92BB12B02
:1027B200DA2B3108AB002A08860087012B0881003A
:1027C200EC2B2A08860087018101A7010030A33182
:1027D200DB239331EC2BA03172209331200030089F
:1027E200F22B0800F8302100A805C730A805200008
:1027F200330821002813031D2817A81723009F154B
:102802009F1D042C052C502C20002F08B4003008EA
:10281200B5003108B6003208B7000130B435B50D45
:10282200B60DB70D890B0F2C3708A4003608A3008C
:102832003508A2003408A10080302F07A50084309B
:10284200303DA6001E30313DA7000030323DA800C9
:1028520087319C279331FF3020002107C000FF30D1
:10286200223DC100FF30233DC200FF30243DC300A2
:10287200400823009B0020004008B4004108B50036
:102882004208B6004308B7000830B736B60CB50C9C
:10289200B40C890B462C340823009C00A32C103066
:1028A2002000B4000030B5000030B6000030B700A0
:1028B2002F08B8003008B9003108BA003208BB004E
:1028C2000130B835B90DBA0DBB0D890B622C3B082E
:1028D200A4003A08A3003908A2003808A100003079
:1028E2002F07A5001230303DA6007A30313DA700F7
:1028F2000030323DA80087319C2793312000210807
:10290200BC002208BD002308BE002408BF0001301D
:10291200BC35BD0DBE0DBF0D890B892C3C08B4071B
:102922003D08B53D3E08B63D3F08B73D0530B736D8
:10293200B60CB50CB40C890B982C3408FF3E23005E
:102942009B00A32C9E171E151E129D17210091128B
:10295200111223001D131E131D121D169E129E1608
:1029620021009116281FB62CB72CBD2C1130230044
:102972009A002100A817BD2C080020004E08803ABA
:10298200FF0080307F02031DC82C03304D02031C60
:10299200CB2CCC2CD32CFF302000CD00FF30CE002E
:1029A200892D892D20004E08803AFF0080307F0259
:1029B200031DDD2C02304D02031CE02CE12C422DC4
:1029C200D0302000A5008530A6001430A7000030CA
:1029D200A8004F08013E860087010108A731582749
:1029E2009431200026082504031DF82CF92CFE2C16
:1029F2000030A3311D239431422DEA302000A5007E
:102A02008530A6001430A7000030A8004F08013E10
:102A1200860087010108A731582794312000260833
:102A22002504031D152D162D1B2D0130A3311D2349
:102A32009431422DE9302000A5008530A6001430E3
:102A4200A7000030A8004F08013E86008701010858
:102A5200A73158279431200026082504031D322D62
:102A6200332D382D0230A3311D239431422DFF30F6
:102A72002000CD00FF30CE00892D892D422D422D20
:102A8200422D92302000A9008530AA00863101260D
:102A92009431702DD0302000A9008530AA008631F3
:102AA200012694317D2DEA302000A9008530AA004C
:102AB2008631012694317D2DE9302000A900853030
:102AC200AA008631012694317D2D32302000A900E2
:102AD2000130AA008631012694317D2D7D2DA2314F
:102AE200A2229431003A03194B2D013A0319542DB5
:102AF200033A03195D2D662D2F302000A900833083
:102B0200AA008631012694312000CD01CE01892D03
:102B1200080020004E08803AFF0080307F02031D2B
:102B2200942D03304D02031C972D982D9F2DFF30BD
:102B32002000CD00FF30CE00552E552E20004E082D
:102B4200803AFF0080307F02031DA92D02304D0222
:102B5200031CAC2DAD2D0E2ED0302000A5008530EB
:102B6200A6001430A7000030A8004F08013E8600DE
:102B720087010108A731582795312000260825042E
:102B8200031DC42DC52DCA2D0030A331412395311B
:102B92000E2EF8302000A5008530A6001430A700C4
:102BA2000030A8004F08013E860087010108A731C6
:102BB20058279531200026082504031DE12DE22D1A
:102BC200E72D0230A331412395310E2ECB30200068
:102BD200A5008530A6001430A7000030A8004F08D9
:102BE200013E860087010108A73158279531200050
:102BF20026082504031DFE2DFF2D042E0130A331CE
:102C0200412395310E2EFF302000CD00FF30CE0043
:102C1200552E552E0E2E0E2E0E2EB1302000A9004E
:102C22008530AA008631012695313C2ED030200015
:102C3200A9008530AA00863101269531492EF83047
:102C42002000A9008530AA00863101269531492E3F
:102C5200CB302000A9008530AA00863101269531AB
:102C6200492E32302000A9000130AA008631012607
:102C72009531492E492EA231C0229531003A0319CD
:102C8200172E013A0319292E033A0319202E322E48
:102C92002F302000A9008330AA0086310126953109
:102CA2002000CD01CE01552E080023009D1C5A2E76
:102CB2005B2E6C2E1908F200210028080739A03E6D
:102CC200860087017208810023009E129E161D1243
:102CD2001D16232F232F1D1D6F2E702E7F2E1908D8
:102CE200F200210028080739A03E860087017208F9
:102CF200810023009E129E16232F232F1908F20013
:102D0200210028080739A03E860087017208810049
:102D120028080739F200F20A28087206F839720602
:102D2200A800281F952E962E052FA81F992E9A2EA1
:102D3200052F280CF200F20C720C0739F300280858
:102D42000739F400730874020318A82EA92EC42EA2
:102D520028080739F200F301F209F309F20A03190C
:102D6200F30A280CF400F40C740C07397207F5000E
:102D720073080318730AF6007508FF3EF900FF3066
:102D8200763DFA00EA2E280CF200F20C720C07399A
:102D9200F300F401F309F409F30A0319F40A280809
:102DA20007397307F50074080318740AF6007508EA
:102DB200013EF7000030763DF800F709F809F70AFE
:102DC2000319F80A7708083EF9000030783DFA0046
:102DD200EA2E7A08803AFF0080307F02031DF32E2C
:102DE200033079020318F62EF72E052FF92EF92E4D
:102DF2002000111EFD2EFE2EF92EFF2E1330230071
:102E02009A002100A813052F2100280CF200F20CD1
:102E1200720C0739F300280807397306031D122FB5
:102E2200132F232F280CF200F20C720C0739F20038
:102E3200F20AF20DF20DF20D28087206C739720677
:102E4200A800232F0800F32FB501272FC030200040
:102E5200A9000030AA009B31692397310038031D75
:102E6200332F342F362FFF2FFF2F22000D15C030A6
:102E72002000A9000030AA000030AE000030AD00F2
:102E82000030AC007D30AB009931582197312100E0
:102E9200B5010314B50DFF2FC0302000A90000308A
:102EA200AA009B31692397310038031D592F5A2FED
:102EB2005C2FFF2FFF2F21009D1402302000BB004A
:102EC2003B082100B500FF2F9D1C682F692F6B2F37
:102ED200FF2FFF2F1C08AE01AE071B08AD01AD0787
:102EE200701B742F752F802FF01B782F792F802F56
:102EF200FB302000BB003B0822008D05802F0130F3
:102F020021002E02E73003192D020318892F8A2F80
:102F1200A22F20006A08031D8F2FC02F0130EA0262
:102F2200031D942F952FC02FF01C982F992FC02F7F
:102F3200F0100030F0180130A4318C249731C02FEA
:102F4200C02F083020006A020318A82FA92FC02F13
:102F52000130BB003B08EA0708306A02031CB22FAB
:102F6200B32FC02FF018B62FB72FC02FF014003098
:102F7200F0180130A4318C249731C02FC02F2100CA
:102F820030082E06031DC72F2F082D060319CA2F3E
:102F9200CB2FDF2F2E082000A201A20721002D082F
:102FA2002000A101A1078131FF21973121002E08C4
:102FB200B001B0072D08AF01AF07DF2FC0302000EE
:102FC200A9000030AA000030AE000030AD007A3017
:102FD200AC001230AB009931582197312100B50174
:102FE200FF2FFF2F21003508003A0319272F013A3E
:0E2FF20003194D2F033A0319652F252F0800F0
:1030020020004E08803AFF0080307F02031D0B280B
:1030120002304D02031C0E280F281628FF30200014
:10302200CD00FF30CE0037283728711919281A2809
:103032002028F5302000D0008530D1002628E1304C
:103042002000D0008530D10026288530A9008430A8
:10305200AA005108AC01AC075008AB01AB0786319E
:10306200012698312000CD01CE013728080020002A
:10307200D301D4014E08803AFF0080307F02031D45
:10308200442802304D02031C472848284F28FF30AD
:103092002000CD00FF30CE00962896281430200064
:1030A200A9008430AA008631012698317B28093094
:1030B2002000D0005008A1005308A131DD21983131
:1030C200093E2000D10082300318890AD200F33071
:1030D200A9008430AA005208AC01AC075108AB0128
:1030E200AB0786310126983101302000D30700302A
:1030F200D43D7B2809302000D0005008A10053089D
:10310200A131DD219831083E093E84008230031846
:10311200013E850000080038031D90289128582898
:1031220092282000CD01CE01962808002000AA0096
:10313200AB01AC01A0316C209831A030A1316E21DD
:1031420098310038031DA628A728AC282000AB011F
:103152000314AB0DF0280130A1316E2198310038F3
:10316200031DB428B528BB2802302000A900290875
:10317200AB00F02820002808A1316E2198310038D8
:10318200031DC428C528E72802302000A900290809
:10319200AB00F028E7282C082A07A9002908860096
:1031A20087010108A1316E2198310038031DDA2808
:1031B200DB28E12802302000A9002908AB00F02812
:1031C20001302000A9002908AC07E72820002808C0
:1031D2002C02031CED28EE28CC28F028F028A03180
:1031E2007220983120002B08F62808008A31242208
:1031F200983120003908C501C5073808C401C40741
:103202004508803AFF0080307F02031D0A29013001
:103212004402031C0D290E29102957295729200081
:1032220045084404031D1629172945299D314E25B9
:1032320098312000C601C7014708803AFF0081305B
:103242007F02031D262900304602031C29292A2950
:103252002C29452945292000460891316D219831B4
:1032620001302000C6070030C73D4708803AFF0002
:1032720081307F02031D3F2900304602031C422990
:1032820043292C294529452920004508803AFF0079
:1032920080307F02031D4F29013044020318522956
:1032A20053295729883100209831572908002000D6
:1032B2002A08B801B8072908B701B7072A08A201E6
:1032C200A2072908A101A107A631282699312000C9
:1032D2002E082D042C042B04031D70297129732937
:1032E200BC29BC293708860038088700403FB30054
:1032F200413FB400423FB500433FB6003708860065
:10330200380887002B08810741312C08813D413163
:103312002D08813D41312E08813D3708860038084D
:103322008700403FAF00413FB000423FB100433F02
:10333200B20032083602031DA82931083502031DE6
:10334200A82930083402031DA8292F083302031CC0
:10335200AB29AC29BC293708043EAF000030383D08
:10336200B0002F0886003008870001308107413104
:103372000318810ABC2908002000BB0069083B052C
:103382000030031D01303906031DC829C929CB2984
:10339200222A222A3908031DCF29F4297118D22999
:1033A200D329D829AA010130A1312C219931D23057
:1033B2002000A9000030AA000030AE000330AD00AA
:1033C200D030AC009030AB00993158219931F110D6
:1033D20020003B08BA003A08E9043B08BA003A0860
:1033E2002100B2041A2AD2302000A5000030A60023
:1033F200A2311322993120003B09BA003A08E905AB
:10340200E908031D052A062A1A2A7118092A0A2A16
:10341200162AF1180D2A0E2A162A21003208200037
:10342200BA003A082100B300162A2100B2011A2A72
:103432001A2A711C1D2A1E2A222A8131252199311C
:10344200222A080001302000B8003808E8070630B8
:103452006802031C2D2A2E2A302AE801302A680825
:10346200053A003003190130A0318A209A318430A4
:103472002000A9008530AA00863101269A31782AD7
:10348200B7302000A9008530AA00863101269A3182
:10349200832AD5302000A9008530AA008631012672
:1034A2009A31832A8B302000A9008530AA00863108
:1034B20001269A31832A99302000A9008530AA007A
:1034C200863101269A31832A9F302000A900853057
:1034D200AA00863101269A31832AD9302000A90018
:1034E2008530AA00863101269A31832A832A200058
:1034F20068088400063004020318832AA0310435C8
:103502000C3E82002F302000A9008330AA008631B1
:1035120001269A3108002000A300A4012100911283
:10352200280C2000A100A10C210C0739A2002100C7
:1035320028080739200022060319A02AA12AF02A06
:103542002100280C2000A100A10C210C0739A03E6B
:10355200860087010108A20023088600870122084D
:1035620081002100280C2000A100A10C210C0739A8
:10357200A100A10AA10DA10DA10D21002808200082
:103582002106C73921062100A800281FC92ACA2AF4
:10359200EB2AA81BCD2ACE2AEB2A280C2000A10058
:1035A200A10C210C0739A2002100280807392000AC
:1035B2002206031DDD2ADE2AEB2AE02AE02A111E5A
:1035C200E32AE42AE02AE52A113023009A002100A6
:1035D200A817EB2A2000A4010314A40DF02A21004D
:1035E200911620002408F52A080048302000C50062
:1035F2004508AB004408023E860087010108893174
:1036020030219A3120002C082B040319092B0A2B94
:10361200102BFF30C200FF30C300682B682B003034
:103622004B02031D1E2B00304A02031D1E2B0130CC
:103632004902031D1E2B00304802031C212B222BA2
:10364200282BFF30C200FF30C300682B682B8A3161
:1036520024229A3120003908C701C7073808C60159
:10366200C6074708803AFF0080307F02031D3B2BCC
:1036720001304602031C3E2B3F2B462BFE3020001E
:10368200C200FF30C300682B682B200047084604A5
:10369200031D4C2B4D2B522B480891316D219A3131
:1036A200522B20004708803AFF0080307F02031D22
:1036B2005C2B0130460203185F2B602B642B883190
:1036C20000209A31642B2000C201C301682B08003C
:1036D20031302000A1000030A200A63128269B3103
:1036E20020002908023EAB0000302A3DAC002B0826
:1036F20086002C088700403FAD00413FAE00423FAC
:10370200AF00433FB00030083606031D922B2F084E
:103712003506031D922B2E083406031D922B2D080D
:103722003306031D952B962BB02B290886002A08F9
:103732008700403FAB00413FAC002C083202031D22
:10374200A42B2B083102031CA72BA82BAC2B013076
:10375200DC2BDC2BDC2B0030DC2BDC2BDC2B2908DC
:10376200023EAB0000302A3DAC002B0886002C083C
:103772008700403FAD00413FAE00423FAF00433FB4
:10378200B00036083002031DD02B35082F02031D6E
:10379200D02B34082E02031DD02B33082D02031820
:1037A200D32BD42BD82B0130DC2BDC2BDC2B0030A1
:1037B200DC2BDC2BDC2B08002000A9002608031DD3
:1037C200E32B112C0A30A7002708A1002908A131F8
:1037D200DD219B31063EA03E8600013087000108B4
:1037E20020002506031DF62BF72B112C0A30A7000B
:1037F2002708A1002908A131DD219B31073EA03E07
:10380200860001308700010C2000A800A80C280CBB
:1038120001392606031D0E2C0F2C112C522C522C72
:103822000A30A7002708A1002908A131DD219B3118
:10383200A03EA131AD219B310A302000A70027080C
:10384200A1002908A131DD219B31073EA03E86005F
:1038520001308700F830810520002508A7000A30D2
:10386200A8002808A1002908A131DD219B31063ECC
:10387200A03E8600013087002000270881000A3020
:10388200A7002708A1002908A131DD219B31073EAD
:10389200A03E860001308700200026088111031D0A
:1038A2008115080020004E08803AFF0080307F0218
:1038B200031D5D2C03304D02031C602C612C682C0F
:1038C200FF302000CD00FF30CE00CC2CCC2C0230BB
:1038D20020004D064E04031D6F2C702CAC2CFE30C4
:1038E200A5008530A6001430A7000030A8004F08BC
:1038F200013E860087010108A73158279C3120002C
:1039020026082504031D862C872C8B2CEF0103141B
:10391200EF0DAC2CF130A5008530A6001430A700C5
:103922000030A8004F08013E860087010108A73138
:1039320058279C31200026082504031DA12CA22C07
:10394200A42CEF01AC2CFF30CD00FF30CE00CC2CEC
:10395200CC2CAC2CAC2CEF08031DB02CB12CB62C0B
:10396200F130D0008530D100BB2CFE30D000853044
:10397200D100BB2C6130A9008530AA005108AC01EE
:10398200AC075008AB01AB07863101269C31200001
:10399200CD01CE01CC2C08002000E40020306402CE
:1039A200031CD42CD52C042D7F3064020318DA2C8E
:1039B200DB2C042D13306B020318E02CE12CF82CC5
:1039C2006408E3006B08DC3E860001308700630870
:1039D20081000130E3006308EB076F08031DF22C3E
:1039E2004D2D6408A43130249C314D2D4D2D2000E5
:1039F2006F08031DFD2C4D2D0730A43130249C315E
:103A02004D2D4D2D4D2D200064080D3A031D0A2D1C
:103A12000B2D332D6F08031D0F2D142D0A30A431E9
:103A220030249C31142D20006B08031D192D242DE8
:103A32006B08DC3E8600013087008101DC308B316F
:103A420023239C31242D2000EB016F08031D2A2D16
:103A52004D2DFB30A9008530AA00863101269C310C
:103A62004D2D4D2D200064087F3A031D392D3A2D2E
:103A72004D2D6B08031D3E2D4D2D0130EB026F08BD
:103A8200031D442D4D2D6408A43130249C314D2D4D
:103A92004D2D4D2D4D2D4D2D08000B302000B80021
:103AA2003808BA00A8010314A80D3A3098319720BB
:103AB2009D31003A03195E2D5F2D692DD73020000C
:103AC200A9008230AA00863101269D31D72DD72D3B
:103AD2002000C2010830B8003808C3008A2D013026
:103AE2002000B8003808C2070A304202031C7A2DAF
:103AF2007B2D842D5B30A9008330AA0086310126FC
:103B02009D31D72DD72D21302000B800B80B872D3D
:103B12008A2D43302000B8003808AA003A30933189
:103B22004D239D310038031D972D982D702D992D11
:103B320020004308083A03199F2DA02DA92DAE306D
:103B4200A9008430AA00863101269D31D72DD72DB8
:103B520057302000A9008530AA00863101269D3108
:103B6200C82D01302000C302A530A9008530AA006B
:103B720043083A3E860087010108B800B9013808B7
:103B8200AB003908AC00863101269D31C82D2000DA
:103B9200C308031DCD2DCE2DB22DCF2D2F30A90060
:103BA2008330AA00863101269D31D72D08002000DE
:103BB2004E08803AFF0080307F02031DE22D033061
:103BC2004D02031CE52DE62DED2DFF302000CD002A
:103BD200FF30CE00612E612E20004E08803AFF0099
:103BE20080307F02031DF72D02304D02031CFA2D97
:103BF200FB2D3E2ED8302000A5000030A600143048
:103C0200A7000030A8004F08013E86008701010886
:103C1200A73158279D31200026082504031D122EA6
:103C2200132E182E0030A1313B219D313E2EDC3067
:103C32002000A5000030A6001430A7000030A80024
:103C42004F08013E860087010108A73158279D31A0
:103C5200200026082504031D2F2E302E352E01307C
:103C6200A1313B219D313E2EFF302000CD00FF309F
:103C7200CE00612E612E3E2E3E2EA03153209D316C
:103C82000038031D452E462E4C2ED8302000D00081
:103C92005008D100522EDC302000D0005008D10054
:103CA200522EEB30A9008430AA005108AB0000303C
:103CB200AC00863101269D312000CD01CE01612E5E
:103CC200080020004E08803AFF0080307F02031D6A
:103CD2006C2E03304D02031C6F2E702E772EFF3098
:103CE2002000CD00FF30CE00EB2EEB2E20004E0840
:103CF200803AFF0080307F02031D812E02304D0288
:103D0200031C842E852EC82ED8302000A50000303A
:103D1200A6001430A7000030A8004F08013E86001C
:103D220087010108A73158279E3120002608250463
:103D3200031D9C2E9D2EA22E0030A13182219E3188
:103D4200C82EDC302000A5000030A6001430A700E9
:103D52000030A8004F08013E860087010108A73104
:103D620058279E31200026082504031DB92EBA2E9D
:103D7200BF2E0130A13182219E31C82EFF3020009A
:103D8200CD00FF30CE00EB2EEB2EC82EC82EA03178
:103D920062209E310038031DCF2ED02ED62ED83071
:103DA2002000D0005008D100DC2EDC302000D000F2
:103DB2005008D100DC2E6B30A9008530AA005108D2
:103DC200AB000030AC00863101269E312000CD01CF
:103DD200CE01EB2E080020004E08803AFF00803012
:103DE2007F02031DF62E03304D02031CF92EFA2E1C
:103DF200012FFF302000CD00FF30CE00752F752F30
:103E020020004E08803AFF0080307F02031D0B2FF6
:103E120002304D02031C0E2F0F2F522FD8302000DC
:103E2200A5000030A6001430A7000030A8004F08FB
:103E3200013E860087010108A73158279E312000E4
:103E420026082504031D262F272F2C2F0030A131F1
:103E52004C219E31522FDC302000A5000030A600FC
:103E62001430A7000030A8004F08013E86008701E9
:103E72000108A73158279E31200026082504031D7A
:103E8200432F442F492F0130A1314C219E31522F13
:103E9200FF302000CD00FF30CE00752F752F522F3E
:103EA200522FA03158209E310038031D592F5A2F0E
:103EB200602FD8302000D0005008D100662FDC30AF
:103EC2002000D0005008D100662F0230A9008530B2
:103ED200AA005108AB000030AC00863101269E31A9
:103EE2002000CD01CE01752F080020004E08803A37
:103EF200FF0080307F02031D802F03304D02031C20
:103F0200832F842F8B2FFF302000CD00FF30CE0077
:103F1200FF2FFF2F20004E08803AFF0080307F02E3
:103F2200031D952F02304D02031C982F992FDC2F71
:103F3200D8302000A5000030A6001430A7000030C1
:103F4200A8004F08013E860087010108A7315827C3
:103F52009F31200026082504031DB02FB12FB62F54
:103F62000030A1315D219F31DC2FDC302000A50023
:103F72000030A6001430A7000030A8004F08013E10
:103F8200860087010108A73158279F3120002608A3
:103F92002504031DCD2FCE2FD32F0130A1315D215A
:103FA2009F31DC2FFF302000CD00FF30CE00FF2FED
:103FB200FF2FDC2FDC2FA0315D209F310038031D45
:103FC200E32FE42FEA2FD8302000D0005008D10090
:103FD200F02FDC302000D0005008D100F02F183034
:103FE200A9008530AA005108AB000030AC00863130
:103FF20001269F312000CD01CE01FF2F0800813123
:1040020026298131412981315C2981317929813106
:1040120094298131B1299A31412A9A314A2A9A3115
:10402200532A9A315C2A9A31652A9A316E2A8C3146
:104032004E2C8C31A32C8C31F82C8D312C2D8D31C2
:06404200602D8D31942D6C
:1040A60022000F0808395728080022000F08023995
:1040B6005C28080022000F08043961280800003037
:1040C600701B0130662808000030F01801306B289C
:1040D6000800A4310424A031240016140800A431D9
:1040E6000424A031240016150800A4310424A031AC
:1040F600240096140800FE0012001E00FE0B7F2806
:104106000034640080010131890B852800342000C9
:10411600A100F013211C9028F017080020000D08BC
:10412600A10021082100B1000B178B170800200001
:10413600A1010314A10D0130A631BC26A03108004F
:104146002000181398139816181698111815181495
:10415600210011140800F11DB128B228B928200049
:104166000D1AB628B728B928F016B928080038302D
:104176002400950096010A30920014179417200027
:1041860091119211080020006F08031DCB28D32837
:10419600FB30A9008530AA0086310126A031D3283C
:1041A600080020003C08003A003003190130BD0029
:1041B6003D08B90002309931BD21A0310800200028
:1041C6003C08003A003003190130BD003D08B90033
:1041D60001309931BD21A0310800543020009B00E8
:1041E6007D309C002A30250091001F30930020006E
:1041F60091102100911408002000AD002D08AB009D
:104206002B08A5002A08AC002C08A60002309B311A
:10421600DD23A03108002000AD002D08AB002B08DF
:10422600A5002A08AC002C08A60003309B31DD232C
:10423600A13108002000AD002D08AB002B08A50019
:104246002A08AC002C08A60005309B31DD23A131DD
:1042560008002000AD002D08AB002B08A5002A0899
:10426600AC002C08A60001309B31DD23A1310800EB
:104276002000A2002208031D4129442922008F158F
:104286004B29F7302000A100210822008F054B2979
:1042960008002000A2002208031D522955292200E9
:1042A6008F145C29FD302000A100210822008F0513
:1042B6005C2908002000A2002208031D6329662944
:1042C60022000F156D29FB302000A10021082200D5
:1042D6008F056D2908002000A700A4310424A13110
:1042E6002000270824009100A4310424A1310310E2
:1042F6002400161F03140030093D81290800200000
:10430600A2007013221C88297017701F8B298C2914
:104316008F2922000F149629FE302000A1002108C3
:1043260022008F05962908002000A200A1013A303C
:10433600220203189F29A029AA2930302202031C31
:10434600A529A629AA29A1010314A10DAA29210C90
:10435600AC2908002000A100210886000130870052
:104366000030C03F0030C13F2108023E86000130C8
:1043760087000030C03F0030C13F0030C23F0030F0
:10438600C33F080000340134053415345534FF3476
:10439600FF34FF34FF34FF34FF34FF34FF34FF347F
:1043A600FF34FF34FF346F346634663400346F34C0
:1043B6006E3400342000A400A301E129241CE42962
:1043C600E529EA292108A2002208A307EA29031001
:1043D600A10D0310A40CA408031DF229F329E12959
:1043E600F4292308F6290800F11DFA29FB29122AC7
:1043F600F11120009B019C012500910121009110E3
:10440600200091101C1125009301FB30F200720868
:1044160022008E057011F01E112A7015122A08004E
:1044260020002508860026088700FF30C03FFF30A1
:10443600C13F2508023EA7000030263DA8002708F8
:10444600860028088700FF30C03FFF30C13FFF309D
:10445600C23FFF30C33F0800FF34FF34FF34FF3450
:10446600FF34FF3400340D342134FF34FF34FF347D
:10447600FF34FF34FF340A340D341F343C347534B2
:104486006E346B346E346F3477346E343E340034AD
:1044960020004E08803AFF0080307F02031D552A17
:1044A60002304D02031C582A592A602AFF30200088
:1044B600CD00FF30CE00672A672A8C314D24A23109
:1044C6002000CD01CE01672A080020004E08803A60
:1044D600FF0080307F02031D722A02304D02031C4A
:1044E600752A762A7D2AFF302000CD00FF30CE00C7
:1044F600842A842A9A312322A2312000CD01CE01BA
:10450600842A080020004E08803AFF0080307F028F
:10451600031D8F2A02304D02031C922A932A9A2ADF
:10452600FF302000CD00FF30CE00A12AA12AA23103
:10453600FD22A2312000CD01CE01A12A0800AA2A1F
:104546000230BF2ABF2A0130BF2ABF2ABD2A220055
:104556000F0830392000A100A2012208003A0319F1
:10456600B52ABD2A2108203A0319A32A103A0319AD
:10457600A62ABD2A0030BF2A0800C82A0230DD2A32
:10458600DD2A0130DD2ADD2ADB2A22000F08C039A8
:104596002000A100A2012208003A0319D32ADB2A2F
:1045A6002108803A0319C12A403A0319C42ADB2A92
:1045B6000030DD2A0800F22AEB2A0630A431302426
:1045C600A231F22A200065089C31CD24A231F22ABC
:1045D60020006508053A0319E02AE52AF22A653023
:1045E6009A318C22A2310038031DFA2AFB2AEB2AC3
:1045F600FC2A08000130F1067118022B032B092B47
:10460600F1302000B8008530B9000F2BFE302000B5
:10461600B8008530B9000F2B4330A9008530AA00B9
:104626003908AC01AC073808AB01AB078631012667
:10463600A23108002000A200342B212BCF30A1008C
:10464600210822008F05402B22000F168F16402BC3
:10465600EF302000A100210822008F058F16402B85
:10466600402B20002208003A0319212B013A031996
:10467600272B033A03192B2B212B08002000A2001D
:10468600582B452B3F30A100210822008F05642BB3
:10469600BF302000A100210822008F058F17642B50
:1046A60022000F178F17642B642B20002208003A74
:1046B6000319452B013A0319532B033A03194B2BC4
:1046C600452B080001302100A9070030AA3D003023
:1046D600AB3D0030AC3DFF302C02031D7C2BFF3080
:1046E6002B02031D7C2B00302A02031D7C2B00307D
:1046F6002902031C7F2B802B8B2B0030AC00003053
:10470600AB000030AA000030A900892B892B8B2B27
:1047160008002000B800B808031D922B942B7115D1
:10472600952B71117119982B992B9F2BF530200021
:10473600B9008530BA00A52BE1302000B9008530DC
:10474600BA00A52B8530A9008430AA003A08AC012E
:10475600AC073908AB01AB0786310126A331080047
:1047660002302000A1002108A200A301C12B0310E2
:10477600A20C0130A1002108A307C12B221CC42BC7
:10478600C52BBA2B21001D1420002308A100A10D62
:10479600A10D21001D0820002106833921062100D4
:1047A6009D009E1770309E041E11FC309E05080069
:1047B6002000A900A4310424A33124009615A431B5
:1047C6000424A33120002908031DEA2BF42B24001E
:1047D60011082000A8002908860087012808810002
:1047E600F42BA4310424A33120002708003A03192E
:1047F600FD2B002C24009616022C24009612161669
:104806000800FF302000A1002108A6000C2C013072
:10481600A60203102400141903140030093D2000D9
:10482600A100A2011F30240016052000A3002108C4
:104836002304A4002208A500250824040319242C17
:10484600252C2C2CA608031D292C2A2C0A2C2C2CB2
:104856002C2C240016082F2C08002000A200230070
:104866009D1B362C372C522C5C2C5C2C522C230096
:104876009D1C3E2C3F2C432C9E129E161D121D166F
:104886001D1D462C472C502C19082000A10021087C
:10489600A30023009E129E16502C6400522C20006A
:1048A600111E562C572C3A2C582C220823009A00FD
:1048B600640008002000A9002908A3002308AA0014
:1048C600652C652C2A088600013087000130AA076E
:1048D6008108031D6F2C702C652C712C2908A300F0
:1048E6000130A400A309A409A30A0319A40A2A08EB
:1048F600A5000130A60023082507A7002408263DA9
:10490600A8002708FF3EA100FF30283DA2008B2CFF
:1049160008002000BA00BA08031D922C932C982C8C
:10492600ED30B8008530B9009D2CC630B800853012
:10493600B9009D2C0D30A9008530AA003908AC01BC
:10494600AC073808AB01AB0786310126A43120003D
:104956003A08031DAF2CB72CAA010314AA0DFF3089
:10496600A031FF20A431C02C2000AA010314AA0DF7
:104976000030A031FF20A431C02C08008A31242247
:10498600A43120003908C501C5073808C401C40789
:104996004508803AFF0080307F02031DD42C013089
:1049A6004402031CD72CD82CDA2CF72CF72C200029
:1049B60045084404031DE02CE12CE52C9D314E25D1
:1049C600A431E52C20004508803AFF0080307F02A4
:1049D600031DEF2C013044020318F22CF32CF72CA4
:1049E60088310020A431F72C080020004E08803AB8
:1049F600FF0080307F02031D022D02304D02031C92
:104A0600052D062D0D2DFF302000CD00FF30CE00E8
:104A16002E2D2E2D7018102D112D172DE53020005E
:104A2600D0008530D1001D2D9C302000D00085306F
:104A3600D1001D2D7430A9008530AA005108AC01A3
:104A4600AC075008AB01AB0786310126A431200024
:104A5600CD01CE012E2D08002000A900AA01A0310B
:104A66006C20A531A030A1316E21A5310038031D7F
:104A76003D2D3E2D432D2000AA010314AA0D632DC2
:104A86000030A1316E21A5310038031D4B2D4C2D70
:104A9600522DFF302000A8002808AA00632D200010
:104AA6002908A1316E21A5310038031D5B2D5C2D2F
:104AB600632DFF302000A8002808AA00632D632D6F
:104AC600A0317220A53120002A08692D0800200097
:104AD6004E08803AFF0080307F02031D742D02309D
:104AE6004D02031C772D782D7F2DFF302000CD0041
:104AF600FF30CE00A42DA42DA0316720A5310038AB
:104B0600031D862D872D8D2DED302000D00085309C
:104B1600D100932DC6302000D0008530D100932DD2
:104B26000D30A9008530AA005108AC01AC07500829
:104B3600AB01AB0786310126A5312000CD01CE01A0
:104B4600A42D08000034003400340034003400344E
:104B560000340134C63400340034003400340034E8
:104B66000034003400341134C634003400340034C8
:104B76000034003400340034003401340E3401347F
:104B8600003400340034003400340034003421345E
:104B9600103401340034003400340034003400345E
:104BA600003401341034013400340034003400344D
:104BB6000034003400341134103401342000A701CD
:104BC600A801220821040319E92DEA2D202EA601A9
:104BD6000314A60DF82D0130A135A20D890BEF2D7A
:104BE6000130A5002508A607F82DA21FFB2DFC2DD8
:104BF600EE2DFE2DFE2D0130A735A80D890BFF2DBC
:104C060022082402031D092E21082302031C0C2E50
:104C16000D2E132E2108A3022208A43B2714132EBF
:104C26000130A236A10C890B142E0130A602031DF9
:104C36001D2E1E2EFE2D202E202E2808A201A20794
:104C46002708A101A107272E080020002208A70196
:104C5600A7072108A601A607302E1708A3002308D8
:104C6600A8002108023EA3000030223DA40023082C
:104C760086002408870021002908C03F2A08C13F72
:104C86002B08C23F2C08C33F20001608A3002608A5
:104C9600860027088700230881001708A300260836
:104CA600013EA4000030273DA50024088600250803
:104CB6008700230881002608013EA3000030273D17
:104CC600A400230886002408870001082806031D7F
:104CD6006D2E6E2E302E6F2E08002000BB00093080
:104CE600B9003908BC003B08B9003908BD003808CE
:104CF600860087010108B9003908BE003808013E60
:104D0600860087010108B9003908BF003808023E4D
:104D1600860087010108B9003908C0003808033E3B
:104D2600860087010108B9003908C1000630B900BC
:104D36003908A8003C3098319720A631003A03196B
:104D4600A52EA62EB02EEE302000A9008230AA0095
:104D560086310126A631BB2EBB2E0D302000BA00AF
:104D6600FB30B900B90BB52EBA0BB52EBA2EBB2E39
:104D760008002000A300E52E0E30A2002208A400A1
:104D86002030A2002208A500F32E0C30A200220833
:104D9600A4000430A2002208A500F32E0C30A200C5
:104DA6002208A4000830A2002208A500F32E0C3029
:104DB600A2002208A4002030A2002208A500F32E9B
:104DC600092FF32E2308013A0319BF2E033A0319BC
:104DD600C82E013A0319D12E073A0319DA2E092FE4
:104DE6002108031DF72E002F2508A200240886009F
:104DF6000130870022088104092F2509A200240812
:104E060086000130870022088105092F080020004E
:104E1600AF00B001B1013B2F09302000AE002E08D3
:104E2600A1003008A131DD21A731093E2000A500EF
:104E360082300318890AA6000830A7000030A800AF
:104E46002F08A7315827A731200026082504031D5F
:104E56002D2F2E2F362F3108AD01AD073008AC01AE
:104E6600AC07572F572F0130B0070030B13D3B2F0D
:104E76000930AE002E08A1003008A131DD21A7318E
:104E8600083E093E840082300318013E8500000872
:104E96000038031D4F2F502F0F2F512FFF302000AA
:104EA600AC00FF30AD00572F08002000AB00982F54
:104EB6002B088600013087000108003A0319642F89
:104EC600652F762F25088400260885000008A9008E
:104ED6002B08860001308700010829060319742F64
:104EE600752F8F2F762F2508840026088500000849
:104EF600A900AA01A909AA09A90A0319AA0A2B083D
:104F060086000130870001082907A5002A08031832
:104F16002A0AA600AA2FAA2F0130A9002908AB0742
:104F26000130A5070030A63D982F0130A7020030BA
:104F3600A83BFF302806031DA22FFF302706031DBE
:104F4600A52FA62F5B2FA72FA501A601AA2F080024
:104F5600D3302000A9008430AA0086310126A7316B
:104F66002000ED016D08A3311D23A731F730200085
:104F7600A9008430AA0086310126A7312000EC0161
:104F86006C08A3314123A7312100B7013708A131AD
:104F96003B21A731A1302000A9008430AA00863128
:104FA6000126A7312100B4013408A1314C21A731D3
:104FB600BB302000A9008430AA0086310126A73123
:104FC6002100B8013808A1315D21A731C730200082
:104FD600A9008430AA0086310126A7312100B90133
:104FE6003908A1318221A73139302000A900853046
:0A4FF600AA0086310126A731080049
:020000040001F9
:04000E00E1C9FFDA6B
:00000001FF
